:1020000000800020756200005D6200005D620000DB
:1020100000000000000000000000000000000000C0
:102020000000000000000000000000005D620000F1
:1020300000000000000000005D620000C9620000B6
:102040005D6200005D6200005D6200005D62000094
:102050005D6200005D6200006D350000616200009D
:102060005D6200005D6200005D6200005D62000074
:102070005D620000BD4C00005D6200005D6200001A
:102080005D6200005D6200005D6200005D62000054
:10209000000000005D6200005D6200005D62000003
:1020A0005D6200005D6200005D6200005D62000034
:1020B0000000000010B5064C2378002B07D1054B1B
:1020C000002B02D0044800E000BF0123237010BDA4
:1020D000D80300200000000054F70000044B10B5A6
:1020E000002B03D00349044800E000BF10BDC046E8
:1020F00000000000DC03002054F70000F0B589B0B8
:102100000292514B00220090019106F0E9FC002858
:102110000AD1009801990022002306F0CDFC002886
:1021200006D00023002401E00023474C00930194D3
:1021300068250024029B454F5D4300980199661C69
:10214000F3005B19DB191A685B6806F0B5FC002820
:1021500001D0E4B202E034000B2EEED105263C257E
:10216000029B66435D433A4FAB195B00D85B08F0B6
:1021700055FA0D23029A05365A4313190792334A2A
:10218000DB00D3181A685B68029203930A23A34208
:102190009B415B42F61AAD196D0004900591E85B16
:1021A00008F03CFA049A059B07F064FE079B013493
:1021B0001C19264BE4001C190600029A039B0F0011
:1021C0002068616807F056FE02000B0030003900FD
:1021D00006F0D4FF029A039B04000D0000980199B9
:1021E00007F048FE02000B002000290007F0D0FB9A
:1021F000049A059B06F0A6FC0022002304000D00B3
:1022000006F078FC0022134B002818D0200029008B
:1022100006F098FC08F092F908F0C6F900220023B5
:1022200004000D0006F048FC002801D00024002521
:102230002000290006F068FC80B209B0F0BD200043
:10224000290007F017FEE5E7000014400000002019
:10225000F40300200000E03FF7B500252D4B01936B
:102260000024022D2DD0200008F09EF900222A4BD8
:1022700007F08EFB294A2A4B06F080FF002200233C
:1022800006000F0006F036FC0022264B002813D073
:102290003000390006F056FC08F050F9019A63004E
:1022A00080B20134D0523C2CDDD1019B0135783312
:1022B0000193032DD4D1F7BD3000390007F0DAFDCA
:1022C000EAE7200008F070F90022174B07F060FBE6
:1022D000124A134B06F052FF0022002306000F00A3
:1022E00006F008FC00220F4B00280ED03000390009
:1022F00006F028FC08F022F96300064A80B2F033A9
:102300000134D0523C2CDCD1CFE73000390007F04B
:10231000B1FDEFE7F4030020007CA1405C8FC2F523
:10232000289C4D400000E03F00BEA6400020002158
:1023300070B50B4C0B4D2060616000200A49A06015
:10234000E160F134FF3428686968084A084B07F0F7
:102350001FFB083528606960A542F4D170BDC046F6
:1023600060050020680500200000B03F6379D99225
:102370008FF3F03FF8B5082006F096F90125040028
:102380000026042205700021023008F0B9FA134B30
:102390001348A380A671E67100F0E2FF114F2900F7
:1023A00020783C6004F044FA2900207804F070FAA8
:1023B00080223B68520159889D7111435980998848
:1023C000DD710A439A802900300004F031FA0A20B6
:1023D00004F004F9FFF7AAFFF8BDC0460080FFFF34
:1023E000680C00205C05002007B5064B064A0093E8
:1023F0000023190006F020F90100002004F038F94C
:1024000007BDC046FF030000FF0F0000F8B55D24C4
:102410000500A14204D80C1C212900D22124E4B2D9
:102420000F4B188808F0FAF800220E4B07F022FD37
:1024300000220D4B07F0ACFA0600200021380F00F7
:1024400008F0B2F80022094B06F098FE0B000200DB
:102450003900300006F076FB2A00FFF74FFEF8BD8A
:10246000380100200000C0400000203F000028404C
:102470004823D0B50400994204D80B1C092900D286
:102480000923DBB2114A093BDB00D3181E685F68E1
:102490000F4B188808F0C2F800220E4B07F0EAFC38
:1024A00000220D4B07F074FA0B0080210200C905D1
:1024B000002002F04BFC0B0002003900300007F056
:1024C00067FA2200FFF71AFED0BDC0466005002063
:1024D000380100200000C0400000203F73B50026F6
:1024E0006B460400144D5E711E711449019A280058
:1024F00000F05EFFA379B3420BD02078310004F0E6
:10250000C7F96188280000F088FF2078012104F0D5
:10251000BFF9E379002B0BD02078002104F0B8F943
:10252000A188280000F079FF2078012104F0B0F99B
:10253000280000F059FF73BD680C0020808D5B00FF
:10254000023052008218138810B5054C1B0B1B0378
:10255000081CA14200D9201C0343138010BDC046B3
:10256000FF0F000010B5054C81B200222068FFF774
:10257000E7FF2068FFF7B2FF10BDC0465C050020F2
:1025800010B5054C81B201222068FFF7D9FF206801
:10259000FFF7A4FF10BDC0465C05002010B5040085
:1025A0000C4BC0001B1859602000002A06D0FFF712
:1025B0002DFF002C05D1FFF7D5FF10BDFFF758FF09
:1025C000F7E7012C02D1FFF7DBFFF6E7FFF70CFF7F
:1025D000F3E7C046840700200722084B10B51C68AB
:1025E000C3081040063A8240E418E378D2B20029CA
:1025F00002D01343E37010BD9343FBE7780700203C
:1026000010B5040003F06EFE044BA2000A30D05057
:1026100001212000FFF7E0FF10BDC0465807002051
:1026200010B50400C37801220178407804F0E0F985
:10263000A078012104F02CF9A078002104F028F9F9
:1026400010BD0000F8B5042006F02EF8032702267E
:10265000042504000770467085700121380004F0DD
:10266000E7F83000012104F0E3F82800012104F02C
:10267000DFF83800002104F00BF93000002104F0ED
:1026800007F92800002104F003F900232000E3707B
:10269000FFF7C6FF014B1C60F8BDC046780700205D
:1026A00010B5024B1868FFF7BBFF10BD780700207C
:1026B000F8B503F017FE00240700094DA600735972
:1026C000002B07D0BB4205D2E0B20021FFF784FF08
:1026D000002373510134082CEFD1FFF7E1FFF8BD5F
:1026E0005807002010B5002B03D001220020FFF76F
:1026F00055FF10BD10B5002B03D001221000FFF7CD
:102700004DFF10BD10B5002B03D001220220FFF7B2
:1027100045FF10BDF8B50D001E0001240C273B003D
:1027200063430E4AD3181A000C3A1268002A0ED1DD
:102730001A1F1268AA420AD1601E083BC0B219686B
:10274000002E08D04B425941C9B2FFF745FF013472
:10275000092CE4D1F8BD4B1E9941F5E79C070020F8
:10276000F8B50D00160001240C273A0062430F4B08
:102770009B181A000C3A12680D2A0AD1002E0CD0B0
:10278000083B19684B425941601EC9B2C0B2FFF7FD
:1027900023FF0134092CE8D1F8BD054A5268AA424A
:1027A000F7D1083B19684B1E9941EDE79C070020C3
:1027B000840700207047704770470000F8B50D008F
:1027C000160000240C2739006143104BCA58132A05
:1027D0000CD1072D0ED15B18E0B259683F2E12D9EB
:1027E0004B425941C9B2FFF7F7FE03E0142A05D165
:1027F0000A2DF0D00134082CE5D1F8BD152AF9D105
:102800000B2DF7D1E7E74B1E9941EBE79C07002022
:1028100070B5744C03212368581C206006F046F8FC
:1028200000290DD10D000C2632006A436E4BD3589F
:10283000012B02D1E8B2FFF7E3FE0135082DF3D1F9
:102840000621206806F032F800290DD10D000C2673
:1028500032006A43644BD358022B02D1E8B2FFF72F
:10286000CFFE0135082DF3D10C21206806F01EF8AB
:1028700000290DD10D000C2632006A435A4BD35863
:10288000032B02D1E8B2FFF7BBFE0135082DF3D1CF
:102890001821206806F00AF800290DD10D000C2639
:1028A00032006A43504BD358042B02D1E8B2FFF7F1
:1028B000A7FE0135082DF3D13021206805F0F6FF81
:1028C00000290DD10D000C2632006A43464BD35827
:1028D000052B02D1E8B2FFF793FE0135082DF3D1A5
:1028E0006021206805F0E2FF00290DD10D000C26C3
:1028F00032006A433C4BD358062B02D1E8B2FFF7B3
:102900007FFE0135082DF3D1C021206805F0CEFFF0
:1029100000290DD10D000C2632006A43324BD358EA
:10292000072B02D1E8B2FFF76BFE0135082DF3D17A
:10293000C0212068490005F0B9FF00290DD10D0024
:102940000C2632006A43284BD358082B02D1E8B238
:10295000FFF756FE0135082DF3D1244B1B78002BD1
:102960003FD0234B20681B68C01A3AD0182105F0CD
:102970009DFF002935D11F4D2B685C1C03232C6063
:102980001C400CD10C2632006243174BD358092B44
:1029900002D1E0B2FFF734FE0134082CF3D10F244A
:1029A0002B681C400CD10C26320062430E4BD358CE
:1029B0000A2B02D1E0B2FFF723FE0134082CF3D139
:1029C0001F232C681C400CD10C252A006243064BA7
:1029D000D3580B2B02D1E0B2FFF712FE0134082CC2
:1029E000F3D170BD800700209C0700200008002064
:1029F000FC0700207C070020831DDBB270B50500BA
:102A0000012B1ED81D4B1A681D4B1A6000221D4B4E
:102A10001A601D4B01321A7001240C2632006243E9
:102A20001A4B9B181A000C3A12680C2A1DD1FA2D69
:102A300003D3FB2D0AD9FC2D12D00134092CEDD182
:102A400070BDFC28E8D1104B0022E4E7083B196870
:102A50004B425941601EC9B2C0B2FFF7BDFDECE761
:102A6000083B19684B1E9941F4E7093A022AE4D859
:102A7000601EC0B2FFF7C4FDDFE7C046800700203C
:102A8000FC0700207C070020000800209C07002095
:102A900010B50E4C2378002B05D063680122D9B203
:102AA0000020FFF77BFD237A002B05D00122E3688D
:102AB0001000D9B2FFF772FD237C002B05D06169AD
:102AC0000122C9B20220FFF769FD10BD8407002072
:102AD0000D220221164B1A6053329A600022D960EF
:102AE0005F3159615E3999615F3119625E395962AE
:102AF0005F31D9625E3919635F3199635E39D96399
:102B00005F3159645E3999645F3119655E39596581
:102B10005F311A615A60DA619A625A631A64DA6440
:102B20009A65D965034B01321A701A721A7470478C
:102B30009C07002084070020F8B50D001E0004004B
:102B40001700FFF7CFFD33003A0029002000FFF700
:102B5000D1FD33003A0029002000FFF7D3FD3200F9
:102B600029002000FFF7FCFD33003A002900200077
:102B7000FFF7D0FDFFF794FDF8BD70B50D0016000E
:102B80000400FFF717FE320029002000FFF713FEB4
:102B9000320029002000FFF70FFE3200290020003C
:102BA000FFF70CFEFFF77CFD70BD000010B50B4A6F
:102BB0009AB00400FA2803D0094AFB2800D0094A39
:102BC000094901A808F0FCFE01A9084803F066FFC6
:102BD0002000FFF711FF1AB010BDC0467CEF0000C7
:102BE000C9EE0000C4EE0000D2EE0000140E00207A
:102BF00070B5204D040029680D2003F049FE2B68B4
:102C0000013B5A1E93412B60002C16D00F232278D3
:102C100013401209083A1000062A0ED805F0B6FD36
:102C20000E040D150D0D1E007F20A2786178024064
:102C30000140581C0123FFF77FFF70BD7F22581C05
:102C40000023617811401A00F5E77F20A2786178AF
:102C500002400140581CFFF790FFEEE77F21A27869
:102C600063780A40D2010B401343034A1380FFF7F5
:102C70000FFFE2E7040800203801002010B500280B
:102C800009D00078F82807D003D3831DDBB2022BCC
:102C900005D9FFF705FD10BDFFF7BAFDF9E7FFF70E
:102CA00085FFF6E770B50C4D0100280000F094F8A0
:102CB00000280CD0280000F083F8084C2060280081
:102CC00000F053F8042803D12068FFF7D7FF70BD48
:102CD0002068FFF78DFFFAE7200800203808002061
:102CE00070B50C4D0100280000F076F800280CD0DB
:102CF000280000F065F8084C2060280000F035F846
:102D0000042803D12068FFF7B9FF70BD2068FFF7E2
:102D10006FFFFAE7080800203808002010B50521E9
:102D2000034800F057F80521024800F053F810BDA1
:102D3000200800200808002010B5034800F008F81B
:102D4000024800F005F810BD200800200808002007
:102D5000002383808371C3718360C36003744374F1
:102D60008374C374037543757047007D70470423F3
:102D7000F72808D8DB18F72805D0F02803D0063B41
:102D8000EF2800D8C3091800704700000300012095
:102D9000F72B05D8EF2B04D90E30074A0340D05C3F
:102DA000704700205AB28242FADA04481B11C31855
:102DB000083B1878F4E7C046DFEE0000E7EE0000BD
:102DC000027DC31C042A03D00023082A00D003007C
:102DD00018007047C1747047F8B50400002661748C
:102DE0004BB20D000674C6718779B3424BDA080006
:102DF000FFF7BDFFE37C03401800421E9041C0B2C4
:102E00002074B7420ED0F62D0CD80122E271E26890
:102E1000A671A2600026A6746675A680B34207D18B
:102E2000002004E0F72DF5D90423E5702375F8BDE3
:102E3000F72D0DD1E368A079A3600823002802D004
:102E40002375A671F3E70122A060E2716375EEE7D6
:102E5000F02D05D10123E660A37107336375DFE729
:102E600025702800FFF792FF60710138C0B2207111
:102E7000EF2D01D80123F1E7022363750028CFD19C
:102E800023750130D3E7002F05D0C3680133C36039
:102E900001230374C4E7837C002B03D04379877438
:102EA000013B03712379002BBAD001206279D21A39
:102EB000013BDBB2A55420742371002BB0D1637D9C
:102EC00023758342B3D1A074B1E70000F8B5102494
:102ED000012739000B4B0C4D1E782878721CB1432A
:102EE0001A70FFF779FBFFF7DBFB2B783E4201D02E
:102EF0000133DBB26420013C2B7003F029FA002C73
:102F0000E7D1F8BD3C0800203D080020064B10B575
:102F10001B68002B04D000F04DF8FFF7C9FB10BD73
:102F200000F086F8F9E7C04640080020962110B569
:102F30001A4C8901200005F059F91949200003F0C5
:102F4000ADFD01210D2003F073FC00210D2003F0E5
:102F50009FFCFFF777FBFFF7B9FFFFF77DF9FFF75E
:102F6000B7FDFFF707FAFFF7D9FE0221052003F0AE
:102F70005FFC052003F0B8FC0A4B1860002806D05F
:102F80000949200003F08AFD00F012F810BD07493E
:102F9000200003F083FD00F031F8F7E7140E002065
:102FA000EEEE00004008002029EF00004BEF00008B
:102FB0007047000010B50F4800F008FC0E4C0304E9
:102FC0001B0E637003021B0E2070A370030EC0B2B1
:102FD000E37000280AD0FFF783FE6078FFF780FED9
:102FE000A078FFF77DFEE078FFF77AFE2378002BCC
:102FF000E1D110BDEC0C00204408002010B50848B9
:1030000000F020FD002804D00649074803F046FDE3
:10301000FEE7064803F060F9C82003F099F910BDF7
:103020000C0900206BEF0000140E0020D9310000C5
:10303000F0B53F4F85B03B783E4E3F4D002B07D15A
:103040003378002B1AD13D4800F006FD122815D028
:103050003A4801F045F93378002B18D1384803F08D
:103060003BF9384B1A780C235343ED186B69364AF9
:103070005B019B18FF225A7205B0F0BD3378002B1C
:10308000ECD02E4800F0E8FC9028E4D0E0E72B4894
:1030900000F0E2FC9028E1D1686800F0DDFC9028A7
:1030A000EAD12A4A2B7A126A9A42E5D0002BE3D061
:1030B0003B78002BE0D00C22224B01921B7800932E
:1030C0005343EB185C6900233B703378204A214F4F
:1030D000002B0BD0019B00994B43EB185B69083325
:1030E0005B01D35C9B065B0F032B16D10121164BB2
:1030F00065011948EB1819712F504019174D083404
:10310000056103256401105DA84301431155402268
:103110005A71303A5A719D72AEE7084801F0E0F8F2
:1031200002AB3A00991D280001F031FBCDE7C04603
:10313000640C0020650C0020780800200C09002099
:10314000D93100007CF00000FF5000414808002009
:1031500000500041640A00206C160020640B00201F
:1031600070B500260A4B44011B195D68AD04AD0C17
:10317000AE4205DA074B985DFFF794FD0136F7E79D
:10318000054BE418012323723F33637170BDC046C1
:103190006C160020640A0020FF50004170B5002624
:1031A0000A4B44011B195D69AD04AD0CAE4205DA52
:1031B000074B985DFFF776FD0136F7E7054BE418FE
:1031C000022323727E33637170BDC0466C160020EB
:1031D000640B0020FF500041224B70B51A780C237D
:1031E0005A43214B9B1880225D69204B5200998BDA
:1031F0006C01914228D101231D4A13701D4A13709E
:1032000002F0B2FE1022194BE6181B4BE418A27113
:10321000227AD30708D5227A930705D5E3795B078D
:1032200002D52800FFF7BAFFFF36337ADB0702D555
:103230002800FFF795FF337A9B0702D52800FFF798
:10324000ADFF1023737170BD9A8B80239B009A424F
:10325000D6D10022074B1A70074BFF32E3185A727F
:10326000CEE7C0467CF00000780800200050004106
:10327000640C0020650C0020FF50004110B5064C86
:10328000200000F0B7FB2100044801F0FBFB210007
:10329000034801F0E5F810BD0C09002048080020A3
:1032A00078080020F0B5040085B01E000AAB1B783A
:1032B000103001930BAB1B78170002930CAB1B78FB
:1032C0000D00039300F01EF92000243000F01AF9DD
:1032D000220000234032A363E363137063729D42B4
:1032E00005D10A4B0A4A22210A4807F06BFA6B46BD
:1032F0001B79200063716B461B7A2560E3716B4676
:103300001B7B2771A671237205B0F0BD82EF000010
:10331000F3EF000093EF0000437A002B04D1837297
:10332000C372C36001334372704730B5040085B087
:1033300002AD00680291039203F0A6FC6B79227A39
:10334000E17900932068002303F088FD2979029A2F
:10335000206803F0C3FC206803F08CFC05B030BD8E
:1033600070B518260400FFF7D7FF33000821207935
:103370000D4D4343EB18595603F0D8FA330008219A
:10338000A0794343EB18595603F0D0FA082160792D
:103390004643AD19695603F0C9FA044B200006CB29
:1033A000FFF7C3FF70BDC046D0F00000AC0C00209A
:1033B00007B5837A00910192002B07D09A070AD5AE
:1033C000EFF310835A425341C37272B60099019AC7
:1033D000FFF7ABFF07BDDB07F8D5C368014A9BB217
:1033E0009360F3E700180040837A002B05D09A071A
:1033F00004D5C37A002B00D062B67047DB07FCD53A
:10340000C368024A9BB2D360F7E7C0460018004089
:1034100010B5006803F046FC10BDF8B50500006863
:103420000C0003F03AFC260AE7B2012810D139005B
:103430002800FF27FFF7ECFFBC43044331002800BE
:10344000FFF7E6FF030220003840184380B2F8BDC2
:1034500031002800FFF7DCFFFF2600023440044360
:1034600039002800FFF7D4FFB4432043EEE7000003
:103470001FB5094B094A0A491A6000225A711A718C
:10348000012302930193093300930932023B05485B
:10349000FFF708FF05B000BDAC0C002000093D009F
:1034A00050100020680C0020094B1868002809D132
:1034B000EFF310820749002A08D172B6BFF35F8F7D
:1034C00001320A701A6801321A6070470870F9E711
:1034D000B80C0020B40C0020084B1A68002A0CD04D
:1034E0001A68013A1A601B68002B06D1044B1B783E
:1034F000002B02D0BFF35F8F62B67047B80C00207C
:10350000B40C0020FF23002110B504000370FC3B25
:1035100041708170C170017143710C22083007F055
:10352000EFF9200010BD000001220B0010B5134080
:1035300008D00D4B1A70042343708368002B00D011
:10354000984710BD0222114204D007490A70437007
:10355000C368F3E704231942F3D0034A137003331B
:1035600043700369EAE7C0464E48004110B5FFF7D3
:103570009BFF0C4B1B8C1B071B0F0B2B0FD80A4AF6
:103580009900885800280AD00F2408490A78A243D5
:1035900013430B70064B1978C9B2FFF7C5FFFFF74D
:1035A0009BFF10BD00480041BC0C00203F4800417B
:1035B0004E480041002070470020704700207047AF
:1035C000F0B50A250B789DB002330B7002ABED18F5
:1035D0005C4F03AC01905A220021280007F090F9BB
:1035E0002781678381277F00E7830327564B802647
:1035F00023800123BC46EB7776008025A6826646B1
:1036000002AF05376D00FE77E584072641250921C5
:1036100004AFFE77258502AE133D8F19AD1906263E
:103620002E702F252420022202AEAD1928700EAD77
:103630002A703125AD192B703225AD192B70434DF1
:10364000F8770F9510AD2A70414D8127E586042546
:10365000FF352587658743257F00AD19E27023710B
:1036600063716373A3736174A074E374E18223765E
:10367000A787297013AD2870654621308019057021
:10368000462080190270472004258019057014A86F
:1036900003704920801903704A202E4D8019037051
:1036A00015A805804F20801940265525027016A8C0
:1036B000068002AF0520ED195627287002AD7F194C
:1036C00025253D70572702AD7F193B7018AF3B7021
:1036D00059277F193B705A277F1939705231491980
:1036E00008705D2149190A705C32521916806322F4
:1036F0002521521910701BAA1170652252191370DE
:10370000662252191370624666335B191A704E2294
:10371000019B52191B792100A370A3720133DBB204
:1037200063762377019B5B791370802201335242C9
:10373000134319AA13700848642204F00DFB1DB04E
:10374000F0BDC04609040000080B00000624020278
:103750000924000009050000A410002010B504246D
:1037600008002200024907F0AFF8200010BDC04653
:1037700047F00000134BF0B5FC335C683F230600B4
:1037800085B001341C4001930E4DFC35AB68A3425B
:1037900016D00D4F7179380004F024F971790423A3
:1037A00003AA380004F0B2F9032809DD6B68054A62
:1037B00003999B009950019B6C6001341C40E3E726
:1037C00005B0F0BD040D0020A410002073B5194C05
:1037D00006002500FC356B68AA689B1A9B061BD067
:1037E000AA6892001219137850789178D278FC3434
:1037F0006668A568AE4204D03F26A568013535400D
:10380000A560FF2420402340214000020904184302
:1038100012060843104376BD4179074804F0E2F8E8
:10382000002803D03000FFF7A5FFD9E70200010010
:103830000300DCE7040D0020A41000200B4B10B5A2
:10384000C3800300103383600023C360084B04006F
:1038500008330360022303618033436103F056FCA5
:10386000210003F027FC200010BDC046020200002A
:103870004CF0000010B50248FFF7E0FF10BDC04655
:10388000EC0C00207047002070470020704700209B
:10389000704770B505000C007F20844300208442EF
:1038A00033D1072B31D8824202D02C69072C2CD07F
:1038B0002E00012428363068002812D1002917D0A4
:1038C00007263140C900002A23D040232A690B4330
:1038D00001322A613240134324012D19AB611800D3
:1038E00013E00134E4B21036102CE4D100200CE0D7
:1038F00001342301EB18002A08D041229A602B6979
:1039000001332B6124012D19A86870BD01229A6032
:10391000F8E7334018000B00B3430343DCE7F8B586
:103920004B1C1B01C3189A6805000E00520617D5E0
:1039300001271C7A6407640F7B1E0E2B00D9012718
:103940007A1C1301EB181B7A9B065B0FA34211D064
:103950001700102AF4D12B69A34201D1013C2C613C
:10396000002301223601AE1904357561B361F2619D
:103970003362F8BD39002800FFF7D1FFDCE710B54E
:10398000002901D1143010BD02000123283214682F
:10399000A14203D114301B01C018F4E70133DBB29C
:1039A0001032102BF3D10020EDE770B50C00412947
:1039B00010D1010003000022012515312433FF310D
:1039C000041D5A609D60DA601C6010339942F8D182
:1039D000026170BD02000121283213689C4202D1AD
:1039E000FFF79DFFF5E70131C9B210321029F4D17C
:1039F000EFE700000822114B30B582600500343239
:103A000003600121002342730200041D1535036188
:103A10008361C1610362446143602432FF355360B6
:103A20009160D36014601032AA42F8D1AA225200E9
:103A30008354034B443AFF3A1A6030BD70F00000E3
:103A40003C010020AA2310B500245B00C45402F0FE
:103A5000C3FA200010BD0000014B18687047C04633
:103A60003C01002010B51400FFF789FF031E0DD0A4
:103A70000368002B0AD000228168914205D01868A3
:103A8000A04203D00C330132F7E70023180010BD29
:103A900070B516000D001C00D822002B06D0FFF7D1
:103AA0006EFFD622002801D0002270C0100070BD29
:103AB000F7B514005201944600910022210001271D
:103AC00001930423274E083166447270264A490147
:103AD0000B9D885C3D40AD009843284307258854E2
:103AE000019B885CDB192B403135A843DB00034385
:103AF0008B540A9B0320DBB23371089B1B0628D52D
:103B00008B5C83431F4340238F54B371137B002589
:103B10005B0700D40335154E202266443000002197
:103B200006F0EEFE7F20B3890099834301400B43EA
:103B30000F21B381B3890C400D4924020B401C4373
:103B4000B48173682A070B4D7E381D40154375609C
:103B5000FEBD8B5C83431800022303438B54402338
:103B60007371D3E7FF500041005000416C160020F4
:103B7000FFF0FFFFFFFFFF8FF0B585B01F000600CD
:103B80000C001500FFF7FBFED62300282AD00268A0
:103B90000133002A26D02A0021003000FFF762FFFF
:103BA000DB23386000281DD0437A9B08DAB20F2A45
:103BB00000D90F2301221100DBB299400B000A99B2
:103BC000013B0B60002D10D00027037A039202976F
:103BD0004268210001920B9A300000922A00FFF700
:103BE00067FF3B00180005B0F0BD7F210268054B60
:103BF00052019B189A890C408A4314439C812B00E4
:103C0000F0E7C0466C160020F7B5170000911E00C3
:103C100002F068FB0025224B0099C318380001937D
:103C20002C0002F0BFFA02F05DFB019B984232D2F9
:103C300002F06EFA02282ED10099380002F0E0FA64
:103C400000282AD1174A7B019A18117A04300142C0
:103C500007D010720134002E03D0B44201D10220EB
:103C6000FEBD0220104AD118897A014204D00134E5
:103C7000002E01D0A642F2D00820D218D2890242EA
:103C800002D00135032DEBD00120074AD318DB8980
:103C90000342C8D0E4E7FF20E2E70020E0E7C046A7
:103CA00010270000FF5000416C160020F0B51F00E7
:103CB0000C0087B00CAB02CB04901B78607A0293A7
:103CC0003B880592019363680122039300233B80A4
:103CD000236808335B01800725D532481B185A71C9
:103CE00000252368304A5B01995023682E4E5B0102
:103CF0009A59012152199A512268059B0498FFF79D
:103D000083FF2368012814D10226284A5B019B18EF
:103D1000DA7902405100627AB2430A436272324257
:103D200005D09871E1E71F481B181A71D8E7587140
:103D3000DBE7002806D01E4A5B019B1810225A714F
:103D400007B0F0BD1B495A015B015B184021B61852
:103D500072681970019D9204920C954200D9150069
:103D60003B88039A5B199BB23B80AA4202D8019A16
:103D70009A4210D80121022023680C4A5B019B184B
:103D8000DA791140627A490082430A436272102252
:103D900000209A71D4E7029B002BA6D0180002F0F5
:103DA000D7FAA2E7005000416C160020FF500041F6
:103DB0000051004104510041F0B585B01D000AAB2F
:103DC00040CB04001F7800230293039380330193B8
:103DD00003AB009302ABFFF7CFFE002807D101979A
:103DE00000962B00039A02992000FFF75FFF05B0B1
:103DF000F0BD0000F0B54F6895B01D007B1E03902C
:103E00000C000192DA203F2B4ED801222368497A18
:103E100008335B01114235D025495B185A710020E7
:103E200023680293002D34D02E00BD4200D93E00FD
:103E300032001A9904A806F047FD04AA310002983E
:103E400002F09CF9019B226802210398FFF7DCFE37
:103E5000002812D0022819D0082825D0012818D10E
:103E60002368144A5B019B18D979627A0140824326
:103E70000A436272024219D098711A9BAD1B9B19BA
:103E80001A93CDE70A495B181A71C8E7019B012B09
:103E90000AD101212368084A5B019B189A79637A49
:103EA0000A408B431343637215B0F0BD5871E4E7C9
:103EB00000500041FF50004100510041F0B51D008D
:103EC0008FB014AB1F7815AB1B781600059316AB9B
:103ED0001B782A00069317AB1B880390079318AB37
:103EE0001B880493002309930A937F339A430AABF8
:103EF00001920093320009ABFFF73EFE041E49D148
:103F0000402102F00BF9041E44D16B461B7D0CAA24
:103F100093706B461B7E5770D3706B469B8B08214A
:103F200093806B461B8A1570D380099B186802F03A
:103F300025F921000A9B32000398FFF765FE041E55
:103F400028D11A9B6DB20999002B33D00A9A4B7A6B
:103F5000002D43DA02270A263B434B7206ABF618C4
:103F60006B461B8A33801A9B0190009303983300A1
:103F7000FFF79CFE0122040010420ED009990B6845
:103F80005801224BC01883791A404B7A5200BB4328
:103F900013434B7220000FB0F0BD0028FAD11B9BD9
:103FA000002B07D01B6831881F681A9A0B900BAB47
:103FB0001B98B847099B186802F0D6F8099A13496C
:103FC00013685B015B1801215971E90F01310A9BEC
:103FD00012680398FFF718FE0400DBE701252B4366
:103FE0004B721A9B03980093199BFFF703FF041E63
:103FF000D0D1099B186802F0B7F8099A03491368F1
:104000005B015B185D712900E1E7C046005100418A
:10401000F7B5890041181F00FC31002314000D0082
:1040200001900093A8693A00036821005E68089B2C
:10403000B0470600E0282ED1002C21D18021214A52
:104040008900138966200B43138102F081F9A86966
:104050003A00036821001E68089BB047061E0DD079
:10406000009B022B1CD9002C22D18023154A9B00D7
:10407000118966200B43138102F06AF93000FEBDFE
:104080002300019A44339B00D31858683900036811
:104090005B699847DBE70028D9D0009B022BEDD85D
:1040A000642002F055F9009B0133DBB20093B9E7BD
:1040B000019B4434A4001C196068390003685B69E3
:1040C0009847DBE700500041F8B505000F1E18D0F7
:1040D000060000241536FF36306800280DD003682E
:1040E0001B699847B84208D1200044308000281846
:1040F000406803689B689847F8BD01340436102C6B
:10410000EAD10020F8E730B589B005939BB204935B
:10411000012300240C9D0293053300930794069518
:10412000039401947A33FFF7C9FE09B030BD30B56E
:1041300089B005939BB20493022302930C9B002445
:10414000DBB2019306230D9D00930794069503941B
:104150007A33FFF7B3FE09B030BD10B5DBB288B0DB
:104160000024019305230794069405940494039472
:10417000029400932300FFF7A1FE04009620400064
:1041800002F0E6F8200008B010BDF8B51F00436942
:104190000400D725002B1FD03B00581E8341200070
:1041A000236213000022FFF774FB033D061E13D0A9
:1041B00001002000FFF7E3FB023500280CD00022AD
:1041C000C760330011002000FFF7C7FF051E03D0B2
:1041D00031002000FFF7E9FB2800F8BDF0B51F0013
:1041E000082391B00993F0230391002108AE9B01AD
:1041F000338143690BAD0492059346610762122334
:1042000000950A0004000891FFF77DFFEB797360C9
:10421000059B6361002838D106002B8905936B89C3
:1042200006932B790793B5001535FF356519286876
:10423000002814D10136102EF5D10026B500153511
:10424000FF3565192868002829D10136102EF5D1CF
:104250003B00049A03992000FFF797FF15E00368DD
:104260001B6998470028E5D12868069A03680599D4
:104270009B69984700280AD00097049B039A310055
:104280002000FFF7C5FED128D4D011B0F0BD2868BA
:1042900007990368DB6998470028EDD1CAE70368EE
:1042A0001B6998470028D0D12868069A03680599A9
:1042B0009B6998470028C8D1286807990368DB697B
:1042C00098470028C1D1049B039A00973100200031
:1042D000FFF79EFE082203009343D12BD5D1B4E70C
:1042E0000023F7B50700019301F012FF0190019B35
:1042F000022B29D0032B0AD0012B0BD1F023424AE9
:1043000011680B40102B05D01123136002E013221B
:104310003D4B1A603D003C001535FF352E005534ED
:10432000FF343068002802D00368DB689847043601
:10433000A642F6D1344C2368302B42D012D8112B30
:1043400028D0202B34D0F7BDF0232F4C2268134007
:10435000102BDFD101F0C6FF2C4BC8301860202392
:104360002360D7E7502B34D0802B3ED0402BEAD1AE
:104370000822274B998B1142E5D09A831989F8328C
:104380000A431A815023236001F0ACFF1F4B143005
:104390001860D8E701F020FE2868002802D00368E2
:1043A0009B6898470435AE42F6D112232360CAE7D2
:1043B00001F098FF154B1B68C01A30230028F5DA6E
:1043C000C1E78023124A9B0011890B4313814023CC
:1043D000ECE70F4B9B8B5B07B5D501F083FF0B4BD5
:1043E0001B689842AFD98023E0E7002338001A0009
:1043F0001900FFF7F3FE002803D0A023D228D5D15F
:10440000A1E79023D2E7C0463C0100200C0E00201B
:104410000050004110B5DBB288B00024019309239D
:104420000794009306940594049403940294230043
:10443000FFF744FD08B010BD00207047007A7047B8
:1044400010B504004068217A03689B6898470020F3
:1044500001232072A372E0729034207010BD00001E
:10446000234BF7B508330200036001260023903286
:10447000416003728672C372037313700C220400CE
:104480009446143401965A425A41D2006260624600
:10449000002502275A43256025728218557F019E08
:1044A000B543BD4355773700002B00D10F270C22B1
:1044B00003265A438218557FBF0035403D430133E0
:1044C00055770C34052BDED100290AD00A000023D1
:1044D0001532FF321468002C04D144339B00C918F4
:1044E0004860FEBD01330432102BF3D1F9E7C0461A
:1044F00080F00000F0B5C7B006AC00920194060051
:1045000017000423002240680391FFF710FEC0B299
:10451000002852D1E278A3781202134380221D1C96
:104520005200934200D9151CADB2019400972B00A4
:10453000002203997068FFF7FAFDC0B200283CD151
:10454000631904930C2301009C46049B9C4234D2C3
:10455000237803936378042B08D0052B10D0022B0B
:1045600001D163797372039BE418EEE7637900214C
:10457000012BF8D1A279032AF5D133730131F2E787
:10458000E578B37C2B40022BEDD1A27853B2DB430C
:10459000DB0F00290FD001332779059767467B434E
:1045A0000F27F3183A405A61059A1D779A61B37A3A
:1045B0000133B372D7E70333EEE747B0F0BD000035
:1045C000084B028A9A420CD1C389202B07D0362B84
:1045D00005D0512B03D0692B01D07B2B01D10223B5
:1045E0008374704735120000F0B58FB005938123B6
:1045F00003620300069100210125079202220400B4
:1046000028334162197029300378AB439343037018
:104610002300143304932033E562216319702100D1
:10462000280035310B78D830AB4393430B70257A93
:10463000002D09D1676829003B6838001B6898473E
:104640000390002802D1D6200FB0F0BD039BD720E5
:104650001B681E1EF8D0039A049B29001360059B5B
:10466000D36009AB2A00009360681223FFF74BFD6B
:1046700006AB9B8A039A238206ABDB8AC5B2E38131
:104680001660002D7ED13B682A005B6806991E00EB
:104690003800079BB047C2B203002272D420002A20
:1046A000D2D006AAD27C2900A261FF226068134002
:1046B0002A00FFF752FDC2B206003B68002A0AD06A
:1046C000039A3800D560217A9B6898473000FF2212
:1046D00025721040B8E703991B68CA60217A380038
:1046E00098470028AFD0059B0122C36006AB5E7FD0
:1046F000217A049B6068FFF7CBF9C5B2002D41D148
:1047000003232F00A3742000FFF75AFF2573BE4236
:104710000CD0217A3A002000FFF7ECFE051E31D1C3
:10472000A37A012B02D80137FFB2F0E7A37A012B5D
:1047300027D9237B002B11D1A36B2362E36B636228
:10474000230040331A78183B1A70636CE362A36C41
:10475000236323004C331A78183B1A70217A049B88
:1047600003226068FFF794F9637A217A0022606877
:10477000FFF750FEC5B2002D04D10123E3722800DB
:1047800062E7FF25236820009B689847F7E773B529
:1047900000260D00436A14000B80017A01960092F6
:1047A0002B00026A4068FFF707FB2B88C0B23B2B47
:1047B00003D8E6542B88E418667076BD006A70470B
:1047C000093948424841704710B504004068216AE1
:1047D00003689B689847002020626062A062E062E4
:1047E00010BD10B51B02134388B09BB20024039385
:1047F0000123C9B20093079406940594049402948B
:104800000191016A223322004068FFF757FB08B08C
:1048100010BD10B5002488B0059289B292B20693FB
:10482000049207940391029401940094016AA323D3
:1048300022004068FFF742FB08B010BD10B51B0214
:10484000134388B09BB2002403930323C9B200939F
:10485000079406940594049402940191016A20330C
:1048600022004068FFF72AFB08B010BD73B5002690
:1048700004000D0033000A0011210196FFF7B1FF7B
:1048800033002A0010212000FFF7ABFF33002A007D
:1048900004212000FFF7D2FF033601AB04222900D8
:1048A0002000FFF7B6FFC0B200280BD1019A0D4BD4
:1048B00013400D4A934205D06430013E01F048FD9B
:1048C000002EEAD12A00002314212000FFF789FFDF
:1048D0002A00002310212000FFF783FF142001F09D
:1048E00037FD73BDFFFDFFFF03011000F0B59DB064
:1048F0000A93036A05000C910D920893D924002BAA
:104900004CD146680899336830001B689847033CCF
:10491000071E43D0036801340993002B3ED02B00BF
:10492000083303600B930A9B089AC36014AB00938F
:10493000110008236868FFF7E6FB089B041EFB6074
:1049400000D09BE03C2206AB9B181B78D134092B8E
:1049500024D1043A06AB9B181B78373A0A93336884
:104960000C995C6830000D9BA047D424031E28627C
:1049700014D03F2106AA521812786868EA60089A93
:104980001100FFF7EAFB041E0BD0099B296A3B606C
:10499000336830009B689847089B2B6220001DB04D
:1049A000F0BD28226B469B180A9A1B78202A00D952
:1049B0002023099A296A3A600A9ADBB2002A4FD169
:1049C0000B9B0222296A6868FFF762F8041EE5D192
:1049D00029230827029314AE233B079003900190EC
:1049E000009302000696059704979A33296A68682F
:1049F000FFF764FA041ED1D1B37802006B62009015
:104A000001963B00296A6868FFF791FB041EC5D137
:104A10007388020000900196296A6868FFF787FB97
:104A2000041EBBD10EAA3378296A019200900200BD
:104A30006868FFF77CFB041EB0D102007379296A15
:104A40006868FFF7E7FC041EA8D16B6A0134A34233
:104A500010D30023220008212800FFF7EFFEF4E71F
:104A600014AA009268680022FFF74DFB041E00D0D4
:104A700094E7A5E701230024EB628FE7099B3B60E5
:104A80008CE700000822C260F022124B92010282E1
:104A90000122083303600023426182610E4A10B58F
:104AA0004160036243628362C3628360828399428E
:104AB00009D00A001532FF321468002C04D14433A7
:104AC0009B00C918486010BD01330432102BF3D18C
:104AD000F9E7C046A8F0000003040000F8B5140090
:104AE00013785278050012021A43A3780E001B04B3
:104AF0001A43E3781B061343324A93422DD007D85A
:104B0000314A934245D0314A934226D000243EE0B8
:104B10002F4A934202D02F4A9342F7D1002332000A
:104B200014212800FFF75DFE002332001021280029
:104B3000FFF757FE142001F00BFC8022637800245D
:104B400092001B0213402A6A68685107490F32001D
:104B5000FFF744FB204B1C7019E000241E4F3B78EC
:104B6000A34214D12300320011212800FFF739FE9F
:104B70002300320010212800FFF733FE230032000B
:104B800004212800FFF75AFE0123B1343B702000B6
:104B9000F8BD00240A0000231121FFF722FE320095
:104BA000002310212800FFF71CFE0B4B296A1C7004
:104BB000072319401E40C90031436868FFF784FA93
:104BC000E5E7C04601030100000101000101010009
:104BD0000301100003031000100E00200A23F0B59B
:104BE0000022012487B06B441C80019204AA009229
:104BF0000500016A22004068FFF7DEF8002817D19F
:104C000002266B461B7C1E4214D000230422039311
:104C1000210003AB2800FFF7FCFD071E0AD103AA01
:104C200021002800FFF75AFFB1282ED0002801D01C
:104C300007B0F0BD01347600082CE2D1073C6B6A66
:104C40000020A342F4D303AE0390330004222100DA
:104C50002800FFF7DEFD071E15D102220821338848
:104C6000FF31FF320B4093420DD17388013AFF3A76
:104C700013432100320028007380FFF72FFFB12873
:104C800003D00028D4D10134D9E73800D0E7C36A73
:104C900070B50400002B02D10025280070BD01F082
:104CA00021FBA36AC01AF7D42000FFF797FF050085
:104CB00001F018FB6430A062EFE7000010B5024875
:104CC00003F0F9FB10BDC046140E002013B51249C5
:104CD000124801F039FF1249124801F035FF12491C
:104CE000124801F031FF1249124801F02DFF124C19
:104CF0001249200001F028FF1149124801F024FF59
:104D000000230193013300930722053321000E484D
:104D100003F040FB13BDC0460008004250100020C5
:104D2000000C0042541000200010004258100020D7
:104D3000001400425C1000206010002000180042A7
:104D4000001C004264100020140E0020F0B55746ED
:104D50004E46DE464546E0B58FB01D0006000F000A
:104D6000140000F0ADF9CE4B009001919A461B78EB
:104D70005BB2994601333ED022002B00200029006F
:104D800005F0C0FB8346002835D132003B003000DF
:104D9000390005F0B7FB00220390002800D06FE037
:104DA00000233000390003F081FE00282CD00022BF
:104DB00000232000290003F079FE8346002800D15B
:104DC00092E004AB9846012342460493B54B5360EE
:104DD0004346039A1C615D611A629E60DF60424631
:104DE000002300249361D4614B46002B67D000233D
:104DF000AD4C00930194009801990FB03CBC9046D3
:104E00009946A246AB46F0BD0098019900F09AFF82
:104E10008146002800D19AE00098019900220023E1
:104E200003F044FE0028E6D03000390000F08AFF8D
:104E30000028E0D02000290000F084FF0028DAD00C
:104E400004AB9846042342460493964B1461556183
:104E5000536000230024136200239361D4615346FE
:104E60001B789660D7605BB2022B04D0404600F0FE
:104E700073FF002829D105F0C3FC2223036024E03E
:104E800000232000290003F011FE0028B3D004AB5A
:104E90009846012342460493824B41465360434661
:104EA0005A461A6200229E60DF601C615D617E4B83
:104EB0008A61CB61009201934B46022B9BD0404606
:104EC00000F04AFF002800D18AE043461B6A002B0D
:104ED00004D005F095FC43461B6A03604346DC6939
:104EE0009B690093019486E72000290000F02AFFC7
:104EF000002800D17FE7002200232000290003F0D2
:104F0000DBFD002800D176E704AB9846012342463A
:104F10000493644B536043465A469E60DF601A62B6
:104F20001C615D6153461B785BB2002B5DD0002095
:104F300042465E499061D161022B5BD105F060FC75
:104F40002123036043461B6A002BC7D0C1E7300012
:104F5000390000F0F7FE002800D15DE720002900AD
:104F600000F0F0FE002800D156E700980199534662
:104F70001B7802005BB29B460B0005F0C3FA04AB42
:104F80009846002862D1032342460493454B14619E
:104F90005561536010629660D760454B2000290030
:104FA000002204F0F5FC5B4604000D00002B27D125
:104FB000E02241463F4B12068A61CB61300000225D
:104FC0000023390003F078FD00282AD1404600F084
:104FD000C3FE0028B6D105F013FC22230360B1E71D
:104FE00005F00EFC212303606FE7424600230024F6
:104FF0009361D461404600F0AFFE0028A2D19DE746
:10500000002241462C4B30008A61CB6100220023F4
:10501000390003F051FD002835D15B46022BDAD070
:10502000D4E72000290000F09FFE22002B0003F0AF
:105030003DFD002805D1E022204B120641468A6141
:10504000CB6153461B785BB29B46E6E701234246A1
:105050000493144B536043464A469E60DF601A62D5
:105060001C615D615B46002BBFD00023002219004C
:10507000100004F083F843469861D9615B46022B27
:1050800000D15BE7B6E72000290000F06DFE2200AA
:105090002B0003F00BFD0028D3D10022034BCDE7FA
:1050A0005801002068F200000000F03F0000F0FF0F
:1050B0000000E03FFFFFEF470000F07FFFFFEFC77A
:1050C000F0B55746DE464E4645465C006408E0B5FE
:1050D00098461F00230093B083468A461600134368
:1050E0000CD07D4B4D00029181466D089D4212DD32
:1050F0007A4B9C465B4665441D4361D10023784C46
:10510000009301940098019913B03CBC90469946D5
:10511000A246AB46F0BD9D4250D09C42E8DC6E4BAF
:105120009C426BD0002304935346002B69DB002A7A
:1051300010D1694B9C424CD0694B9C4200D1A3E0FA
:105140008023DB05984500D1BCE0664B984501D132
:1051500000F0D6FB5846514600F0F0FD4B4600905B
:105160000191002B07D1002D67D053465C4A9B006C
:105170009B08934261D05346DB0F013B99464A4658
:10518000049B134300D190E0574B9C4200DCBBE0F2
:10519000564B9C4201DC00F010FC554B9D4201DC5B
:1051A00000F004FC4346002B23DD524A524B100012
:1051B000190004F0EDFB00900191A3E7002805D051
:1051C0004E4800F0CBFD009001919BE7AC42F7DC2C
:1051D000A5E75A46414BEB18134300D18EE7444BE9
:1051E0009D4200DC99E3434600960197002B00DBCB
:1051F00088E7002300240093019483E7002A91D0DC
:1052000076E73F4B9C423CDC394B9C428FDD3D496D
:1052100023158C466344142B00DCB2E33421CB1AF3
:105220003100D94008009840904200D07FE7012328
:10523000194001335B1A049379E74346002B07DAE0
:10524000009A019B0020264903F098FF00900191ED
:10525000029B002B00DB55E7204B9C46049B6544DA
:105260001D4301D100F00EFC049B012B00D049E747
:10527000009C019D8021220009066B180092019379
:1052800040E70223049352E75846514643460090B4
:105290000191002B00DB35E75A46534600201049A8
:1052A00003F06CFF009001912CE75A465346584694
:1052B000514604F0DFFD02000B0003F05FFF009099
:1052C00001911FE75A4653465846514604F060FB89
:1052D0000090019116E7C0460000F07F000010C06A
:1052E0000000F03F0000E03F0000E0410000F0431C
:1052F000FFFFEF3F9C7500883CE4377E6CF20000B6
:10530000FFFF3F4301FCFFFFE44B00229D420ADC0C
:10531000009801990022E24B04F03AFB35220D007F
:10532000009001915242DF492B158C466344984608
:105330002D03DD4CDD4B2D0B90442C439D420ADDAB
:10534000DB4B9D4201DC00F001FC01239C46D94B64
:10535000E0449C466444002200230E920F93109276
:10536000119300220025D04B0692079300980199D3
:10537000069A079B21000890099104F07BFD069A8C
:10538000079B0A900B910898099903F0DBFB020038
:105390000B000020C44903F0F1FE0A0001001300D5
:1053A0000C910D9202000A980B9904F0F1FA0A0090
:1053B00001001300029103920022009201938023C6
:1053C00064109B05234380242403A44600206344E7
:1053D000591904000D0002000B000098019904F017
:1053E000D7FA02000B000A980B9904F043FD069AC5
:1053F000079B0A900B912000290004F03BFD02005E
:105400000B000898099904F035FD009A019B04F0FF
:10541000BFFA02000B000A980B9904F02BFD0C9ABE
:105420000D9B04F0B5FA029C039D0890099122009F
:105430002B002000290004F0ABFA04000D009E4A66
:105440009E4B04F0A5FA9E4A9E4B03F07BFB220084
:105450002B0004F09DFA9C4A9C4B03F073FB220046
:105460002B0004F095FA9A4A9A4B03F06BFB22004A
:105470002B0004F08DFA984A984B03F063FB22004E
:105480002B0004F085FA964A964B03F05BFB220052
:10549000069007912B002000290004F079FA020001
:1054A0000B000698079904F073FA009A019B040018
:1054B0000D000298039903F045FB089A099B04F03C
:1054C00067FA22002B0003F03DFB009C019D0A902F
:1054D0000B9122002B002000290004F059FA002231
:1054E000814B04000D0003F02DFB0A9A0B9B03F087
:1054F00029FB00220B0011001A00069107920A00F6
:105500000098019904F044FA00220C900D9106983D
:105510000799754B04F0AEFC22002B0004F0AAFCA6
:1055200002000B000A980B9904F0A4FC029A039B5A
:1055300004F02EFA069A079B04000D0008980999BA
:1055400004F026FA02000B002000290003F0FAFA0A
:1055500004000D0002000B000C980D9903F0F2FA04
:1055600000221000E022614B12060090019104F02D
:105570000FFA0C9A0D9B029003910098019904F088
:1055800079FC02000B002000290004F073FC584A4B
:10559000564B04F0FDF9574A04000D00009801999C
:1055A000554B04F0F5F902000B002000290003F030
:1055B000C9FA109A119B03F0C5FA0690079140466C
:1055C00004F0F2FF069A079B04000D00029803996D
:1055D00003F0B8FA0E9A0F9B03F0B4FA22002B00E6
:1055E00003F0B0FA002022002B000090019104F09B
:1055F00041FC0E9A0F9B04F03DFC029A039B04F0C1
:1056000039FC02000B000698079904F033FC069061
:1056100007914A46049B013B134300D188E10023D4
:10562000214C0293039400223B0030003900140007
:1056300004F020FC009A019B04F0AAF932003B0020
:10564000049005910698079904F0A2F902000B0056
:105650000498059903F076FA3D0006000F000098C3
:10566000019922002B000496059704F091F902009D
:105670000B00300039000092019303F063FA1F4BD6
:1056800004000D008B460200994200DC55E11C4BE2
:10569000CB18034300D0FBE134E0C046FFFF0F000E
:1056A0000000404301FCFFFF0000F03F8E98030024
:1056B00079B60B000000F0FFEF4E454A287ECA3F46
:1056C00065DBC9934A86CD3F01411DA96074D13F76
:1056D0004D268F515555D53FFFAB6FDBB66DDB3F88
:1056E000033333333333E33F0000084009C7EE3F51
:1056F000FD033ADCF5015B14E02F3EBEFFFF8F4057
:10570000000070BF04980599E84AE94B03F01AFAC3
:10571000009A019B06000F002000290004F0AAFB5C
:1057200002000B003000390003F0DAF9AA46002825
:1057300000D0ADE18024DF4A534694466403220042
:105740001B1563441A411300DB495B445A001E00D9
:105750001B038C461B0B23431424520DD74D62446C
:105760001541A21A134199465B46AE430020310011
:10577000002B02DA4B465B42994602000B00009870
:10578000019904F077FB4B461B0500900191020044
:1057900098460B000498059903F0D4F90D000024F5
:1057A0000022C74B2000290004F0F2F8009A019B68
:1057B000069007912000290004F05CFB02000B001A
:1057C0000498059904F056FBBE4ABF4B04F0E0F87C
:1057D000BE4A06000F00BE4B2000290004F0D8F896
:1057E00002000B003000390003F0ACF904000D009A
:1057F00002000B000698079903F0A4F9069A079B8C
:1058000006000F0004F036FB02000B002000290008
:1058100004F030FB3200009001913B003000390071
:1058200004F0B6F804000D00AA4AAB4B04F0B0F83F
:10583000AA4AAB4B04F01EFB22002B0004F0A8F890
:10584000A84AA94B03F07EF922002B0004F0A0F82F
:10585000A64AA74B04F00EFB22002B0004F098F898
:10586000A44AA54B03F06EF922002B0004F090F837
:1058700002000B003000390004F0FCFA04000D00B7
:1058800002000B003000390004F082F880230490FD
:1058900005910022DB052000290004F0EBFA02004C
:1058A0000B000498059903F069FC009A019B040021
:1058B0000D003000390004F06BF8009A019B03F0F2
:1058C00041F902000B002000290004F0D3FA320055
:1058D0003B0004F0CFFA02000B000020874904F0DF
:1058E000C9FA43465B181A15002A00DC3FE119008B
:1058F000029A039B04F04CF800900191FFF702FC20
:105900005346002B01DAFFF725FC5846514600F0BC
:105910003DF900900191FFF7F5FB4346002B00DBBA
:1059200067E480231B06FB1800960193FFF7EAFB50
:105930000023734C0293039475E64B005B089A4670
:10594000704B9A4500DCF9E06F4B5B441A430AD177
:10595000009A019B04F08EFA049A059B03F0CAF8A2
:10596000002800D1E6E602980399684A684B04F0E3
:105970000FF8664A664B04F00BF800900191FFF7B0
:10598000C1FB002A01D0FFF7E5FB1432D31A220035
:105990001A4111009940A14201D0FFF7CDFB01232C
:1059A0001A40DB189B1A0493FFF7C6FB4346002BF3
:1059B00001DBFFF71EFCFFF7F8FB564B9D42F5DDC0
:1059C0004E4B9D4201DDFFF7EDFB0098019900224F
:1059D0004A4B04F04FFAC0224F4BD20504000D0091
:1059E00003F0D6FF4D4A029003914D4B2000290051
:1059F00003F0CEFF0022009001914A4B20002900C5
:105A000003F0C6FF02000B004748484904F032FA91
:105A100022002B0003F0BCFF02000B0000204449D1
:105A200004F028FA2200069007912B00200029009C
:105A300003F0AEFF02000B000698079903F0A8FFE1
:105A40001A4A354B03F0A4FF02000B00009801999D
:105A500004F010FA02000B0004000D0002980399F4
:105A600003F070F8029A039B00200090019104F06B
:105A700001FA02000B002000290004F0FBF9069057
:105A80000791C6E50098019902000B00FFF711FC91
:105A9000284A294B0298039903F07AFF254A264B9E
:105AA00003F076FF00900191FFF72CFBFE822B653F
:105AB0004715973C02FCFFFF01FCFFFFFFFF0F00B3
:105AC000432EE63FEF39FAFE422EE63F396CA80C32
:105AD000615C20BED0A4BE726937663EF16BD2C550
:105AE00041BDBB3E2CDE25AF6A56113F93BDBE16AD
:105AF0006CC1663F3E5555555555C53F0000F03FBA
:105B00000000F0BFFFCB904000346F3F59F3F8C264
:105B10001F6EA501FEFFEF3F4715F73F44DF5DF81D
:105B20000BAE543E0000D03F555555555555D53F09
:105B30000000E03F9C7500883CE4377E00220E4B5D
:105B4000904691469A4500DC29E6F3E580220B4B0E
:105B5000D2050E920F930A4A0A4B80251092119398
:105B60000022094BED0206920793FFF7FFFB4A461E
:105B700000F08AF9BCE6C0460000E03F03B8E23F0F
:105B800006D0CF43EBFD4C3E0000F83FF8B547464A
:105B9000CE46674B80B50A000F001900050039405A
:105BA000994200D19BE004000100002F69DD3F1500
:105BB00000D1B4E05F4B12039C468023120B5B03C1
:105BC00013435B00CA0F67449B184A00F80703D5CC
:105BD000D20F5B009B188A0079108C460021802030
:105BE0001624894680030D189D4202DC29185B1B90
:105BF0008144D50F5B00013C5B1952004008002C2A
:105C0000F1D100208046802020250027000609E0F1
:105C10008B425CD0D40F5B00013DE318520040087A
:105C2000002D16D0C4198B42F2DD27180E00002C6F
:105C300049DB5B1AA242894149425B1A121BD40F0D
:105C40005B00013D80443100E31852004008002D04
:105C5000E8D113434ED143465B0837494A4688464C
:105C6000494652104244C90702D5802109060B4318
:105C700061460F05BD18180029000CBC90469946D6
:105C8000F8BD7B005B0803433900002BF5D0002FE3
:105C90003CD1E30A153A6405002BFAD0802040037A
:105CA00003423FD1002700E00F005B00791C034254
:105CB000FAD0250020208D40401A2900D71B220051
:105CC000C2401A4376E7FE43F60F8E19B1E79442BD
:105CD000A0D82718002CF6DB1E000023AEE7020038
:105CE0003B002800390003F053FE2A003B0002F07D
:105CF00029FFC2E74346013303D0434601335B0823
:105D0000ABE7012398460023C144A6E73B0002000D
:105D100004F0B0F802000B0003F030FAADE7130016
:105D20000022BBE70127210020207F42C6E7C046B2
:105D30000000F07F01FCFFFF0000E03F49004B083E
:105D400019007047034B48009C4640086044C00F50
:105D50007047C046000010800020704700200149B5
:105D60007047C0460000F87FF0B5C64600B5CB0FBF
:105D70009846404A4B005B0D9A1882B00D00040013
:105D8000132A2FDC002A49DB3B4F17413E000E400F
:105D9000064323D07F08390029400C430AD03749F5
:105DA000BD438C4663445C425C418023DB0213416B
:105DB000E4071D434146CE0031492B008E192200D5
:105DC000346875682000290002F0BCFE0090019143
:105DD0000098019922002B0004F04CF802B004BC9A
:105DE0009046F0BD332A08DD8023DB009A42F5D1CE
:105DF00002000B0002F0A6FEF0E7224A94460122C0
:105E000063445242DA400242E8D052080242D1D002
:105E100094438022D2051A411443CBE74B005B0820
:105E20000343DBD00B031B0B1C436342234380243F
:105E30004D0C24031B0B23406D042B4319004346D8
:105E4000DA000F4B9B181C685D6802000B002000F5
:105E5000290002F077FE009001910098019922003C
:105E60002B0004F007F842464B005B08D60733438B
:105E70001900B3E701FCFFFFFFFF0F00EEFBFFFF80
:105E800070F20000EDFBFFFF4B0070B55B0D1400DE
:105E90000A00002B1AD14B005B08034315D0234B9B
:105EA000002203F075FD224B9C422DDB0A004B00C3
:105EB0005B0D363B1F4DE318AB422ADC002B0DDD9A
:105EC0001D4C1B0522401A43110070BD1B4DAB42F7
:105ED000F0D102000B0002F035FEF6E71D0035356B
:105EE00019DA174B02009C4209DD0B0015481649D0
:105EF00000F032F8134A144B03F04AFDE5E70B00BB
:105F00001248134900F028F8104A114B03F040FDE5
:105F1000DBE70200E9E7084C363322401B05134358
:105F2000190000220B4B03F033FDCEE70000504375
:105F3000B03CFFFFFE070000FFFF0F80FF070000DF
:105F400050C300009C7500883CE4377E59F3F8C2CA
:105F50001F6EA5010000903C30B54A00DB0FDB0747
:105F600052081A43110030BD194B1A78D2092ED0AD
:105F700004219A8B92B20A4204D099830222154BD3
:105F80001A70704708210A4203D09983114B0122ED
:105F9000F6E740210A42F8D120210A42F5D110212A
:105FA0000A42EAD180210A42EFD1802180204900B3
:105FB00080000A4204D09983998298831883DDE790
:105FC0000242DED09883988299831983DEE7FEE748
:105FD000005000416810002070B5424800F07CF984
:105FE0002023414A0F20D1690B43D361062100F0E1
:105FF0009DFC0621102000F099FC3C4B3C4A5A8045
:106000005A7852B2002AFBDB01233A4C2278134320
:106010002370A378DB07FCD48222237813432370F8
:106020002378023A13432370A378022BFCD01F215C
:10603000314A13685B0B0B408B4200D10523208D46
:106040002E4D0B409B0128400343238513689B0C76
:106050000B401F2B00D1023B1F20218D03408143A9
:106060000B43072123851368DB0D0B408B4200D1C6
:106070000323228D0B4022491B030A40134323852F
:1060800004232278802513430C221E48237060626B
:1060900023896D00934323812A00002104F030FC02
:1060A0000022194B01210E201A7000F0C1FB0121C2
:1060B0000E2000F0EDFB1023258325832383F1338D
:1060C000FF3323838023C1212289DB0013430F4A3E
:1060D0002381890053581B021B0A535080231360ED
:1060E00070BDC046695F000000040040000C004025
:1060F0000640000000500041246080003FF8FFFF90
:10610000FF8FFFFF6C1600206810002000E100E008
:10611000014B18787047C046681000200D4B0021D5
:106120001B7B5B0700D4033138220B4809074378F7
:1061300093431A0008231343084A4370938908487D
:10614000034093815368074803400B43002053608A
:106150007047C04600500041FF5000416C160020BF
:10616000FFF0FFFFFFFFFF8F43010348C0184368A4
:106170009B0B9B03436070476C160020074B40014C
:10618000C2501818436889048A0C990B890311437B
:1061900041604368024A1340436070476C16002018
:1061A000FF3F00F00300F0B503260F00124D083347
:1061B0005A01545D3740B4433C435455002907D13C
:1061C0000E4A40018018102202723032827105E0BE
:1061D000012909D10849521840211171064A5B0171
:1061E0009B1810221A71F0BD044A40018018012248
:1061F00002723F32EAE7C04600500041FF500041C2
:10620000012911D0002903D0022917D0002109E06B
:10621000114A43019B181022187A104202D01A72B8
:106220009A710121080070470B4A43019B181A7AA2
:106230000A400FD0102219729A71F3E70122064B1F
:106240004001C318187A00211042EBD010311A72A5
:106250009971E6E71100E5E7FF500041FEE7000015
:10626000034B10B51B68002B00D0984710BDC046EB
:106270006C10002070B50F490F4CA14204D100F002
:106280008DF802F0F9F9FEE70C4D00238D42F6D0AF
:10629000CA18E818A24205D3094B8242EFD0094937
:1062A000002204E0006804331060F1E704C38B426D
:1062B000FCD3E4E700000020D803002058F70000DA
:1062C000D80300207017002010B500F064F80028F3
:1062D00001D100F055F810BD014B18607047C04661
:1062E0006C100020014B18687047C04670100020E9
:1062F000F7B51348012284461249134C8E6863682F
:1063000005689B0E1340019288686268019F920E97
:106310003A4067463F6893420ED1BD420CD1864257
:106320000AD35B19FA254868AD00861B07486B4302
:106330007043000DC018FEBD3D0013000600E3E7EA
:106340007010002010E000E000ED00E05555000066
:1063500070B5041E10D0FFF7CBFF050000F01AF84F
:10636000FFF7C6FF054B401B9842F7D9FA23013CC3
:106370009B00ED18002CF3D170BDC046E703000070
:1063800010B5034A13680133136000F09FFB10BD82
:106390007010002070470020704700001E2270B56A
:1063A00046484749436893431C3A134343600823D4
:1063B0008C6923438B61434C434B9C829C8A1443DE
:1063C0009C82DC681442FCD00124404A1470157889
:1063D000254203D055786DB2002DF8DB012494607E
:1063E000547864B2002CFBDB394C5460547864B2AE
:1063F000002CFBDB8224E4015480547864B2002C2E
:10640000FBDB02249C840E34DD682542FCD0314C39
:10641000DC621024DD682542FCD09D8C2E4C2C4380
:106420009C841024DD682542FCD002249D8C8026AB
:106430002C439C844024DD683542FCD0DD68254235
:10644000F9D01024DD682542FCD0002494605478F3
:1064500064B2002CFBDB214C5460547864B2002CF5
:10646000FBDB1C6A1E4D2C4080251C621C6AAC4361
:106470001C62032393601B4B536053785BB2002B69
:10648000FBDB0023FF240B72174A4B728B72CB721B
:10649000164B1A60164B174A1B6811689A065B0167
:1064A000C90E2340520F12020B431343124A1385A5
:1064B000802342681343436070BDC04600400041E2
:1064C000000400400C06000000080040000C0040E2
:1064D00001050100B905FF7D040A00000007030063
:1064E000FFFCFFFF03060100006CDC025C010020E2
:1064F000246080002060800000400042FA212D4B83
:1065000010B51868890002F04BF92B4B01389842FE
:106510004FD82A492A4A4860C020136A00061B0245
:106520001B0A0343136200238B6007330B60802137
:10653000136A09061B021B0A0B431362FC22214B40
:10654000196A0A431A62FF22196A12020A431A627E
:10655000A022196AD2020A431A621B4B1C005A7805
:1065600052B2002AFBDB194A5A80194B1A00597E95
:10657000C9090129FBD0C821890099800521D9705A
:10658000537EDB09012BFBD0C02300205B0113618C
:10659000907000F029F863785BB2002BFBDB0D4BA9
:1065A0000D4A6380D379DB09012BFBD04123537063
:1065B00010BDFEE75C010020FFFFFF0010E000E0DF
:1065C00000ED00E000040040000C00401E40000010
:1065D000004000422140000000480042014B18608A
:1065E0007047C046600100201F4900B50B004A7E7D
:1065F000D209012AFBD001380A282FD802F0C6F8A8
:106600001B2E2E2E2E2E062E2E2411001A6917490F
:106610000A400F211A615A788A43110001220A4365
:1066200010E01A6911490A400F211A615A788A4309
:1066300011000322F3E71A690C490A400F211A617D
:106640005A788A435A7000BD1A6908490A400F21D6
:106650001A615A788A4311000222E0E7F022196990
:1066600012050A43F3E7C04600400042FFFFFFF077
:1066700018234343F0B5654A87B09B18DE680400D1
:106680000091B20719D5002817D1614A1300D179BA
:10669000C9090129FBD000998D05AD0D1581DA7965
:1066A000D209012AFBD0022219780A431A70DA793A
:1066B000D209012AFBD007B0F0BD082732003A40CA
:1066C0000192544D00D18FE02968102200981227C2
:1066D000DF5F00F021F904210500F30602D4B306C0
:1066E000E9D50521200000F021F93E124A4BB20005
:1066F000D4584A4BFFB29A5D002A54D101329A55C0
:1067000047490F3202A804F0DFF802AA73009B5A2F
:106710008022D2011A43434B5A805A78D209012A67
:10672000FBD0022296421BD9238893432380E37B2C
:10673000DB09FCD12288403313432380E37BDB0950
:10674000FCD10C37ADB27F003D53E37BDB09FCD1BC
:106750002288023313432380E37BDB09FCD1AAE7C1
:1067600023689343304A23601300A1681142FCD18F
:106770000222E16B0A43E263A2681A42FCD110379D
:10678000BF00E7197D60A2681A42FCD1274A226443
:10679000A2681A42FCD1022221680A432260A26840
:1067A0001A42FCD187E7022E07D90C37ADB27F0021
:1067B0003D53E37BDB09FCD17DE702236279134380
:1067C0006371194B1A00A1681942FCD11C37BF0034
:1067D0003D51A3681342FCD1022321790B4323715D
:1067E000A3681342FCD166E70121200000F020F8E5
:1067F00029683A00009800F08FF801997F2800D9A5
:106800000121200000F044F855E7C046D0F0000018
:106810000048004260010020400100207410002068
:1068200080F20000000C0040FF0F7F00FFFF00001F
:10683000182310B508244343134AD01804570134D1
:1068400012D001249A5643689C4003290CD80800B2
:106850000E49D2015218D318403301F097FF0210AD
:10686000060B02211970546010BD06211970546086
:106870009461F9E70621197054605461F4E702212C
:1068800019709460F0E7C046D0F000000044004169
:106890001823F0B508245843114A13181C57013423
:1068A0001BD0012635005F688356BD400D4ADB01D1
:1068B0009A18906805420BD10C00601E8441D219D1
:1068C0004032107834400336A400B04320431070A7
:1068D000044A9B18002901D15D61F0BD9D61FCE770
:1068E000D0F0000000440041182310B508244343B1
:1068F00007490020CA181457013408D05B560549CF
:10690000DB015B18186A5368D8400123184010BD9A
:10691000D0F0000000440041914202D002D98A1A0E
:10692000D0407047521A9040FBE7000018224243C3
:1069300070B52D4E0300B218127A52B21400013213
:106940000ED0481C00240C280AD801F01FFF071F96
:106950001F1F1F1F1F1F1F0B0B0B0B000124644267
:10696000200070BD092905D100211800FFF760FF44
:106970000024F5E70A2901D10839F6E700240B299C
:10698000EED10A391800FFF753FFE9E7182201207A
:106990005343F218F3565568144ADB016C089B18F0
:1069A000C9B228401C1900280ED00F20303422789C
:1069B0000901024011434122C9B25B1921704033E1
:1069C00019780A431A70D3E722000F263032147860
:1069D0005B19B443214311704122403319780400FC
:1069E0000A431A70BCE7C046D0F0000000440041E2
:1069F000F7B507000E000024012501920093019BCA
:106A0000002B14D12900A140009B380019404B1ED7
:106A10009941FFF73DFF29003000FFF739FF0134AE
:106A200000213000FFF734FF082CE8D1F7BD072321
:106A300029001B1B9940E7E7F7B506000D000C0085
:106A40008B180193019B671B9C4207D03368217808
:106A50001B683000984701340028F3D13800FEBD90
:106A600070B5040008000D0004F0CAFF236802009E
:106A700029005B682000984770BD10B50B1E02D03E
:106A8000FFF7EEFF0300180010BD000010B502492B
:106A9000FFF7E6FF10BDC04690F2000070B504009D
:106AA000FFF7EBFF05002000FFF7F0FF401970BD76
:106AB000014B18607047C046640100200122024B60
:106AC00052421A607047C04664010020164A10B551
:106AD0001368591C26D0013B1360002B22D172B6DB
:106AE000124B134A0433934213D9124A0121100066
:106AF000147D0C42FCD02021148BFF319B085B00DD
:106B000021431183D3610C4B13800123027D1A4270
:106B1000FCD0BFF34F8F094B094ADA60BFF34F8FA8
:106B2000C046FDE710BDC046640100200020000003
:106B3000030200000040004102A5FFFF00ED00E05D
:106B40000400FA0510007047016070479446F0B5E4
:106B50009E1E721E96416246056892072F68360691
:106B60003A4332432A60072505AC24780068A40123
:106B70002940214342680024022B00D05C031143CA
:106B800021434160F0BD30B5C0250368AD031C68EA
:106B900012052A402243C0240904A40221401143C3
:106BA000196003685A6814435C6030BD01230268B1
:106BB00011680B43136003681A68D207FCD4DA69C2
:106BC000D207F9D470470223026811680B4313609F
:106BD0000268D3699B07FCD4704703681A7ED2070A
:106BE00002D41A7E9207FCD57047002203685A83AC
:106BF00070470368187E4007C00F70470368187E0F
:106C0000C0097047802302685B42117E0B431376F4
:106C100070470368588B8007C00F704702230268D3
:106C2000518B0B43538370470368187EC007C00F16
:106C300070470368188DC0B2704703681A7ED20788
:106C4000FCD589B2012019857047012203689A7525
:106C50007047012203681A757047012302681168A2
:106C60000B43136003681A68D207FCD4DA69D207B1
:106C7000F9D470470223026811680B43136002685D
:106C8000D3699B07FCD470470368DA699207FCD488
:106C900002211A688A431A60704703681868400026
:106CA000C00F70470268936A5B0A5B0219439162E6
:106CB00003681A7E5207FCD5986AC0B2704700007C
:106CC00010B54900044801F06BFD80B2002801D0E6
:106CD000013880B2C0B210BD006CDC0270B54B0848
:106CE0000C00012105680B400C402E6824075B074F
:106CF000234333432B6011000468FFF7E1FF207347
:106D000070BD00000368104A934213D00F4A9342AB
:106D100012D00F4A934211D00E4A934210D00E4A1D
:106D200093420FD001200D4A4042934201D10630D8
:106D300040B270470020FBE70120F9E70220F7E7A7
:106D40000320F5E70420F3E700080042000C0042AE
:106D5000001000420014004200180042001C0042D3
:106D6000F8B5FFF7CFFF00282CDBC3001C48FF223B
:106D7000C01805230479C35603201840C000824080
:106D8000C021D2438140002B1DDB1F2501201D4067
:106D9000C026A840134D7600A851C0269B089B0032
:106DA0005B19B6009F593A401143995128603F231F
:106DB00023408024E4011C430B4B5C805A7852B280
:106DC000002AFBDBF8BD0F200340083B07489B0867
:106DD0009B001B18D86902401143D961E7E7C04600
:106DE00094F2000000E100E0000C004000ED00E043
:106DF000F8B504000F0016001D00FFF7B1FF2000DA
:106E0000FFF7D4FE1C21BB000B4071072268090C60
:106E10000B431360842322689375012F1AD110212C
:106E2000012E00D008390C4B69431868C00001F0EE
:106E3000B7FC0722216802408B895203DB04DB0C7C
:106E400013438B81226803049089DB0C400B4003C1
:106E500018439081F8BDC0465C010020F7B50400DE
:106E6000019308AB0D0016001F78FFF7F6FE200017
:106E7000FFF776FFC0223605920332400C261643F8
:106E8000C0222D0492021540072223683543BF0714
:106E90002F431F60019B216813401A0080239B022F
:106EA00013434B602268D3695B07FCD4F7BD3F20D6
:106EB000704713B56B460268D971073354681900DF
:106EC0000122A04716BD000010B50221006900F0A4
:106ED00089FD034B1B6801335A1E9341181810BDDE
:106EE000B801002010B50321006900F091FD10BD2C
:106EF00010B50321006900F059FD10BD10B5054C17
:106F000023685A1C04D103685B699847030020601A
:106F1000180010BDB8010020074B0200186810B51A
:106F2000411C03D0012252421A6010BD0221106997
:106F300000F058FEF9E7C046B801002010B5130074
:106F4000094A0400D079C0B2002805D1627E002A27
:106F500002D00123636006E00A002069032100F0EB
:106F60004FFE0028F5D010BD6C01002010B503784D
:106F70004222023303700249024800F0EDFE10BDC8
:106F800074010020A410002010B50178020043789D
:106F90000020A12908D1212B05D107221649174825
:106FA00000F0DAFE012010BD2129FCD1202B13D1E5
:106FB00007221149114800F06FFD96220E4BD200B6
:106FC000196891420ED10124D87904400AD1FA20DF
:106FD000FFF76EFD0020E6E7222B06D19278064BE4
:106FE000DA71EAE7FFF76AFDF4E7232BDBD1528879
:106FF000034B1A60D7E7C0466C010020A4100020A4
:1070000068010020FA220021054B92009A60054A8F
:10701000596008321A60044A19761A617047C046EE
:107020007C100020C4F20000A410002070B50E00F7
:1070300000254468002C0BD0236831005B682000D9
:107040009847002802DB2D18E468F3E701256D421C
:10705000280070BD70B50D004468002C08D023686E
:1070600029009B6820009847002802D1E468F4E7D3
:10707000200070BD70B50D004468002C08D0236856
:1070800029001B6820009847002802D1E468F4E733
:10709000200070BD70B50D004468002C08D0236836
:1070A0002900DB6820009847002802D1E468F4E753
:1070B000200070BDF0B58C79457803002A190020B6
:1070C000072A1FDC5A68824216D159601A78C8799B
:1070D0000A7112184D711A7000220B4DD0B2844201
:1070E0000FD98F6858789600F7598600013077518C
:1070F00001325870F2E70200D0680028FBD1D1605D
:10710000E4E70120F0BDC046BC0100200121054A92
:1071100010B5136804480B4003D1044C436004804D
:10712000116010BD981000209C1000200204000087
:107130007047704770B50F26CB1D013902003240F1
:10714000D5B22C0000093034092A00DD07341C7048
:10715000013B8B42F2D170BDA02110B50400490063
:1071600001F010FB200010BDF8B5032908D1304B09
:107170008000C058002802D003689B689847F8BD7B
:10718000822919D1C3B22B4D5A01AA1891692A4CF0
:1071900080010C40C02189052143916127490833B2
:1071A00040187021506128685B011A5C8A43110005
:1071B00030220A431A54E2E70029E0D1C026C1B2C6
:1071C0001C4C4B01E3189A681B4DB6052A4032430C
:1071D0009A601B4A800182185A600A0007272468B7
:1071E00008325201115DB9430F0001213943115595
:1071F0009F6912493D4040182E439E61586170209E
:10720000115D8143080010210143115599680D4813
:10721000A218084080214903014399609968890BAD
:1072200089039960402311790B431371A7E7C04686
:10723000A81000205C150020FFFFFF8FD010002059
:1072400090120020FF3F00F0EFF310830360012352
:10725000436072B670470368002B02D162B6BFF379
:107260006F8F7047F7B50500FC35EB690600002B02
:1072700018D196277F00C45D6846FFF7E5FF019BA4
:10728000E4B2013B02D3F45DE4B2FAE7684601934D
:10729000FFF7E1FF002C01D10020FEBDE86AAB6AD8
:1072A000C01AFAE76846FFF7CFFF9E220024019B31
:1072B0005200013B02D3B45CE4B2FAE768460193A2
:1072C000FFF7C9FF002CE7D0E86BAB6BE8E70000E5
:1072D00030B54468FC3043698069DBB25A01A218BA
:1072E0009168094D8004294000090143916091682B
:1072F0000833890B8903916022685B01D31840220F
:1073000019790A431A7130BDFF3F00F0F7B5050047
:10731000FF21FC356A6943680A401B680832520144
:107320009A18D3790400DB0754D50126D6716B690E
:1073300062680B405B01D318286A9A689204920C29
:10734000002822D1EA62EA6A002A40D06A6B2E62E3
:1073500068465A60FFF778FF9E273E21019B7F0019
:10736000013BFF315A1C2ED096225200A654E25DFA
:10737000581ED2B2002A05D0665468460193FFF722
:107380006AFFF7BD62540300ECE7EA63EA6B002A88
:107390001DD000222A626A6A68465A60FFF754FFCD
:1073A00096273E21019B7F00013BFF315A1C0AD0EA
:1073B0009E225200A654E25D581ED2B2002ADBD1B2
:1073C00062540300F2E768460193FFF744FF200090
:1073D000FFF77EFF63681A686B69DBB208335B01F5
:1073E000D3187F22DA71CCE7F7B5070068463C0076
:1073F000FFF72AFF0026FF22019BFC34013B0DD33F
:10740000E0682169884204DBE6682069961B36182B
:10741000F4E72669E168761A013EEFE768460193D2
:10742000FFF719FFE3696846002B52D1FFF70CFF05
:107430009621019B4900013B5A1C0CD07D5C5A1ED1
:10744000EDB2002D05D168460193FFF704FF280037
:10745000FEBD1300F0E7684601930025FFF7FBFE31
:10746000FF21A36AB54214D0E26A9A4211D95A1C8C
:10747000A262626AD3181878E36822690133C0B245
:107480000B40934203D0E268BA181072E3600135F2
:10749000E7E7E26A9A42DAD10023A3620133E361AB
:1074A00068469624FFF7D0FE64003E220021019B2F
:1074B000FF32013B581CC6D03955B85C5E1E00280F
:1074C00005D0B95438000193FFF702FFEDE7330010
:1074D000F0E7FFF7B9FE9E21019B4900013B5A1CD2
:1074E00006D07D5C5A1EEDB2002DACD01300F6E73D
:1074F000684601930025FFF7AEFEFF21A36BB5425E
:1075000002D0E26B9A421DD8E26B9A429FD10023CF
:107510006846A363E3619E24FFF796FE64003E2263
:107520000021019BFF32013B581C00D18BE73955EC
:10753000B85C5E1E002817D0B95438000193FFF7DD
:10754000C7FEECE75A1CA263626BD3181878E36895
:1075500022690133C0B20B40934203D0E268BA18EB
:107560001072E3600135C9E73300DDE710B50400B0
:10757000FFF73AFF2300FC331969DA68914203D020
:107580001B69E418207A10BD01204042FBE710B5CA
:107590000400FC34FFF728FFE0682369C01A01D516
:1075A0000130FF3010BDF0B585B0019200910500AB
:1075B000FFF71AFF02A8FFF747FE01200024FF266D
:1075C000039B40425A1E531C1FD02B00FC330199D1
:1075D0008C4218D2D9681F69C91B01D50131FF310E
:1075E000002910D01969DF688C460100BC4506D01F
:1075F00019691F69691801373740097A1F61009FAF
:1076000039550134E3E7013ADDE702A80392FFF7B9
:1076100022FE200005B0F0BD37B56B46DC1D00230F
:107620000D0020002370FFF7A1FC2B6818182860BC
:10763000FFF76CFD2100FFF7F9FC2B681818286094
:1076400020783EBD02220B0010B593430C00012BA5
:107650000BD10D4B08341B6864011C198023217960
:107660005B420B432371E27110BDFFF74FFD210018
:10767000FFF710FD0028F7D0034B08341B686401A6
:107680001C197F23E371EFE75C15002070B500241F
:10769000374B012105000B201C70FFF7C9F80121B1
:1076A0000B20FFF7F5F8334B01210C201C70FFF77E
:1076B000BFF801210C20FFF7EBF820232E4A0F2002
:1076C000D1690B43D36101222C490B7813430B7012
:1076D0002B4B19788143197006211C7821431970AE
:1076E00028490C7822430A701A7802401A706022E6
:1076F00019780A431A70244B244A5A805A78D209BE
:10770000FCD12348FEF7E8FD224C7F26200000F044
:10771000F1FF200001F006F80C2108232068C27850
:107720008A4313430322C3702068C3789343013A0A
:107730001343C37020680378334003700423206828
:10774000067833430370206803898B430381C1208B
:10775000114980000B581B021B0A0B5080230B6041
:10776000236819780A431A7001232B7070BDC04634
:10777000C5100020C41000200004004058440041FF
:107780003C44004159440041000C004006400000C8
:10779000C98100005C15002000E100E000780028AD
:1077A00010D00121084B1B681A898A431A810822CC
:1077B000198B0A431A830422198B0A431A83002265
:1077C000024B1A607047C0465C150020541500201B
:1077D00010B50F4A93699B0B9B03936113680222B8
:1077E000FF331A729879823A02439A711A7A920791
:1077F000FCD57F24074A2140937A0800A34319004F
:10780000802301439172917A5B420B43937210BDC6
:107810005C1500200050004110B50B790C00002BC6
:107820000CD10800FFF7B0FB002801D0012010BDEB
:10783000094A93699B0B9B039361F7E7FFF766FC8B
:107840002100FFF717FC0028F0D1034A93699B0B36
:107850009B039361EBE7C0465C150020F8B50D0073
:10786000832A19D1CBB2434C5A01A21891694248DC
:10787000AD010840C0218905014391613F4920685D
:107880006D187021083355615B011A5C8A43110041
:1078900040220A431A54F8BD022A65D1384B8A00A7
:1078A000D058002802D003689B699847A020400068
:1078B00000F0FAFE80270600324B7F0003602D4B5C
:1078C000002143603A00083003F01AF83400962291
:1078D0000023FC345200E360A36223616561E3612D
:1078E000A7612362E362B3541032A363E363B3542A
:1078F0003E223800FF32B35402F0C0FF606238000D
:1079000002F0BCFF2B006063FF201A4903405A01BC
:107910008A189168184F08330F40C02189053943F0
:1079200007279160134A5B011168AD005A5CBA43A6
:10793000170003223A435A546169736801404901B0
:107940005918636A4B60736862691B680240520190
:107950009B1801221B18997A30000A439A72FFF78C
:10796000B7FC074BEE5096E711002800FFF7FCFB31
:1079700091E7C0465C150020FFFFFF8FD01000206C
:10798000A8100020F4F2000070B505000124064B99
:10799000A200D258002A06D0210028000134FFF7A7
:1079A0005DFF0A2CF3D170BDBC0100200B4BCAB2A5
:1079B0000B488901C9185301C318596199690832E4
:1079C000890B89039961036852019A180223D371C4
:1079D0005179823B0B4353717047C046D010002051
:1079E0005C150020084B8A00D05810B5002803D041
:1079F0000368DB68984710BDC9B2044B49015918A8
:107A000088688004800CF6E7A81000205C15002030
:107A100010B50C00FFF7E6FF00280CD0064BE4B2CF
:107A20001B68083464011C19802362795B4213438C
:107A300063710223E37110BD5C15002070B5CBB2F9
:107A4000124A13485C018901891802195160916832
:107A5000104D08330D408021890229434025916053
:107A60009168890B8903916001685A018A18167917
:107A70003543157195796D06FCD55B01C918CB7935
:107A8000DB07FCD500198068C0B270BD90120020E1
:107A90005C150020FF3F00F070B5140040220B4B36
:107AA0000D001B68FF3359790A435A710021FFF713
:107AB000C5FFA04200D9200000230549A34203D0FE
:107AC000CA5CEA540133F9E770BDC0465C1500207A
:107AD0009012002010B5C9B20B48490142189368B2
