:102000000080002011580000F9570000F957000027
:1020100000000000000000000000000000000000C0
:10202000000000000000000000000000F957000060
:102030000000000000000000F95700006558000093
:10204000F9570000F9570000F9570000F957000050
:10205000F9570000F957000021370000FD57000034
:10206000F9570000F9570000F9570000F957000030
:10207000F957000075540000F9570000F9570000A7
:10208000F9570000F9570000F9570000F957000010
:1020900000000000F9570000F9570000F957000050
:1020A000F9570000F9570000F9570000F9570000F0
:1020B0000000000010B5064C2378002B07D1054B1B
:1020C000002B02D0044800E000BF0123237010BDA4
:1020D000E80300200000000044ED0000044B10B5B0
:1020E000002B03D00349044800E000BF10BDC046E8
:1020F00000000000EC03002044ED0000F0B568266D
:102100001500002487B0564302900391671C3F4B93
:10211000F9008919C91808684968029A039B05F0F3
:10212000ADFF002801D0E4B202E03C000C2FEDD15D
:1021300005273C2667436E43354AF3195B00985ADE
:1021400007F03AFD0D235D43304A2B19DB000537BC
:10215000D3181A685B68F619009201932C4B76002D
:1021600004900591F05A07F027FD049A059B07F0AB
:102170004FF901342D19254BED005D190600009A29
:10218000019B0F002868696807F042F902000B0004
:102190003000390006F0C0FA009A019B04000D00DF
:1021A0000298039907F034F902000B00200029007F
:1021B00006F0BCFE049A059B05F092FF0022002366
:1021C00004000D0005F064FF0022124B002818D017
:1021D0002000290005F084FF07F07EFC07F0B2FC28
:1021E0000022002304000D0005F034FF002801D078
:1021F000002400252000290005F054FF80B207B01C
:10220000F0BD2000290007F003F9E5E700000020F9
:10221000040400200000E03FF7B500252D4B01939A
:102220000024022D2DD0200007F08CFC00222A4B28
:1022300006F07CFE294A2A4B06F06EFA00220023A3
:1022400006000F0005F024FF0022264B002813D0C3
:102250003000390005F044FF07F03EFC019A6300AE
:1022600080B20134D0523C2CDDD1019B0135783352
:102270000193032DD4D1F7BD3000390007F0C8F821
:10228000EAE7200007F05EFC0022174B06F04EFE46
:10229000124A134B06F040FA0022002306000F00FA
:1022A00005F0F6FE00220F4B00280ED0300039005A
:1022B00005F016FF07F010FC6300064A80B2F03309
:1022C0000134D0523C2CDCD1CFE73000390007F08C
:1022D0009FF8EFE704040020007CA1405C8FC2F56A
:1022E000289C4D400000E03F00BEA6400020002199
:1022F00070B50B4C0B4D2060616000200A49A06056
:10230000E160F134FF3428686968084A084B06F038
:102310000DFE083528606960A542F4D170BDC04645
:1023200078050020800500200000B03F6379D99235
:102330008FF3F03FF8B5082005F084FC0125040078
:102340000026042205700021023007F0A1FD134B86
:102350001348A380A671E67101F0DCF8114F290043
:1023600020783C6003F032FD2900207803F05EFD08
:1023700080223B68520159889D7111435980998888
:10238000DD710A439A802900300003F01FFD0A2006
:1023900003F0F2FBFFF7AAFFF8BDC0460080FFFF85
:1023A000F80A00207405002007B5064B064A009382
:1023B0000023190005F00EFC0100002003F026FCAC
:1023C00007BDC046FF030000FF0F000010B504006A
:1023D0005D20814204D8081C212900D22120C0B2EE
:1023E000213807F0AFFB044B002206F095F92200DC
:1023F000FFF784FE10BDC04600002840482310B5FA
:102400000200994204D80B1C092900D20923DBB22F
:102410000449093BDB00CB1818685968FFF76EFECA
:1024200010BDC0467805002073B500266B46040039
:10243000144D5E711E711449019A280001F092F842
:10244000A379B3420BD02078310003F0EFFC618810
:10245000280001F0BCF82078012103F0E7FCE379C3
:10246000002B0BD02078002103F0E0FCA18828008D
:1024700001F0ADF82078012103F0D8FC280001F02C
:102480008DF873BDF80A0020808D5B000230520089
:102490008218138810B5054C1B0B1B03081CA142A6
:1024A00000D9201C0343138010BDC046FF0F00005D
:1024B00010B5064B064C186081B200222068FFF769
:1024C000E5FF2068FFF7B0FF10BDC0466C05002097
:1024D0007405002010B5064B064C186081B201222D
:1024E0002068FFF7D3FF2068FFF79EFF10BDC046AE
:1024F000700500207405002070B504000D0086B042
:102500000B0016000F49020001A808F021FD01A9E7
:102510000D4803F091FD29002000002E07D0FFF7A1
:1025200055FF002C06D1FFF7C3FF06B070BDFFF7C3
:1025300065FFF6E7012C02D1FFF7CCFFF5E7FFF7C7
:1025400033FFF2E764E40000F80B002010B504004C
:10255000C37801220178407803F018FDA0780121AA
:1025600003F064FCA078002103F060FC10BD0000C3
:10257000F8B5042005F066FB0327022604250400B5
:102580000770467085700121380003F01FFC300091
:10259000012103F01BFC2800012103F017FC380087
:1025A000002103F043FC3000002103F03FFC280031
:1025B000002103F03BFC00232000E370FFF7C6FF7F
:1025C000014B1C60F8BDC046900700200A4A03007A
:1025D0001068072270B5DC081340063A9A400419C7
:1025E000E578D3B2002904D02B43E370FFF7AEFFA8
:1025F00070BD9D43E570F9E79007002010B5040019
:1026000003F03EF9044BA2000A30D0500121200013
:10261000FFF7DCFF10BDC04670070020F8B503F0DF
:102620002FF900240700084DA6007359002B07D08E
:10263000BB4205D2E0B20021FFF7C8FF002373516F
:102640000134082CEFD1F8BD7007002010B50C0044
:10265000213C3C2C01D800F015FC10BDF8B5134806
:102660000D0013491E00012403F0E6FC0C273B007B
:102670006343104AD3181A000C3A1268002A0ED18C
:102680001A1F1268AA420AD1601E083BC0B219681C
:10269000002E08D04B425941C9B2FFF797FF0134D1
:1026A000092CE4D1F8BD4B1E9941F5E7F80B002049
:1026B00072E400009C070020F8B50D00160000240D
:1026C0000C2739006143104BCA580A2A0CD1012D3E
:1026D0000ED15B18E0B25968002E12D04B4259411E
:1026E000C9B2FFF773FF03E00B2A05D1022DF0D02A
:1026F0000134082CE5D1F8BD0C2AF9D1032DF7D10E
:10270000E7E74B1E9941EBE79C07002070477047B5
:1027100070470000F8B50D00160000240C273900A2
:1027200061430E4BCA58022A0CD1072D0FD15B18FA
:10273000E0B259683F2E0ED94B425941C9B2FFF75A
:1027400045FF04E0033A012A01D80A2DEFD00134F5
:10275000082CE4D1F8BD4B1E9941EFE79C070020FF
:1027600070B5424D0C212B68581C286005F06CFB9D
:1027700000290DD10C000C26320062433C4BD3588B
:10278000012B02D1E0B2FFF739FF0134082CF3D15D
:102790001821286805F058FB00290DD10C000C26E3
:1027A00032006243324BD358022B02D1E0B2FFF722
:1027B00025FF0134082CF3D13021286805F044FBB3
:1027C00000290DD10C000C2632006243284BD3584F
:1027D000032B02D1E0B2FFF711FF0134082CF3D133
:1027E000244B1B78002B3FD0234B28681B68C01A52
:1027F0003AD0182105F028FB002935D11F4D2B6850
:102800005C1C03232C601C400CD10C26320062435C
:10281000174BD358042B02D1E0B2FFF7EFFE01347F
:10282000082CF3D10F242B681C400CD10C2632004D
:1028300062430F4BD358052B02D1E0B2FFF7DEFE07
:102840000134082CF3D11F232C681C400CD10C251B
:102850002A006243064BD358062B02D1E0B2FFF7A1
:10286000CDFE0134082CF3D170BDC046980700207E
:102870009C07002000080020FC070020940700208F
:10288000831DDBB270B50500012B1ED81D4B1A68E5
:102890001D4B1A6000221D4B1A601D4B01321A702D
:1028A00001240C26320062431A4B9B181A000C3A82
:1028B0001268072A1DD1FA2D03D3FB2D0AD9FC2D4E
:1028C00012D00134092CEDD170BDFC28E8D1104B99
:1028D0000022E4E7083B19684B425941601EC9B227
:1028E000C0B2FFF773FEECE7083B19684B1E994135
:1028F000F4E7043A022AE4D8601EC0B2FFF77EFE75
:10290000DFE7C04698070020FC070020940700205E
:10291000000800209C07002001220221114B1A60B0
:102920005F329A600022D9605F3159615E399961E6
:102930005F3119620131D962013199630131596402
:102940000131196501315A601A61DA615A629A627D
:102950001A635A63DA631A649A64DA645A65D96549
:102960009A6570479C070020F8B50D0016001F00FF
:102970000400FFF76BFE3B00320029002000FFF748
:102980006DFEF8BD70B504000D0016009CB00B0084
:1029900000920F49020003A808F0DAFA03A90D48D3
:1029A00003F04AFB320029002000FFF7AFFE32009F
:1029B00029002000FFF7ABFE320029002000FFF7BE
:1029C000A7FE320029002000FFF7A4FE1CB070BD56
:1029D000ACE40000F80B002000B59BB0054901A84D
:1029E00008F0D6FA01A9044803F026FBFFF7B8FE69
:1029F0001BB000BD8BE40000F80B002010B50B4AA3
:102A00009AB00400FA2803D0094AFB2800D0094AEA
:102A1000094901A808F09CFA01A9084803F00CFB39
:102A20002000FFF72DFF1AB010BDC04661E5000081
:102A300096E4000091E400009FE40000F80B002001
:102A400070B5184D040029680D2003F0EFF92B68CC
:102A5000013B5A1E93412B60002C19D00F20237884
:102A600018401B09092B0AD00B2B12D0082B0FD1B1
:102A70007F2361780130194000231A0006E07F238C
:102A8000A27861781A40194001307E3BFFF76CFF55
:102A900070BD7F23A27861781A4019400130FFF79A
:102AA00071FFF5E70408002010B5002807D0007872
:102AB000F82805D003D3831DDBB2022B03D910BD48
:102AC000FFF78AFFFBE7FFF799FFF8E770B50C4DBA
:102AD0000100280000F094F800280CD0280000F035
:102AE00083F8084C2060280000F053F8042803D134
:102AF0002068FFF7D9FF70BD2068FFF7A1FFFAE754
:102B0000200800203808002070B50C4D0100280076
:102B100000F076F800280CD0280000F065F8084C8A
:102B20002060280000F035F8042803D12068FFF762
:102B3000BBFF70BD2068FFF783FFFAE7080800209D
:102B40003808002010B50521034800F057F805218A
:102B5000024800F053F810BD2008002008080020AB
:102B600010B5034800F008F8024800F005F810BD61
:102B70002008002008080020002383808371C3718F
:102B80008360C360037443748374C37403754375B3
:102B90007047007D70470423F72808D8DB18F72812
:102BA00005D0F02803D0063BEF2800D8C309180051
:102BB0007047000003000120F72B05D8EF2B04D944
:102BC0000E30074A0340D05C704700205AB2824260
:102BD000FADA04481B11C318083B1878F4E7C0461A
:102BE000C4E40000CCE40000027DC31C042A03D02E
:102BF0000023082A00D0030018007047C1747047F2
:102C0000F8B50400002661744BB20D000674C6715D
:102C10008779B3424BDA0800FFF7BDFFE37C03403E
:102C20001800421E9041C0B22074B7420ED0F62D5B
:102C30000CD80122E271E268A671A2600026A67497
:102C40006675A680B34207D1002004E0F72DF5D9C0
:102C50000423E5702375F8BDF72D0DD1E368A07945
:102C6000A3600823002802D02375A671F3E7012290
:102C7000A060E2716375EEE7F02D05D10123E660F7
:102C8000A37107336375DFE725702800FFF792FF14
:102C900060710138C0B22071EF2D01D80123F1E736
:102CA000022363750028CFD123750130D3E7002FAD
:102CB00005D0C3680133C36001230374C4E7837C78
:102CC000002B03D043798774013B03712379002BD8
:102CD000BAD001206279D21A013BDBB2A55420742C
:102CE0002371002BB0D1637D23758342B3D1A074CF
:102CF000B1E70000F8B510240121154D154E2F78CD
:102D000030787B1CB9432B70FFF760FC01223378CD
:102D1000174201D09B18DBB22A783370D000C0B2C2
:102D2000022A02D9052A0DD80020D100C9B2D2004A
:102D3000D2B200F015FA013C642002F0D7FD002C5D
:102D4000DAD1F8BD00210800082AF0D90A00F0E71E
:102D50003C0800203D080020064B10B51B68002BE6
:102D600004D000F00DFAFFF759FC10BD00F03AFA5C
:102D7000F9E7C04640080020962110B51D4C890196
:102D8000200004F001FD1C49200003F055F9012149
:102D90000D2003F01BF800210D2003F047F800F090
:102DA000C9F964221100100000F0DAF9FFF7E0FB26
:102DB000FFF7A0FFFFF730FAFFF7AEFDFFF7BAFA13
:102DC000FFF7C0FE0221052003F000F8052003F004
:102DD00059F80A4B1860002804D00949200003F074
:102DE0002BF910BD0749200003F026F900F0E0F9A7
:102DF000F7E7C046F80B0020D3E4000040080020AD
:102E00000EE5000030E50000037910B5092B0AD962
:102E100000230268D4186478D4540133092BF8D104
:102E20000368597210BD0268D154037901330371EC
:102E3000F8E70100027903689B18013B013A187812
:102E40000A717047002330B504799C4209DD02689D
:102E5000D21815788D4212D1002111700279013AF1
:102E60000271002402799A420BDB5A1C072B04DC06
:102E700001688D5CCD5403689C541300F2E7013364
:102E8000E3E730BDF0B585B001900D001E1EA24CE9
:102E900000D16EE0A14B1978002913D000261E70D6
:102EA0009F4B290020001D70FFF7AEFF0122290073
:102EB0003000FFF721FB012211000198FFF7FCFB16
:102EC00005B0F0BD974B1A78002A0ED01970964BBA
:102ED000290020001D70FFF797FF01222900100034
:102EE000FFF70AFB01220221E7E7904B1F78002F32
:102EF0000ED01A708E4B290020001D70FFF784FF42
:102F0000012229000220FFF7F7FA01220321D4E76A
:102F10002000FFF78EFF02902000FFF78AFF03904A
:102F20002000FFF786FF010006002000FFF76CFF7E
:102F300003992000FFF768FF02992000FFF764FF64
:102F400029002000FFF760FF754B1A78B24204D1C8
:102F50001D70012229003800ABE7734B1A78B2428A
:102F600001D11D70B9E7724B1A78B242A8D11D7019
:102F7000C6E72000FFF766FF694B1B78AB4244D1E0
:102F80002379022B3CD92000FFF753FF07002000D4
:102F9000FFF74FFF06002000FFF74BFF0100050081
:102FA0002000FFF731FF31002000FFF72DFF39002F
:102FB0002000FFF729FF5C4B1B78BB420ED05C4A18
:102FC0001278BA420AD0564B1F70554B012219781D
:102FD0000020FFF791FA002201216EE7B34206D0EC
:102FE000534A1278B24202D04D4B1E70EDE7AB420D
:102FF000EBD04F4B1B78AB42E7D0494B1D70E4E759
:103000000121464B1970320057E7474B1B78AB4202
:103010003ED12379022B38D92000FFF70AFF0600A2
:103020002000FFF706FF05002000FFF702FF010068
:1030300007002000FFF7E8FE29002000FFF7E4FE6C
:1030400031002000FFF7E0FE354B1A78364B9642F0
:103050000BD037490978B14207D01E700122197888
:103060000020FFF749FA00223DE7954205D030499C
:103070000978A94201D01D70F0E79742EED02C4AA2
:103080001278BA42EAD01F70E8E70121254BB9E770
:10309000274B1B78AB4200D012E72379022B38D99B
:1030A0002000FFF7C6FE05002000FFF7C2FE060065
:1030B0002000FFF7BEFE010007002000FFF7A4FE7E
:1030C00031002000FFF7A0FE29002000FFF79CFE42
:1030D000134B1A78164B95420BD013490978A94225
:1030E00007D01D70012219780020FFF705FA002291
:1030F0000CE7964205D00C490978B14201D01E7008
:10310000F0E79742EED0084A1278BA42EAD01F7030
:10311000E8E70121054B75E7380100204001002058
:103120004E080020410100204F08002042010020ED
:103130005008002070B5182004F084FD04005223CC
:103140000922012100F07EFC044D20002C6000F0DB
:103150000BFB286800F0C3FC70BDC046540800207B
:1031600010B50902054C0A430004024300212068FF
:1031700000F07EFC206800F049FB10BD54080020E0
:1031800010B50A4C200000F06DFE200000F023FE78
:10319000002806D0200000F038FEC0B2FFF7B4FCD3
:1031A000F3E7200000F0ACFD10BDC0467C0B002012
:1031B00010B5084801F022F8002804D00649074855
:1031C00002F03AFFFEE7064802F054FBC82002F086
:1031D0008DFB10BD1C09002050E50000F80B0020FD
:1031E0008D330000F0B53F4F85B03B783E4E3F4DEC
:1031F000002B07D13378002B1AD13D4801F008F895
:10320000122815D03A4801F047FC3378002B18D12A
:10321000384802F02FFB384B1A780C235343ED1833
:103220006B69364A5B019B18FF225A7205B0F0BDEC
:103230003378002BECD02E4800F0EAFF9028E4D041
:10324000E0E72B4800F0E4FF9028E1D1686800F047
:10325000DFFF9028EAD12A4A2B7A126A9A42E5D0F7
:10326000002BE3D03B78002BE0D00C22224B0192C4
:103270001B7800935343EB185C6900233B70337851
:10328000204A214F002B0BD0019B00994B43EB1898
:103290005B6908335B01D35C9B065B0F032B16D184
:1032A0000121164B65011948EB1819712F5040196F
:1032B000174D0834056103256401105DA8430143DF
:1032C000115540225A71303A5A719D72AEE7084842
:1032D00001F0E2FB02AB3A00991D280001F033FE39
:1032E000CDE7C046F40A0020F50A00208808002037
:1032F0001C0900208D33000080E60000FF500041D3
:103300005808002000500041740A0020501400208A
:10331000B40A002070B500260A4B44011B195D68F1
:10332000AD04AD0CAE4205DA074BF05CFFF7CEFB07
:103330000136F7E7054BE418012323723F3363712D
:1033400070BDC04650140020740A0020FF50004198
:1033500070B500260A4B44011B195D69AD04AD0C24
:10336000AE4205DA074BF05CFFF7B0FB0136F7E73A
:10337000054BE418022323727E33637170BDC0468F
:1033800050140020B40A0020FF500041224B70B5B9
:103390001A780C235A43214B9B1880225D69204BDD
:1033A0005200998B6C01914228D101231D4A137060
:1033B0001D4A137002F0A6F81022194BE6181B4B99
:1033C000E418A271227AD30708D5227A930705D58B
:1033D000E3795B0702D52800FFF7BAFFFF36337A9F
:1033E000DB0702D52800FFF795FF337A9B0702D54C
:1033F0002800FFF7ADFF1023737170BD9A8B8023F7
:103400009B009A42D6D10022074B1A70074BFF321D
:10341000E3185A72CEE7C04680E600008808002014
:1034200000500041F40A0020F50A0020FF5000413E
:1034300010B5064C200000F0B9FE2100044801F050
:10344000FDFE2100034801F0E7FB10BD1C09002030
:103450005808002088080020F0B5040085B01E0040
:103460000AAB1B78103001930BAB1B78170002934B
:103470000CAB1B780D00039300F01EF920002430E4
:1034800000F01AF9220000234032A363E3631370B3
:1034900063729D4205D10A4B0A4A22210A4806F06E
:1034A0005FFC6B461B79200063716B461B7A2560BD
:1034B000E3716B461B7B2771A671237205B0F0BDCB
:1034C00067E50000D8E5000078E50000437A002BAE
:1034D00004D18372C372C36001334372704730B545
:1034E000040085B002AD00680291039202F09AFEDA
:1034F0006B79227AE17900932068002302F07CFF47
:103500002979029A206802F0B7FE206802F080FE56
:1035100005B030BD70B518260400FFF7D7FF3300A3
:10352000082120790D4D4343EB18595602F0CCFC8D
:1035300033000821A0794343EB18595602F0C4FC2C
:10354000082160794643AD19695602F0BDFC044B71
:10355000200006CBFFF7C3FF70BDC046D4E60000D5
:103560003C0B002007B5837A00910192002B07D015
:103570009A070AD5EFF310835A425341C37272B6C9
:103580000099019AFFF7ABFF07BDDB07F8D5C368C9
:10359000014A9BB29360F3E700180040837A002B46
:1035A00005D09A0704D5C37A002B00D062B67047C5
:1035B000DB07FCD5C368024A9BB2D360F7E7C0467D
:1035C0000018004010B5006802F03AFE10BDF8B5D2
:1035D000050000680C0002F02EFE260AE7B2012862
:1035E00010D139002800FF27FFF7ECFFBC4304434C
:1035F00031002800FFF7E6FF03022000384018439F
:1036000080B2F8BD31002800FFF7DCFFFF26000282
:103610003440044339002800FFF7D4FFB44320436B
:10362000EEE700001FB5094B094A0A491A6000225B
:103630005A711A71012302930193093300930932DD
:10364000023B0548FFF708FF05B000BD3C0B00201A
:1036500000093D00340E0020F80A0020094B1868CC
:10366000002809D1EFF310820749002A08D172B669
:10367000BFF35F8F01320A701A6801321A60704717
:103680000870F9E7480B0020440B0020084B1A682B
:10369000002A0CD01A68013A1A601B68002B06D168
:1036A000044B1B78002B02D0BFF35F8F62B67047CC
:1036B000480B0020440B0020FF23002110B504001C
:1036C0000370FC3B41708170C170017143710C2229
:1036D000083006F0DDFB200010BD000001220B00C9
:1036E00010B5134008D00D4B1A7004234370836843
:1036F000002B00D0984710BD0222114204D0074988
:103700000A704370C368F3E704231942F3D0034AF5
:103710001370033343700369EAE7C0464E48004123
:1037200010B5FFF79BFF0C4B1B8C1B071B0F0B2BC4
:103730000FD80A4A9900885800280AD00F2408494F
:103740000A78A24313430B70064B1978C9B2FFF7EE
:10375000C5FFFFF79BFF10BD004800414C0B002048
:103760003F4800414E48004110B504000623C05EAA
:10377000002807DB012102F029FB0623E05E00217F
:1037800002F054FB0123637010BD70B50500C068E2
:103790000E0006F045FB2B7CEC7CE41A631E9C417A
:1037A00003347443A4B2AC80200006F02FFBE86021
:1037B000002805D02200002106F06AFB6E8070BD53
:1037C000A8806880FBE70322F8B58B110D118E10DD
:1037D0001640134015400A40467482740026FF22AA
:1037E0008A427641C268C47C077CC3740574067043
:1037F000002A0AD0E21B5B1B51424A4159424B410D
:103800009A4202D04188FFF7C0FFF8BDF8B5C368FF
:103810000400002B00D1F3E0656902F037F885421F
:1038200002D902F033F8606102F030F86369C01A1F
:103830002C23FF339842EFD972B60622A35E1822DA
:10384000012053436F4FA688FA185268DB5D904001
:10385000E268DB019619511C15786B4A9F186B4A78
:103860009B182278002A00D058E0803294463860B5
:10387000C046C046C046C046C046C046C046C04618
:10388000C046C046C0462A4200D192E0C046C0466B
:10389000C046C046C046C046C046C046C046C046F8
:1038A000C046C046C046C046C046C046C046C046E8
:1038B000C046C046C046C046C046C046C046C046D8
:1038C000C0461860C046C046C046C046C046C04656
:1038D000C046C046C046C046C046C046C046C046B8
:1038E000C046C046C046C046C046C046C046C046A8
:1038F000C046C046C046C046C046C046C046C04698
:10390000C046C046521000D170E0D2B2C046C04698
:10391000C046C046C046C046C046A8E7802294467E
:103920003860C046C046C046C046C046C046C046D5
:10393000C0462A4221D0C046C046C046C046C04606
:10394000C046C046C046C046C046C046C046C04647
:10395000C046C046C046C046C046C046C0461860C5
:10396000521020D0D2B2C046C046C046C046C04663
:10397000C046C046C046C046D2E71860C046C046F2
:10398000C046C046C046C046C046C046C046C04607
:10399000C046C046C046C046C046C046C046C046F7
:1039A000C046C046DCE7B14226D20D7862460131FE
:1039B000B6E71860C046C046C046C046C046C046CE
:1039C000C046C046C046C046C046C046C046C046C7
:1039D000C046C046C046C046C046C046C046C046B7
:1039E000C046C046C046C046C0466BE7B14203D29F
:1039F0000D78624601313AE762B601F047FF606137
:103A0000F8BDC046D4E6000018440041144400410B
:103A100070B5437804000D00002B06D00623C05E6D
:103A2000002802DB002102F0D1F96378E580002B49
:103A300007D00121280002F0C9F90021280002F076
:103A4000F5F970BD70B51500002204000E0042703B
:103A50000272C26042611900FFF7B5FE310020001A
:103A6000FFF793FE29002000FFF7D2FF200070BD72
:103A70004388F7B58B421AD9037A150C140A002B28
:103A800016D1E4B2EDB20194D6B2B446047CC67C41
:103A9000C768B44218D1032359437F186A46037C90
:103AA0001279FD54437CFA546246837CFA54F7BD84
:103AB000FF26344035405C4316405D435E43240A94
:103AC0002D0A0194360AE0E789007F18120E002BB8
:103AD00002D1D3B2BB55E1E753431B0AFAE710B555
:103AE00000218288C06806F0D3F910BD002070471D
:103AF000002070470379413301200B70704700208C
:103B00007047002070470000F0B50B789BB002337F
:103B10000B7002AB9D1D019056220021280006F07B
:103B2000B7F94B4B03AC0921242623800123494AD2
:103B30006371A3716172A672E3726373A1730792DA
:103B400007220320E27602AA207605323E30D077A3
:103B5000414A02A862840B22121826776377E37722
:103B6000D3773E4A0EA80D92022202703C4881276C
:103B7000E08504207F00FF30E782A78420866086EE
:103B8000A78602A8C73F3F18397011AF3E7019369B
:103B90003618032030703E2602A8361832703F26B1
:103BA00004273618377012AE33704126361833703A
:103BB0004226361833702B4E3C37EE8747254D266C
:103BC0002D182A7014AD2F70052536184E2035702B
:103BD00002AE8019252606704F2002AE80190370B0
:103BE00016A80370512080190370522080190170AB
:103BF0004A3189190D70552189190A705432921968
:103C000017705B2225219219157019AA11705D2277
:103C1000921913705E229219137003225E339B195E
:103C20001A704622019B92191B792100A37001335F
:103C30002375019B0C485B7913708022013352423B
:103C4000134317AA13705C2203F054FB1BB0F0BDA2
:103C500009040000010309040624000006240202EE
:103C60000924000009050000880E002070B5002519
:103C700004000C4BC560C3800B4B290083600B4BC9
:103C800008330360103000F0FBF8230020005C33A1
:103C90001D705D70290040221C3006F0F9F82000EC
:103CA00070BDC04602020000440100202CE6000066
:103CB00070B50126054D064C2B68334203D1200018
:103CC000FFF7D4FF2E60200070BDC0468C0B002093
:103CD000900B002010B502F0E7FC0400FFF7E8FFAE
:103CE0000100200002F0B4FC10BD000010B54179C5
:103CF00002480131C9B203F059F910BD880E002005
:103D000010B5FFF7D5FFFFF7F1FF10BD13B50400A5
:103D100001AA103000F0BDF8002807D06179042313
:103D20000131C9B201AA024803F038FA012016BDD8
:103D3000880E002010B50C00FFF7BAFF2100FFF736
:103D4000E5FF10BDF7B504006179042301AA194805
:103D500003F0AAF900282BD0042829D1694601983C
:103D600000F042F923005C331E7801331B78124ABD
:103D700040339B1B134004D54022013B5242134366
:103D800001334022D31AC2B29342DDDB2700002365
:103D90005D378342D8D03F2539784A1C2A40964265
:103DA00004D06D46ED5C61180D773A700133F0E791
:103DB000F7BDC046880E00203F00008010B504000B
:103DC000FFF7C0FF23005D345C3318782378C01AF6
:103DD000431E984110BD10B5FFF76AFFFFF7EEFFD5
:103DE00010BD10B50400FFF7ADFF220021005C32CA
:103DF0005D31137809780020994205D03F21E418FD
:103E000001330B40207F137010BD10B5FFF750FF3A
:103E1000FFF7E7FF10BD10B50400FFF793FF230085
:103E200022005C335D321B78127800209A4201D068
:103E3000E418207F10BD10B5FFF73AFFFFF7EBFF46
:103E400010BD0000002310B54360FA2304009B005E
:103E50008360034B08330360FFF73CFF200010BD75
:103E600048E6000010B5FFF723FFFFF76BFF10BD1A
:103E700010B50248FFF7E6FF10BDC0467C0B0020DE
:103E8000FF2309011940002301604372436003725C
:103E90007047030048B270B5002848DAF82912D0FC
:103EA000F92901D9FD290ED108000C30C0B2022831
:103EB00013D805201C6851700021204310709170A8
:103EC000D170197207E018680F23034313700023A1
:103ED00051709370D370012070BDF02905D101227B
:103EE00059715A721A720020F6E7F7291BD1187A15
:103EF000441C1C721C1861711968053008430021AC
:103F000010701C7A481C8C4205D80020013104290D
:103F100006D05054FAE71918097911540100F0E756
:103F200058721872D7E7002019711872D4E7187AFE
:103F3000451CEDB218181D724171587A00280ED038
:103F4000032DD0D104211C6821431170597951707F
:103F500099799170D979D17000221A72BCE71979D8
:103F60000F260C00B443B02C0AD00DD8802C07D0FB
:103F700002D8002CD9D0AFE7902C01D0A02CABD127
:103F8000022DA9D1091122E0D02C02D005D8C02CD5
:103F9000A2D1012DA0D109110CE0E02CF0D0F02C21
:103FA0009AD1314002290ED0032902D0012900D034
:103FB00092E70221186801431170197951705979FB
:103FC000917000217CE70321022D00D084E718685E
:103FD0000143117019795170597991709979D170A3
:103FE00000221A7277E7000037B5030C041C020A9E
:103FF00001900F20204001242500854028000C4D11
:10400000D2B2DBB228420CD10A4D284205D10A4B6C
:10401000184001D020000A703EBD0A704B7002208B
:10402000FAE74B700A7001ABDB7803208B70F3E783
:10403000984F0000443000002080000070470020AE
:104040007047002070470020704770B505000C00D5
:104050007F2084430020844233D1072B31D8824211
:1040600002D02C69072C2CD02E0001242836306871
:10407000002812D1002917D007263140C900002A94
:1040800023D040232A690B4301322A613240134373
:1040900024012D19AB61180013E00134E4B210368D
:1040A000102CE4D100200CE001342301EB18002A8D
:1040B00008D041229A602B6901332B6124012D190C
:1040C000A86870BD01229A60F8E7334018000B0021
:1040D000B3430343DCE7F8B54B1C1B01C3189A68D4
:1040E00005000E00520617D501271C7A6407640FDD
:1040F0007B1E0E2B00D901277A1C1301EB181B7AAB
:104100009B065B0FA34211D01700102AF4D12B6934
:10411000A34201D1013C2C61002301223601AE19DA
:1041200004357561B361F2613362F8BD390028006E
:10413000FFF7D1FFDCE710B5002901D1143010BD25
:104140000200012328321468A14203D114301B015C
:10415000C018F4E70133DBB21032102BF3D100208A
:10416000EDE770B50C00412910D1010003000022D9
:10417000012515312433FF31041D5A609D60DA603A
:104180001C6010339942F8D1026170BD0200012118
:10419000283213689C4202D1FFF79DFFF5E70131F9
:1041A000C9B210321029F4D1EFE700000822114BF8
:1041B00030B5826005003432036001210023427370
:1041C0000200041D153503618361C161036244610E
:1041D00043602432FF3553609160D3601460103225
:1041E000AA42F8D1AA2252008354034B443AFF3A20
:1041F0001A6030BD74E600004C010020AA2310B5FF
:1042000000245B00C45401F0B5F9200010BD00008B
:10421000014B18687047C0464C01002010B51400CF
:10422000FFF789FF031E0DD00368002B0AD0002280
:104230008168914205D01868A04203D00C33013246
:10424000F7E70023180010BD70B516000D001C0024
:10425000D822002B06D0FFF76EFFD622002801D00F
:10426000002270C0100070BDF7B5140052019446D2
:10427000009100222100012701930423274E0831D9
:1042800066447270264A49010B9D885C3D40AD0032
:104290009843284307258854019B885CDB192B40F1
:1042A0003135A843DB0003438B540A9B0320DBB268
:1042B0003371089B1B0628D58B5C83431F43402327
:1042C0008F54B371137B00255B0700D40335154E63
:1042D000202266443000002105F0DAFD7F20B389FA
:1042E0000099834301400B430F21B381B3890C40F4
:1042F0000D4924020B401C43B48173682A070B4DFF
:104300007E381D4015437560FEBD8B5C83431800ED
:10431000022303438B5440237371D3E7FF500041C2
:104320000050004150140020FFF0FFFFFFFFFF8FFF
:10433000F0B585B01F0006000C001500FFF7FBFE6E
:10434000D62300282AD002680133002A26D02A006A
:1043500021003000FFF762FFDB23386000281DD00A
:10436000437A9B08DAB20F2A00D90F2301221100E9
:10437000DBB299400B000A99013B0B60002D10D075
:104380000027037A039202974268210001920B9A58
:10439000300000922A00FFF767FF3B00180005B0CD
:1043A000F0BD7F210268054B52019B189A890C4091
:1043B0008A4314439C812B00F0E7C0465014002030
:1043C000F7B5170000911E0001F05AFA0025224BA4
:1043D0000099C318380001932C0001F0B1F901F0E5
:1043E0004FFA019B984232D201F060F902282ED197
:1043F0000099380001F0D2F900282AD1174A7B0130
:104400009A18117A0430014207D010720134002E3C
:1044100003D0B44201D10220FEBD0220104AD118BF
:10442000897A014204D00134002E01D0A642F2D094
:104430000820D218D289024202D00135032DEBD0D8
:104440000120074AD318DB890342C8D0E4E7FF20E4
:10445000E2E70020E0E7C04610270000FF500041DF
:1044600050140020F0B51F000C0087B00CAB02CB3D
:1044700004901B78607A02933B88059201936368ED
:104480000122039300233B80236808335B018007EC
:1044900025D532481B185A7100252368304A5B0124
:1044A000995023682E4E5B019A59012152199A5155
:1044B0002268059B0498FFF783FF2368012814D125
:1044C0000226284A5B019B18DA7902405100627A81
:1044D000B2430A436272324205D09871E1E71F4845
:1044E0001B181A71D8E75871DBE7002806D01E4A5E
:1044F0005B019B1810225A7107B0F0BD1B495A018D
:104500005B015B184021B61872681970019D920416
:10451000920C954200D915003B88039A5B199BB217
:104520003B80AA4202D8019A9A4210D80121022067
:1045300023680C4A5B019B18DA791140627A4900C2
:1045400082430A436272102200209A71D4E7029BD0
:10455000002BA6D0180001F0C9F9A2E700500041D5
:1045600050140020FF50004100510041045100410F
:10457000F0B585B01D000AAB40CB04001F780023C6
:10458000029303938033019303AB009302ABFFF7D5
:10459000CFFE002807D1019700962B00039A0299BD
:1045A0002000FFF75FFF05B0F0BD0000F0B54F68D9
:1045B00095B01D007B1E03900C000192DA203F2B6A
:1045C0004ED801222368497A08335B01114235D065
:1045D00025495B185A71002023680293002D34D0BE
:1045E0002E00BD4200D93E0032001A9904A805F001
:1045F00033FC04AA3100029801F08EF8019B226876
:1046000002210398FFF7DCFE002812D0022819D0FF
:10461000082825D0012818D12368144A5B019B186B
:10462000D979627A014082430A436272024219D008
:1046300098711A9BAD1B9B191A93CDE70A495B1819
:104640001A71C8E7019B012B0AD101212368084A8E
:104650005B019B189A79637A0A408B431343637218
:1046600015B0F0BD5871E4E700500041FF50004123
:1046700000510041F0B51D008FB014AB1F7815AB91
:104680001B781600059316AB1B782A00069317AB10
:104690001B880390079318AB1B880493002309938E
:1046A0000A937F339A430AAB01920093320009AB1D
:1046B000FFF73EFE041E49D1402100F0FDFF041E1D
:1046C00044D16B461B7D0CAA93706B461B7E5770C2
:1046D000D3706B469B8B082193806B461B8A1570A9
:1046E000D380099B186801F017F821000A9B32005B
:1046F0000398FFF765FE041E28D11A9B6DB2099935
:10470000002B33D00A9A4B7A002D43DA02270A266F
:104710003B434B7206ABF6186B461B8A33801A9BE1
:104720000190009303983300FFF79CFE01220400E0
:1047300010420ED009990B685801224BC01883799A
:104740001A404B7A5200BB4313434B7220000FB008
:10475000F0BD0028FAD11B9B002B07D01B683188C5
:104760001F681A9A0B900BAB1B98B847099B1868E7
:1047700000F0C8FF099A134913685B015B18012117
:104780005971E90F01310A9B12680398FFF718FE6F
:104790000400DBE701252B434B721A9B039800931F
:1047A000199BFFF703FF041ED0D1099B186800F086
:1047B000A9FF099A034913685B015B185D71290021
:1047C000E1E7C04600510041F7B5890041181F00DC
:1047D000FC31002314000D0001900093A8693A00F9
:1047E000036821005E68089BB0470600E0282ED1D0
:1047F000002C21D18021214A8900138966200B4396
:10480000138101F073F8A8693A00036821001E685B
:10481000089BB047061E0DD0009B022B1CD9002C14
:1048200022D18023154A9B00118966200B431381F6
:1048300001F05CF83000FEBD2300019A44339B0078
:10484000D3185868390003685B699847DBE700288C
:10485000D9D0009B022BEDD8642001F047F8009BD3
:104860000133DBB20093B9E7019B4434A4001C1967
:104870006068390003685B699847DBE700500041D6
:10488000F8B505000F1E18D0060000241536FF36B7
:10489000306800280DD003681B699847B84208D1DA
:1048A0002000443080002818406803689B689847BF
:1048B000F8BD01340436102CEAD10020F8E730B5F9
:1048C00089B005939BB20493012300240C9D0293AD
:1048D0000533009307940695039401947A33FFF708
:1048E000C9FE09B030BD30B589B005939BB20493C1
:1048F000022302930C9B0024DBB2019306230D9D3F
:1049000000930794069503947A33FFF7B3FE09B03A
:1049100030BD10B5DBB288B00024019305230794A5
:104920000694059404940394029400932300FFF7E3
:10493000A1FE04009620400000F0D8FF200008B03F
:1049400010BDF8B51F0043690400D725002B1FD008
:104950003B00581E83412000236213000022FFF712
:1049600074FB033D061E13D001002000FFF7E3FB9C
:10497000023500280CD00022C7603300110020004F
:10498000FFF7C7FF051E03D031002000FFF7E9FB4A
:104990002800F8BDF0B51F00082391B00993F0235B
:1049A0000391002108AE9B01338143690BAD049252
:1049B000059346610762122300950A0004000891DE
:1049C000FFF77DFFEB797360059B6361002838D1A9
:1049D00006002B8905936B8906932B790793B50005
:1049E0001535FF3565192868002814D10136102EB9
:1049F000F5D10026B5001535FF3565192868002862
:104A000029D10136102EF5D13B00049A03992000DC
:104A1000FFF797FF15E003681B6998470028E5D169
:104A20002868069A036805999B69984700280AD068
:104A30000097049B039A31002000FFF7C5FED128A0
:104A4000D4D011B0F0BD286807990368DB69984796
:104A50000028EDD1CAE703681B6998470028D0D128
:104A60002868069A036805999B6998470028C8D169
:104A7000286807990368DB6998470028C1D1049B1F
:104A8000039A009731002000FFF79EFE08220300E2
:104A90009343D12BD5D1B4E70023F7B50700019399
:104AA00000F004FE0190019B022B29D0032B0AD0B9
:104AB000012B0BD1F023424A11680B40102B05D07B
:104AC0001123136002E013223D4B1A603D003C00AD
:104AD0001535FF352E005534FF343068002802D0DC
:104AE0000368DB6898470436A642F6D1344C236845
:104AF000302B42D012D8112B28D0202B34D0F7BD28
:104B0000F0232F4C22681340102BDFD100F0B8FEA9
:104B10002C4BC830186020232360D7E7502B34D0AB
:104B2000802B3ED0402BEAD10822274B998B114293
:104B3000E5D09A831989F8320A431A8150232360F9
:104B400000F09EFE1F4B14301860D8E700F012FDF5
:104B50002868002802D003689B6898470435AE4255
:104B6000F6D112232360CAE700F08AFE154B1B68BA
:104B7000C01A30230028F5DAC1E78023124A9B00CF
:104B800011890B4313814023ECE70F4B9B8B5B0791
:104B9000B5D500F075FE0B4B1B689842AFD980234A
:104BA000E0E7002338001A001900FFF7F3FE0028A1
:104BB00003D0A023D228D5D1A1E79023D2E7C046C5
:104BC0004C010020F00B00200050004110B5DBB27A
:104BD00088B0002401930923079400930694059458
:104BE0000494039402942300FFF744FD08B010BD21
:104BF00000207047007A704710B504004068217AA1
:104C000003689B689847002001232072A372E0721A
:104C10009034207010BD0000234BF7B5083302001C
:104C20000360012600239032416003728672C372D2
:104C3000037313700C2204009446143401965A42F4
:104C40005A41D20062606246002502275A4325601D
:104C500025728218557F019EB543BD4355773700B5
:104C6000002B00D10F270C2203265A438218557FB0
:104C7000BF0035403D43013355770C34052BDED161
:104C800000290AD00A0000231532FF321468002CD4
:104C900004D144339B00C9184860FEBD013304327F
:104CA000102BF3D1F9E7C04684E60000F0B5C7B099
:104CB00006AC00920194060017000423002240680D
:104CC0000391FFF710FEC0B2002852D1E278A3781A
:104CD0001202134380221D1C5200934200D9151C5E
:104CE000ADB2019400972B00002203997068FFF782
:104CF000FAFDC0B200283CD1631904930C230100D3
:104D00009C46049B9C4234D2237803936378042B03
:104D100008D0052B10D0022B01D163797372039B4D
:104D2000E418EEE763790021012BF8D1A279032A78
:104D3000F5D133730131F2E7E578B37C2B40022BD8
:104D4000EDD1A27853B2DB43DB0F00290FD0013342
:104D50002779059767467B430F27F3183A405A6136
:104D6000059A1D779A61B37A0133B372D7E703339B
:104D7000EEE747B0F0BD0000084B028A9A420CD122
:104D8000C389202B07D0362B05D0512B03D0692B9C
:104D900001D07B2B01D102238374704735120000B0
:104DA000F0B58FB0059381230362030006910021C3
:104DB000012507920222040028334162197029302C
:104DC0000378AB43934303702300143304932033DD
:104DD000E562216319702100280035310B78D83045
:104DE000AB4393430B70257A002D09D167682900E6
:104DF0003B6838001B6898470390002802D1D620F2
:104E00000FB0F0BD039BD7201B681E1EF8D0039A7D
:104E1000049B29001360059BD36009AB2A00009313
:104E200060681223FFF74BFD06AB9B8A039A23822F
:104E300006ABDB8AC5B2E3811660002D7ED13B68EC
:104E40002A005B6806991E003800079BB047C2B273
:104E500003002272D420002AD2D006AAD27C2900D4
:104E6000A261FF22606813402A00FFF752FDC2B220
:104E700006003B68002A0AD0039A3800D560217AE0
:104E80009B6898473000FF2225721040B8E70399CD
:104E90001B68CA60217A380098470028AFD0059B6C
:104EA0000122C36006AB5E7F217A049B6068FFF736
:104EB000CBF9C5B2002D41D103232F00A3742000EC
:104EC000FFF75AFF2573BE420CD0217A3A0020002A
:104ED000FFF7ECFE051E31D1A37A012B02D8013772
:104EE000FFB2F0E7A37A012B27D9237B002B11D146
:104EF000A36B2362E36B6362230040331A78183B91
:104F00001A70636CE362A36C236323004C331A783A
:104F1000183B1A70217A049B03226068FFF794F90A
:104F2000637A217A00226068FFF750FEC5B2002D37
:104F300004D10123E372280062E7FF2523682000E3
:104F40009B689847F7E773B500260D00436A140085
:104F50000B80017A019600922B00026A4068FFF7ED
:104F600007FB2B88C0B23B2B03D8E6542B88E418F0
:104F7000667076BD006A70470939484248417047FB
:104F800010B504004068216A03689B6898470020B8
:104F900020626062A062E06210BD10B51B02134384
:104FA00088B09BB2002403930123C9B200930794F5
:104FB00006940594049402940191016A223322001C
:104FC0004068FFF757FB08B010BD10B5002488B04B
:104FD000059289B292B206930492079403910294C7
:104FE00001940094016AA32322004068FFF742FB6A
:104FF00008B010BD10B51B02134388B09BB200244B
:1050000003930323C9B20093079406940594049470
:1050100002940191016A203322004068FFF72AFBC5
:1050200008B010BD73B5002604000D0033000A005F
:1050300011210196FFF7B1FF33002A001021200053
:10504000FFF7ABFF33002A0004212000FFF7D2FF57
:10505000033601AB042229002000FFF7B6FFC0B2DF
:1050600000280BD1019A0D4B13400D4A934205D0F5
:105070006430013E00F03AFC002EEAD12A00002301
:1050800014212000FFF789FF2A00002310212000AF
:10509000FFF783FF142000F029FC73BDFFFDFFFF25
:1050A00003011000F0B59DB00A93036A05000C914E
:1050B0000D920893D924002B4CD146680899336887
:1050C00030001B689847033C071E43D00368013437
:1050D0000993002B3ED02B00083303600B930A9BEF
:1050E000089AC36014AB0093110008236868FFF7A7
:1050F000E6FB089B041EFB6000D09BE03C2206AB55
:105100009B181B78D134092B24D1043A06AB9B1889
:105110001B78373A0A9333680C995C6830000D9B12
:10512000A047D424031E286214D03F2106AA521897
:1051300012786868EA60089A1100FFF7EAFB041E1B
:105140000BD0099B296A3B60336830009B68984705
:10515000089B2B6220001DB0F0BD28226B469B18D7
:105160000A9A1B78202A00D92023099A296A3A60D2
:105170000A9ADBB2002A4FD10B9B0222296A686887
:10518000FFF762F8041EE5D129230827029314AE25
:10519000233B079003900190009302000696059729
:1051A00004979A33296A6868FFF764FA041ED1D11C
:1051B000B37802006B62009001963B00296A686830
:1051C000FFF791FB041EC5D1738802000090019681
:1051D000296A6868FFF787FB041EBBD10EAA3378E3
:1051E000296A0192009002006868FFF77CFB041EA8
:1051F000B0D102007379296A6868FFF7E7FC041EE2
:10520000A8D16B6A0134A34210D3002322000821E5
:105210002800FFF7EFFEF4E714AA00926868002266
:10522000FFF74DFB041E00D094E7A5E701230024FF
:10523000EB628FE7099B3B608CE700000822C260AD
:10524000F022124B920102820122083303600023F4
:10525000426182610E4A10B541600362436283621B
:10526000C36283608283994209D00A001532FF32FB
:105270001468002C04D144339B00C918486010BD49
:1052800001330432102BF3D1F9E7C046ACE600003D
:1052900003040000F8B514001378527805001202D8
:1052A0001A43A3780E001B041A43E3781B0613432A
:1052B000324A93422DD007D8314A934245D0314AE1
:1052C000934226D000243EE02F4A934202D02F4A38
:1052D0009342F7D10023320014212800FFF75DFE2E
:1052E0000023320010212800FFF757FE142000F0A1
:1052F000FDFA80226378002492001B0213402A6A80
:1053000068685107490F3200FFF744FB204B1C70BF
:1053100019E000241E4F3B78A34214D12300320031
:1053200011212800FFF739FE230032001021280048
:10533000FFF733FE2300320004212800FFF75AFE56
:105340000123B1343B702000F8BD00240A00002383
:105350001121FFF722FE3200002310212800FFF761
:105360001CFE0B4B296A1C70072319401E40C90004
:1053700031436868FFF784FAE5E7C046010301009E
:1053800000010100010101000301100003031000EE
:10539000F40B00200A23F0B50022012487B06B44EF
:1053A0001C80019204AA00920500016A2200406854
:1053B000FFF7DEF8002817D102266B461B7C1E4241
:1053C00014D0002304220393210003AB2800FFF72D
:1053D000FCFD071E0AD103AA21002800FFF75AFF8F
:1053E000B1282ED0002801D007B0F0BD01347600DE
:1053F000082CE2D1073C6B6A0020A342F4D303AE31
:1054000003903300042221002800FFF7DEFD071E71
:1054100015D1022208213388FF31FF320B4093421D
:105420000DD17388013AFF3A13432100320028005E
:105430007380FFF72FFFB12803D00028D4D10134A7
:10544000D9E73800D0E7C36A70B50400002B02D159
:105450000025280070BD00F013FAA36AC01AF7D423
:105460002000FFF797FF050000F00AFA6430A06201
:10547000EFE7000010B5024802F0EBFA10BDC0469D
:10548000F80B002013B51249124800F02BFE124908
:10549000124800F027FE1249124800F023FE12497C
:1054A000124800F01FFE124C1249200000F01AFEB4
:1054B0001149124800F016FE0023019301330093B6
:1054C0000722053321000E4802F032FA13BDC04610
:1054D00000080042340E0020000C0042380E00206C
:1054E000001000423C0E002000140042400E00203C
:1054F000440E002000180042001C0042480E00200C
:10550000F80B0020194B1A78D2092ED004219A8B5F
:1055100092B20A4204D099830222154B1A70704746
:1055200008210A4203D09983114B0122F6E740215A
:105530000A42F8D120210A42F5D110210A42EAD1CB
:1055400080210A42EFD180218020490080000A4258
:1055500004D09983998298831883DDE70242DED0D4
:105560009883988299831983DEE7FEE70050004113
:105570004C0E002070B5424800F07CF92023414ACF
:105580000F20D1690B43D361062100F09DFC062159
:10559000102000F099FC3C4B3C4A5A805A7852B299
:1055A000002AFBDB01233A4C227813432370A378B3
:1055B000DB07FCD482222378134323702378023A3A
:1055C00013432370A378022BFCD01F21314A1368A8
:1055D0005B0B0B408B4200D10523208D2E4D0B40E1
:1055E0009B0128400343238513689B0C0B401F2B12
:1055F00000D1023B1F20218D034081430B43072133
:1056000023851368DB0D0B408B4200D10323228DD1
:105610000B4022491B030A401343238504232278AD
:10562000802513430C221E482370606223896D007D
:10563000934323812A00002104F02AFC0022194B05
:1056400001210E201A7000F0C1FB01210E2000F094
:10565000EDFB1023258325832383F133FF3323833D
:105660008023C1212289DB0013430F4A2381890053
:1056700053581B021B0A53508023136070BDC04651
:105680000555000000040040000C004006400000EA
:1056900000500041246080003FF8FFFFFF8FFFFFB4
:1056A000501400204C0E002000E100E0014B18785F
:1056B0007047C0464C0E00200D4B00211B7B5B0742
:1056C00000D4033138220B480907437893431A006A
:1056D00008231343084A4370938908480340938181
:1056E0005368074803400B43002053607047C0468F
:1056F00000500041FF50004150140020FFF0FFFF18
:10570000FFFFFF8F43010348C01843689B0B9B03B7
:105710004360704750140020074B4001C2501818D6
:10572000436889048A0C990B8903114341604368DB
:10573000024A13404360704750140020FF3F00F0BE
:105740000300F0B503260F00124D08335A01545DD3
:105750003740B4433C435455002907D10E4A400119
:105760008018102202723032827105E0012909D1BD
:105770000849521840211171064A5B019B181022FA
:105780001A71F0BD044A40018018012202723F32B2
:10579000EAE7C04600500041FF500041012911D006
:1057A000002903D0022917D0002109E0114A430142
:1057B0009B181022187A104202D01A729A71012195
:1057C000080070470B4A43019B181A7A0A400FD011
:1057D000102219729A71F3E70122064B4001C31897
:1057E000187A00211042EBD010311A729971E6E755
:1057F0001100E5E7FF500041FEE70000034B10B544
:105800001B68002B00D0984710BDC046500E0020EA
:1058100070B50F490F4CA14204D100F08DF802F091
:10582000F9F9FEE70C4D00238D42F6D0CA18E818AE
:10583000A24205D3094B8242EFD00949002204E07D
:10584000006804331060F1E704C38B42FCD3E4E743
:1058500000000020E403002048ED0000E8030020E1
:105860005415002010B500F064F8002801D100F0B4
:1058700055F810BD014B18607047C046500E00200F
:10588000014B18687047C046540E0020F7B5134806
:10589000012284461249134C8E68636805689B0E8A
:1058A0001340019288686268019F920E3A406746F1
:1058B0003F6893420ED1BD420CD186420AD35B1998
:1058C000FA254868AD00861B07486B437043000DFE
:1058D000C018FEBD3D0013000600E3E7540E002093
:1058E00010E000E000ED00E05555000070B5041E2A
:1058F00010D0FFF7CBFF050000F01AF8FFF7C6FF46
:10590000054B401B9842F7D9FA23013C9B00ED1848
:10591000002CF3D170BDC046E703000010B5034A68
:1059200013680133136000F09FFB10BD540E00207C
:1059300070470020704700001E2270B54648474956
:10594000436893431C3A1343436008238C69234301
:105950008B61434C434B9C829C8A14439C82DC6841
:105960001442FCD00124404A14701578254203D01B
:1059700055786DB2002DF8DB01249460547864B240
:10598000002CFBDB394C5460547864B2002CFBDBF8
:105990008224E4015480547864B2002CFBDB02249E
:1059A0009C840E34DD682542FCD0314CDC6210242E
:1059B000DD682542FCD09D8C2E4C2C439C84102409
:1059C000DD682542FCD002249D8C80262C439C84DB
:1059D0004024DD683542FCD0DD682542F9D0102432
:1059E000DD682542FCD000249460547864B2002C19
:1059F000FBDB214C5460547864B2002CFBDB1C6A46
:105A00001E4D2C4080251C621C6AAC431C62032383
:105A100093601B4B536053785BB2002BFBDB00237E
:105A2000FF240B72174A4B728B72CB72164B1A60A3
:105A3000164B174A1B6811689A065B01C90E234072
:105A4000520F12020B431343124A138580234268FC
:105A50001343436070BDC046004000410004004055
:105A60000C06000000080040000C00400105010089
:105A7000B905FF7D040A000000070300FFFCFFFFDB
:105A800003060100006CDC02680100202460800035
:105A90002060800000400042FA212D4B10B51868AC
:105AA000890002F04BF92B4B013898424FD82A4914
:105AB0002A4A4860C020136A00061B021B0A0343DF
:105AC000136200238B6007330B608021136A090681
:105AD0001B021B0A0B431362FC22214B196A0A4367
:105AE0001A62FF22196A12020A431A62A022196A74
:105AF000D2020A431A621B4B1C005A7852B2002A87
:105B0000FBDB194A5A80194B1A00597EC909012931
:105B1000FBD0C821890099800521D970537EDB090B
:105B2000012BFBD0C02300205B011361907000F0BB
:105B300029F863785BB2002BFBDB0D4B0D4A6380C9
:105B4000D379DB09012BFBD04123537010BDFEE755
:105B500068010020FFFFFF0010E000E000ED00E022
:105B600000040040000C00401E40000000400042C5
:105B70002140000000480042014B18607047C046B9
:105B80006C0100201F4900B50B004A7ED209012A92
:105B9000FBD001380A282FD802F0C6F81B2E2E2E73
:105BA0002E2E062E2E2411001A6917490A400F21A5
:105BB0001A615A788A43110001220A4310E01A69D7
:105BC00011490A400F211A615A788A4311000322B1
:105BD000F3E71A690C490A400F211A615A788A437F
:105BE0005A7000BD1A6908490A400F211A615A7893
:105BF0008A4311000222E0E7F022196912050A43E4
:105C0000F3E7C04600400042FFFFFFF01823434384
:105C1000F0B5654A87B09B18DE6804000091B207B2
:105C200019D5002817D1614A1300D179C909012972
:105C3000FBD000998D05AD0D1581DA79D209012AC5
:105C4000FBD0022219780A431A70DA79D209012AA4
:105C5000FBD007B0F0BD082732003A400192544D06
:105C600000D18FE02968102200981227DF5F00F032
:105C700021F904210500F30602D4B306E9D5052174
:105C8000200000F021F93E124A4BB200D4584A4B92
:105C9000FFB29A5D002A54D101329A5547490F321A
:105CA00002A804F0D9F802AA73009B5A8022D201FC
:105CB0001A43434B5A805A78D209012AFBD0022258
:105CC00096421BD9238893432380E37BDB09FCD1D5
:105CD0002288403313432380E37BDB09FCD10C375C
:105CE000ADB27F003D53E37BDB09FCD12288023358
:105CF00013432380E37BDB09FCD1AAE723689343AA
:105D0000304A23601300A1681142FCD10222E16BEA
:105D10000A43E263A2681A42FCD11037BF00E719B8
:105D20007D60A2681A42FCD1274A2264A2681A4206
:105D3000FCD1022221680A432260A2681A42FCD1E7
:105D400087E7022E07D90C37ADB27F003D53E37BC6
:105D5000DB09FCD17DE70223627913436371194BA0
:105D60001A00A1681942FCD11C37BF003D51A3683D
:105D70001342FCD1022321790B432371A368134200
:105D8000FCD166E70121200000F020F829683A00E4
:105D9000009800F08FF801997F2800D90121200098
:105DA00000F044F855E7C046D4E600000048004241
:105DB0006C01002050010020580E00206CE800000B
:105DC000000C0040FF0F7F00FFFF0000182310B5FC
:105DD00008244343134AD0180457013412D0012435
:105DE0009A5643689C4003290CD808000E49D201FA
:105DF0005218D318403301F097FF0210060B02210E
:105E00001970546010BD0621197054609461F9E74F
:105E10000621197054605461F4E7022119709460EE
:105E2000F0E7C046D4E60000004400411823F0B576
:105E300008245843114A13181C5701341BD001265B
:105E400035005F688356BD400D4ADB019A189068A3
:105E500005420BD10C00601E8441D21940321078EB
:105E600034400336A400B04320431070044A9B180A
:105E7000002901D15D61F0BD9D61FCE7D4E6000021
:105E800000440041182310B508244343074900206B
:105E9000CA181457013408D05B560549DB015B185A
:105EA000186A5368D8400123184010BDD4E600009A
:105EB00000440041914202D002D98A1AD040704772
:105EC000521A9040FBE700001822424370B52D4E55
:105ED0000300B218127A52B2140001320ED0481CDC
:105EE00000240C280AD801F01FFF071F1F1F1F1FC7
:105EF0001F1F1F0B0B0B0B0001246442200070BD01
:105F0000092905D100211800FFF760FF0024F5E7FB
:105F10000A2901D10839F6E700240B29EED10A3904
:105F20001800FFF753FFE9E7182201205343F21846
:105F3000F3565568144ADB016C089B18C9B2284017
:105F40001C1900280ED00F2030342278090102409D
:105F500011434122C9B25B192170403319780A43B9
:105F60001A70D3E722000F26303214785B19B4433D
:105F70002143117041224033197804000A431A70FA
:105F8000BCE7C046D4E6000000440041F7B5070076
:105F90000E000024012501920093019B002B14D1D7
:105FA0002900A140009B380019404B1E9941FFF782
:105FB0003DFF29003000FFF739FF01340021300098
:105FC000FFF734FF082CE8D1F7BD072329001B1B7E
:105FD0009940E7E7F7B506000D000C008B18019318
:105FE000019B671B9C4207D0336821781B683000F7
:105FF000984701340028F3D13800FEBD70B5040085
:1060000008000D0004F0CCFF2368020029005B6843
:106010002000984770BD10B50B1E02D0FFF7EEFFB1
:106020000300180010BD000010B50249FFF7E6FF9D
:1060300010BDC0467CE8000070B50400FFF7EBFF20
:1060400005002000FFF7F0FF401970BD014B1860FC
:106050007047C046700100200122024B52421A6074
:106060007047C04670010020164A10B51368591CCD
:1060700026D0013B1360002B22D172B6124B134A7B
:106080000433934213D9124A01211000147D0C42AB
:10609000FCD02021148BFF319B085B00214311832E
:1060A000D3610C4B13800123027D1A42FCD0BFF355
:1060B0004F8F094B094ADA60BFF34F8FC046FDE7A7
:1060C00010BDC04670010020002000000302000047
:1060D0000040004102A5FFFF00ED00E00400FA05CA
:1060E00010007047016070479446F0B59E1E721E06
:1060F00096416246056892072F6836063A43324356
:106100002A60072505AC24780068A40129402143B2
:1061100042680024022B00D05C03114321434160FC
:10612000F0BD30B5C0250368AD031C6812052A40D8
:106130002243C0240904A4022140114319600368CA
:106140005A6814435C6030BD0123026811680B4338
:10615000136003681A68D207FCD4DA69D207F9D44D
:1061600070470223026811680B4313600268D36909
:106170009B07FCD4704703681A7ED20702D41A7EAC
:106180009207FCD57047002203685A837047036862
:10619000187E4007C00F70470368187EC00970471B
:1061A000802302685B42117E0B43137670470368BD
:1061B000588B8007C00F704702230268518B0B4336
:1061C000538370470368187EC007C00F7047036889
:1061D000188DC0B2704703681A7ED207FCD589B209
:1061E000012019857047012203689A7570470122C2
:1061F00003681A7570470123026811680B43136026
:1062000003681A68D207FCD4DA69D207F9D4704758
:106210000223026811680B4313600268D3699B076D
:10622000FCD470470368DA699207FCD402211A682B
:106230008A431A607047036818684000C00F7047AF
:106240000268936A5B0A5B021943916203681A7ED3
:106250005207FCD5986AC0B27047000010B54900DB
:10626000044801F06BFD80B2002801D0013880B2F3
:10627000C0B210BD006CDC0270B54B080C000121EF
:1062800005680B400C402E6824075B07234333430B
:106290002B6011000468FFF7E1FF207370BD000060
:1062A0000368104A934213D00F4A934212D00F4A08
:1062B000934211D00E4A934210D00E4A93420FD00F
:1062C00001200D4A4042934201D1063040B270474E
:1062D0000020FBE70120F9E70220F7E70320F5E7BC
:1062E0000420F3E700080042000C004200100042C6
:1062F0000014004200180042001C0042F8B5FFF7ED
:10630000CFFF00282CDBC3001C48FF22C018052348
:106310000479C35603201840C0008240C021D243F4
:106320008140002B1DDB1F2501201D40C026A840F9
:10633000134D7600A851C0269B089B005B19B60040
:106340009F593A401143995128603F2323408024AC
:10635000E4011C430B4B5C805A7852B2002AFBDBF1
:10636000F8BD0F200340083B07489B089B001B1803
:10637000D86902401143D961E7E7C04680E80000D0
:1063800000E100E0000C004000ED00E0F8B5040082
:106390000F0016001D00FFF7B1FF2000FFF7D4FE2D
:1063A0001C21BB000B4071072268090C0B431360D2
:1063B000842322689375012F1AD11021012E00D059
:1063C00008390C4B69431868C00001F0B7FC07227C
:1063D000216802408B895203DB04DB0C13438B8161
:1063E000226803049089DB0C400B40031843908122
:1063F000F8BDC04668010020F7B50400019308AB62
:106400000D0016001F78FFF7F6FE2000FFF776FF5D
:10641000C0223605920332400C261643C0222D04BA
:1064200092021540072223683543BF072F431F60A0
:10643000019B216813401A0080239B0213434B6089
:106440002268D3695B07FCD4F7BD3F20704713B5C2
:106450006B460268D9710733546819000122A047BE
:1064600016BD000010B50221006900F089FD034B44
:106470001B6801335A1E9341181810BDC401002037
:1064800010B50321006900F091FD10BD10B5032186
:10649000006900F059FD10BD10B5054C23685A1C69
:1064A00004D103685B69984703002060180010BDA1
:1064B000C4010020074B0200186810B5411C03D02E
:1064C000012252421A6010BD0221106900F058FEEC
:1064D000F9E7C046C401002010B51300094A0400C2
:1064E000D079C0B2002805D1627E002A02D00123F3
:1064F000636006E00A002069032100F04FFE0028D7
:10650000F5D010BD7801002010B503784222023387
:1065100003700249024800F0EDFE10BD800100202A
:10652000880E002010B50178020043780020A129D0
:1065300008D1212B05D107221649174800F0DAFEB1
:10654000012010BD2129FCD1202B13D10722114994
:10655000114800F06FFD96220E4BD200196891424F
:106560000ED10124D87904400AD1FA20FFF76EFD3C
:106570000020E6E7222B06D19278064BDA71EAE793
:10658000FFF76AFDF4E7232BDBD15288034B1A6037
:10659000D7E7C04678010020880E00207401002053
:1065A000FA220021054B92009A60054A5960083290
:1065B0001A60044A19761A617047C046600E0020BE
:1065C000B0E80000880E002070B50E000025446879
:1065D000002C0BD0236831005B682000984700280E
:1065E00002DB2D18E468F3E701256D42280070BD39
:1065F00070B50D004468002C08D0236829009B6802
:1066000020009847002802D1E468F4E7200070BD1C
:1066100070B50D004468002C08D0236829001B6861
:1066200020009847002802D1E468F4E7200070BDFC
:1066300070B50D004468002C08D023682900DB6881
:1066400020009847002802D1E468F4E7200070BDDC
:10665000F0B58C79457803002A190020072A1FDC41
:106660005A68824216D159601A78C8790A7112188C
:106670004D711A7000220B4DD0B284420FD98F6831
:1066800058789600F75986000130775101325870DA
:10669000F2E70200D0680028FBD1D160E4E70120D6
:1066A000F0BDC046C80100200121054A10B513689D
:1066B00004480B4003D1044C43600480116010BDBA
:1066C0007C0E0020800E00200204000070477047FE
:1066D00070B50F26CB1D013902003240D5B22C0017
:1066E00000093034092A00DD07341C70013B8B425D
:1066F000F2D170BDA02110B50400490001F010FBDB
:10670000200010BDF8B5032908D1304B8000C058D7
:10671000002802D003689B689847F8BD822919D1E8
:10672000C3B22B4D5A01AA1891692A4C80010C4022
:10673000C021890521439161274908334018702100
:10674000506128685B011A5C8A43110030220A43B9
:106750001A54E2E70029E0D1C026C1B21C4C4B011B
:10676000E3189A681B4DB6052A4032439A601B4ACB
:10677000800182185A600A000727246808325201F3
:10678000115DB9430F000121394311559F69124929
:106790003D4040182E439E6158617020115D814339
:1067A000080010210143115599680D48A2180840AE
:1067B00080214903014399609968890B8903996095
:1067C000402311790B431371A7E7C0468C0E0020BC
:1067D00040130020FFFFFF8FB40E00207410002034
:1067E000FF3F00F0EFF3108303600123436072B6B4
:1067F00070470368002B02D162B6BFF36F8F7047FA
:10680000F7B50500FC35EB690600002B18D196277B
:106810007F00C45D6846FFF7E5FF019BE4B2013BE2
:1068200002D3F45DE4B2FAE768460193FFF7E1FFB3
:10683000002C01D10020FEBDE86AAB6AC01AFAE75D
:106840006846FFF7CFFF9E220024019B5200013BC8
:1068500002D3B45CE4B2FAE768460193FFF7C9FFDC
:10686000002CE7D0E86BAB6BE8E7000030B544687C
:10687000FC3043698069DBB25A01A2189168094D66
:106880008004294000090143916091680833890B15
:106890008903916022685B01D318402219790A4369
:1068A0001A7130BDFF3F00F0F7B50500FF21FC3540
:1068B0006A6943680A401B68083252019A18D37902
:1068C0000400DB0754D50126D6716B6962680B4062
:1068D0005B01D318286A9A689204920C002822D18E
:1068E000EA62EA6A002A40D06A6B2E6268465A6001
:1068F000FFF778FF9E273E21019B7F00013BFF3180
:106900005A1C2ED096225200A654E25D581ED2B2D6
:10691000002A05D0665468460193FFF76AFFF7BD69
:1069200062540300ECE7EA63EA6B002A1DD0002200
:106930002A626A6A68465A60FFF754FF96273E212A
:10694000019B7F00013BFF315A1C0AD09E2252005E
:10695000A654E25D581ED2B2002ADBD16254030075
:10696000F2E768460193FFF744FF2000FFF77EFF40
:1069700063681A686B69DBB208335B01D3187F2246
:10698000DA71CCE7F7B5070068463C00FFF72AFF4D
:106990000026FF22019BFC34013B0DD3E0682169F6
:1069A000884204DBE6682069961B3618F4E72669FE
:1069B000E168761A013EEFE768460193FFF719FF99
:1069C000E3696846002B52D1FFF70CFF9621019B2B
:1069D0004900013B5A1C0CD07D5C5A1EEDB2002DC3
:1069E00005D168460193FFF704FF2800FEBD1300A0
:1069F000F0E7684601930025FFF7FBFEFF21A36A3D
:106A0000B54214D0E26A9A4211D95A1CA262626A53
:106A1000D3181878E36822690133C0B20B4093425F
:106A200003D0E268BA181072E3600135E7E7E26A62
:106A30009A42DAD10023A3620133E36168469624C7
:106A4000FFF7D0FE64003E220021019BFF32013B94
:106A5000581CC6D03955B85C5E1E002805D0B95404
:106A600038000193FFF702FFEDE73300F0E7FFF78F
:106A7000B9FE9E21019B4900013B5A1C06D07D5C5A
:106A80005A1EEDB2002DACD01300F6E76846019314
:106A90000025FFF7AEFEFF21A36BB54202D0E26BEB
:106AA0009A421DD8E26B9A429FD100236846A363A5
:106AB000E3619E24FFF796FE64003E220021019BC5
:106AC000FF32013B581C00D18BE73955B85C5E1E84
:106AD000002817D0B95438000193FFF7C7FEECE740
:106AE0005A1CA263626BD3181878E36822690133D9
:106AF000C0B20B40934203D0E268BA181072E36050
:106B00000135C9E73300DDE710B50400FFF73AFFB0
:106B10002300FC331969DA68914203D01B69E41839
:106B2000207A10BD01204042FBE710B50400FC3480
:106B3000FFF728FFE0682369C01A01D50130FF3054
:106B400010BDF0B585B0019200910500FFF71AFF66
:106B500002A8FFF747FE01200024FF26039B4042C6
:106B60005A1E531C1FD02B00FC3301998C4218D2A3
:106B7000D9681F69C91B01D50131FF31002910D027
:106B80001969DF688C460100BC4506D019691F6988
:106B9000691801373740097A1F61009F3955013460
:106BA000E3E7013ADDE702A80392FFF722FE2000A7
:106BB00005B0F0BD37B56B46DC1D00230D0020008D
:106BC0002370FFF7A1FC2B6818182860FFF76CFDF5
:106BD0002100FFF7F9FC2B681818286020783EBDCB
:106BE00002220B0010B593430C00012B0BD10D4B6F
:106BF00008341B6864011C19802321795B420B4314
:106C00002371E27110BDFFF74FFD2100FFF710FD6A
:106C10000028F7D0034B08341B6864011C197F233C
:106C2000E371EFE74013002070B50024374B0121DA
:106C300005000B201C70FFF7C9F801210B20FFF79E
:106C4000F5F8334B01210C201C70FFF7BFF8012130
:106C50000C20FFF7EBF820232E4A0F20D1690B43BD
:106C6000D36101222C490B7813430B702B4B1978FD
:106C70008143197006211C782143197028490C782A
:106C800022430A701A7802401A70602219780A4367
:106C90001A70244B244A5A805A78D209FCD12348CE
:106CA000FEF7E8FD224C7F26200000F0F1FF2000D7
:106CB00001F006F80C2108232068C2788A431343A8
:106CC0000322C3702068C3789343013A1343C3700F
:106CD0002068037833400370042320680678334328
:106CE0000370206803898B430381C1201149800010
:106CF0000B581B021B0A0B5080230B60236819786A
:106D00000A431A7001232B7070BDC046A90E0020E3
:106D1000A80E002000040040584400413C440041BB
:106D200059440041000C0040064000006577000017
:106D30004013002000E100E00078002810D001217D
:106D4000084B1B681A898A431A810822198B0A4347
:106D50001A830422198B0A431A830022024B1A60F9
:106D60007047C046401300203813002010B50F4A6A
:106D700093699B0B9B03936113680222FF331A7282
:106D80009879823A02439A711A7A9207FCD57F2445
:106D9000074A2140937A0800A34319008023014346
:106DA0009172917A5B420B43937210BD40130020A5
:106DB0000050004110B50B790C00002B0CD10800DD
:106DC000FFF7B0FB002801D0012010BD094A9369EC
:106DD0009B0B9B039361F7E7FFF766FC2100FFF72E
:106DE00017FC0028F0D1034A93699B0B9B03936126
:106DF000EBE7C04640130020F8B50D00832A19D1F7
:106E0000CBB2434C5A01A21891694248AD010840E7
:106E1000C0218905014391613F4920686D187021A7
:106E2000083355615B011A5C8A43110040220A4312
:106E30001A54F8BD022A65D1384B8A00D058002870
:106E400002D003689B699847A020400000F0FAFE3A
:106E500080270600324B7F0003602D4B00214360EA
:106E60003A00083003F014F8340096220023FC3472
:106E70005200E360A36223616561E361A76123625D
:106E8000E362B3541032A363E363B3543E22380089
:106E9000FF32B35402F0BAFF6062380002F0B6FF6E
:106EA0002B006063FF201A4903405A018A18916839
:106EB000184F08330F40C0218905394307279160D7
:106EC000134A5B011168AD005A5CBA4317000322F4
:106ED0003A435A5461697368014049015918636A19
:106EE0004B60736862691B68024052019B18012263
:106EF0001B18997A30000A439A72FFF7B7FC074BC8
:106F0000EE5096E711002800FFF7FCFB91E7C04622
:106F100040130020FFFFFF8FB40E00208C0E0020D6
:106F2000E0E8000070B505000124064BA200D2582D
:106F3000002A06D0210028000134FFF75DFF0A2C4B
:106F4000F3D170BDC80100200B4BCAB20B488901B8
:106F5000C9185301C318596199690832890B89030B
:106F60009961036852019A180223D3715179823BC7
:106F70000B4353717047C046B40E002040130020ED
:106F8000084B8A00D05810B5002803D00368DB688E
:106F9000984710BDC9B2044B49015918886880044C
:106FA000800CF6E78C0E00204013002010B50C007A
:106FB000FFF7E6FF00280CD0064BE4B21B6808344C
:106FC00064011C19802362795B42134363710223BD
:106FD000E37110BD4013002070B5CBB2124A1348C4
:106FE0005C0189018918021951609168104D0833BC
:106FF0000D40802189022943402591609168890BC9
:107000008903916001685A018A1816793543157110
:1070100095796D06FCD55B01C918CB79DB07FCD5EA
:1070200000198068C0B270BD7410002040130020A9
:10703000FF3F00F070B5140040220B4B0D001B68A1
:10704000FF3359790A435A710021FFF7C5FFA04267
:1070500000D9200000230549A34203D0CA5CEA54AA
:107060000133F9E770BDC0464013002074100020C2
:1070700010B5C9B20B484901421893689B049B0C98
:107080003F2B0BD99468403B9B04A40B9B0CA4039F
:107090002343936041188868C0B210BD93689B0B6E
:1070A0009B03F6E740130020F0B51C002F4B85B082
:1070B0001B6806000D000192002B54D02C4F39782C
:1070C000C9B2002902D10C20FEF7B0FE64233B7048
:1070D000284BAA00D058002808D0036822005B681B
:1070E000019998470400200005B0F0BD2900300048
:1070F000FFF746FF844204D929003000FFF740FF24
:10710000040029003000FFF7B3FF0121EBB21A4F52
:1071100003935B010293029A3B6801989B18FF332B
:107120005A7A0A435A72154BA901C918220002F073
:1071300093FE002CD7D029003000FFF721FF002854
:10714000D1D14021039B3A6808335B01D3181879E9
:10715000014319710121D971029BD318FF339A7A27
:107160000A439A72BFE701246442BCE73813002047
:10717000A80E00208C0E0020401300207410002068
:1071800013B56B46DC1D22000123FFF78DFF01289C
:1071900001D1207816BD01204042FBE7F0B51E006A
:1071A0003A4B85B01B680F000192002B3FD0802323
:1071B000DB019E423BD8364C2178C9B2002902D16E
:1071C0000B20FEF733FE642300252370314BBA01F8
:1071D000D3180293002E2CD02F4B1B680393FF2350
:1071E0003B401C0000930834039B64011C19A379E5
:1071F000DB0921D0294B2A49186800F09FFD294B53
:107200001721584300F09AFD274BE279920713D4D7
:10721000DA5D002A01D10138F7D20122DA55009B4C
:107220005A011D4B9B189A69920B92039A61012592
:107230006D42280005B0F0BD00221B4B3400DA552A
:10724000402E00D9402422000199029802F004FE49
:10725000009BA1045A01104B890C9B18029A2D190E
:107260005A619A69361B920B92030A439A61009BFA
:10727000039A08335B01D3180222DA715979823AF2
:107280000A435A71019B1B190193A3E7381300208D
:10729000A90E0020B40E0020401300206801002039
:1072A00040420F0070110100AB0E002070B50D00C0
:1072B0001C000D4BAE01F61811003000220002F048
:1072C000CBFDEDB209496D014D196E61AB69084AFC
:1072D00020001340AB61AB69A2049B0B920C9B0393
:1072E0001343AB6170BDC046B40E002040130020B4
:1072F000FF3F00F0F7B5104B01901B780F00150011
:10730000002B0CD10D4B16001C78002C09D00C4E14
:107310000C4834882018641902F09EFD348028003F
:10732000FEBD002EFBD03A19330000210198FFF773
:10733000BDFF2418361AF4E734120020351300205C
:107340003613002035120020F8B5002000AF0E00E3
:107350001500012A27D9D31D6A46DB08DB00D31AA2
:107360009D46080003F01CFE6C4603230222002108
:107370000130400020706370AA420DD2307800289E
:107380000AD0531CDBB20136A0549D4203D0023216
:10739000E154D2B2F0E72A0021000448FFF7AAFF27
:1073A000431E9841C0B2BD46F8BDC046880E0020BD
:1073B000F0B50024012685B0184B0F0069461E70F9
:1073C00005000094FFF7F6FB154B01A90B806A3B03
:1073D000FF3BCB716E3B0B72009B8C7109334B8072
:1073E0000E4B4E7108711C703A00092F0FD00D4FD3
:1073F00009223E700C4E280000943480FFF77AFF7B
:1074000069462800FFF7D6FB328808493C702800FF
:10741000FFF770FF012005B0F0BDC0463412002018
:107420000902000035130020361300203512002019
:10743000F0B5CF7893B005000E00022F09D1C988AE
:107440002D48FFF7B5FF441EA041C4B2200013B081
:10745000F0BDFFF729F93100FFF7CAF8002803D083
:10746000C417241AE40FF1E7012F0FD1F288082A7C
:107470000AD02249112A13D8D2B2002A10D02800EB
:10748000FFF738FF0124E1E71D49F5E70400032F6A
:10749000DCD1B378002B05D1F2881A49032AEBD945
:1074A0000A78ECE7022B06D1B27917492800FFF7DA
:1074B0004BFF0400CAE7012B02D1B2791349F5E76B
:1074C000032BC3D1124B01A91868FFF701F9114B27
:1074D00003A91868FFF7FCF80F4B05A91868FFF718
:1074E000F7F80E4B07A91868FFF7F2F86B4605335B
:1074F000DC77B27901A9D9E7880E002018E90000ED
:107500002AE900000EE9000000E9000012E900008D
:107510000CA0800040A0800044A0800048A0800013
:1075200037B5040048780D000B2810D800F0FCFB9C
:10753000061B0F2B0F40456D494C6669097801AA5F
:10754000002906D1022311802000FFF7AFFE0120A1
:107550003EBD002313802E4B1B78012B00D11370EE
:1075600002230021F0E78A780023012A03D101AA2F
:107570001380284BF0E7264A1370274A93699B0B28
:107580009B039361E3E78D78012D06D10021214B08
:1075900001AA1D7011702B00D6E70120002DD7D154
:1075A0001B4B1D4A187093699B0B9B039361CFE79C
:1075B00089782000FFF7DAFBC9E72000FFF738FFE2
:1075C000C6E70123154ACCE70B780020DB06BFD1C4
:1075D0002000FFF7A7FC2A20AA78104BFF301A6082
:1075E00002230D4A11680C5C23434A240B54FF34D8
:1075F0000B5D2938FF3803430B55D4E70123084AB4
:10760000AFE78A78064B1A60B7E70020A0E7C046CC
:10761000AA0E0020B20E00204013002038130020D4
:107620003C130020474BF7B51C780600002C7CD19A
:10763000454D2B689B8B1B070ED521002000FFF7C3
:1076400061F82A6810231100FF31887A03438B7296
:107650003E4B1C60082393832B689A8B52071FD5DF
:1076600004229A833A4A1378002B0AD01378013BFC
:10767000DBB213701378002B03D101210B20FEF72E
:10768000D5FB344A1378002B0AD01378013BDBB2C8
:1076900013701378002B03D101210C20FEF7C6FBD9
:1076A0002B68FF331A7AD2061ED510221A72597926
:1076B00030320A435A716023274930000A781A424F
:1076C00034D1FFF72DFF2B68FF33002831D0802203
:1076D000997952420A439A711A7A520604D5402285
:1076E0001A72597A0A435A72012427002B681B8C9C
:1076F000A343DBB20193019B23413B4212D0230001
:107700002A6808335B01D318DA79D20702D4DB790F
:107710009B0707D5114BA200D05800280DD0036855
:107720001B6898470134082CE5D1F7BDFFF742FBF1
:10773000C9E720210A4A9171CEE7E1B23000FFF794
:107740004FFAEFE7351300204013002038130020D4
:10775000A90E0020A80E0020741000208C0E00201E
:10776000FF50004110B50248FFF75CFF10BDC04656
:10777000880E0020014B024A1A6070474013002017
:10778000005000410120704710B50368014A1B6A90
:10779000984710BD130400000300FC33D9699A69AF
:1077A000914203D0DB69C018007D70470120404240
:1077B000FBE710B504000069FEF7C6FC22000023B9
:1077C000FC329361D36186229200A4186360A360A7
:1077D00010BDF02001403039484248417047F02345
:1077E0001B011940802306209B0099420AD00133D7
:1077F000FF330130994205D0802302385B00994263
:1078000000D0002070470F2001400020012903D044
:107810000239481E8141481C704700008923F0B599
:10782000182685B002919B000400C05C330008213B
:107830004343324D1700EB185956FEF745FB304BCA
:107840000821E05C33004343EB185956FEF73CFB3C
:107850002C4BE25C0393022A09D11133E05CFF2830
:1078600005D008214643AE197156FEF72DFB8A2636
:10787000B600A05DFF2819D00121FEF7A7FA182253
:10788000A35D21495A43AB56AD18DB0158188B2133
:10789000890060501D4901225B188C2189006350CA
:1078A00069688A408D21890062501A600122029B1A
:1078B00011002069FEF76AFD39002000FFF78FFFF5
:1078C000390005002000FFF79EFF39000600200068
:1078D000FFF77FFF33000090290020690122FEF7A7
:1078E00003FC0B4B2069E25C039BE15CFEF719FC97
:1078F0002069FEF736FC05B0F0BDC046D4E60000B6
:1079000025020000270200001844004114440041F1
:1079100026020000802210B504005200002102F06F
:10792000B7FA23000022FC335A6020009A6010BD91
:10793000F7B51D0008AB1B780400009309AB1B785A
:107940001600019300234360FA239B008360114BD0
:107950000F00083303601430FFF7DCFF20001D30F8
:10796000FF30FFF7D7FF89236A469B002761E65463
:10797000094B1278E554094B2000E2546A46084B43
:107980001279E2548A22293BFF3B9200A354103221
:10799000A354FEBD3CE900002502000026020000C1
:1079A000270200000300FC3359689A68914204DB07
:1079B0005A689868801AFF30704798685B68C01AE8
:1079C0000138F9E710B51D30FF30FFF7EBFF10BDB0
:1079D000030070B5FC33D9699A69040091421AD04A
:1079E000DA698218157DDA690132D2B2DA618A2346
:1079F0009B00E35CFF2B0CD020001430FFF7D2FF7C
:107A00000A2806DD8C238D229B009200E358A258A1
:107A10001A60280070BD01256D42E8E70300FC33C1
:107A200058689B68C01A01D50130FF30704710B507
:107A3000040020001D30FF30FFF7F0FF0028F8D1D0
:107A40002069FEF798FB10BD10B51430FFF7E6FF74
:107A500010BD10B504000069FEF7A9FB002805D091
:107A60002069FEF7B4FB2069FEF7A6FB2069FEF74C
:107A70008EFB002820D02069FEF7A9FB2200FC32F3
:107A80009369D1690133DBB28B4203D091696118EC
:107A9000087593618A239B00E35CFF2B0CD02000C8
:107AA0001430FFF77FFF092806DC8B238D229B0013
:107AB0009200E358A2581A602069FEF783FB002861
:107AC0001AD020001D30FF30FFF7A8FF002822D079
:107AD00086239B00E31899685A68914218D08E213A
