:1020000000800020D1680000B9680000B9680000B5
:1020100000000000000000000000000000000000C0
:10202000000000000000000000000000B96800008F
:102030000000000000000000B968000025690000F1
:10204000B9680000B9680000B9680000B96800000C
:10205000B9680000B9680000C5350000BD6800001F
:10206000B9680000B9680000B9680000B9680000EC
:10207000B968000019530000B9680000B968000091
:10208000B9680000B9680000B9680000B9680000CC
:1020900000000000B9680000B9680000B9680000DD
:1020A000B9680000B9680000B9680000B9680000AC
:1020B0000000000010B5064C2378002B07D1054B1B
:1020C000002B02D0044800E000BF0123237010BDA4
:1020D000E003002000000000D4FD0000044B10B518
:1020E000002B03D00349044800E000BF10BDC046E8
:1020F00000000000E4030020D4FD0000F0B589B02A
:1021000002924B4B00220090019107F017F8002833
:102110000AD1009801990022002306F0FBFF002855
:1021200006D00023002401E00023414C00930194D9
:1021300068250024029B3F4F5D4300980199661C6F
:10214000F3005B19DB191A685B6806F0E3FF0028EF
:1021500001D0E4B202E034000B2EEED105263C257E
:10216000029B66435D43344FAB195B00D85B08F0BC
:1021700083FD0D23029A05365A43131907922D4AFF
:10218000DB00D3181A685B68029203930A23A34208
:102190009B415B42F61AAD196D0004900591E85B16
:1021A00008F06AFD049A059B08F092F9079B013438
:1021B0001C19204BE4001C190600029A039B0F0017
:1021C0002068616808F084F902000B0030003900D3
:1021D00007F002FB029A039B04000D00009801998E
:1021E00008F076F902000B002000290007F0FEFE3F
:1021F000049A059B06F0D4FF0022002304000D0082
:1022000006F0A6FF00220D4B00280CD0200029006C
:1022100006F0C6FF08F0C0FC08F0F4FC06F0A2FFD0
:1022200080B209B0F0BD2000290008F051F9F1E7B3
:102230000000144000000020FC0300200000E03FEC
:10224000F7B500252D4B01930024022D2DD0200041
:1022500008F0D8FC00222A4B07F0C8FE294A2A4B76
:1022600007F0BAFA0022002306000F0006F070FF04
:102270000022264B002813D03000390006F090FFD2
:1022800008F08AFC019A630080B20134D0523C2CE1
:10229000DDD1019B013578330193032DD4D1F7BDF6
:1022A0003000390008F014F9EAE7200008F0AAFC31
:1022B0000022174B07F09AFE124A134B07F08CFAD4
:1022C0000022002306000F0006F042FF00220F4B01
:1022D00000280ED03000390006F062FF08F05CFCE8
:1022E0006300064A80B2F0330134D0523C2CDCD17A
:1022F000CFE73000390008F0EBF8EFE7FC030020EF
:10230000007CA1405C8FC2F5289C4D400000E03F5E
:1023100000BEA6400020002170B50B4C0B4D206084
:10232000616000200A49A060E160F134FF34286850
:102330006968084A084B07F059FE0835286069604B
:10234000A542F4D170BDC04670050020780500207C
:102350000000B03F6379D9928FF3F03FF8B50820C1
:1023600006F0D0FC0125040000260422057000219F
:10237000023008F0F3FD134B1348A380A671E671F9
:1023800001F01AF8114F290020783C6004F07EFD1E
:102390002900207804F0AAFD80223B685201598868
:1023A0009D71114359809988DD710A439A802900F3
:1023B000300004F06BFD0A2004F03EFCFFF7AAFF9A
:1023C000F8BDC0460080FFFF780C00206C0500209F
:1023D00007B5064B064A00930023190006F05AFC85
:1023E0000100002004F072FC07BDC046FF0300009E
:1023F000FF0F0000F8B55D240500A14204D80C1CB5
:10240000212900D22124E4B20F4B188808F034FCB3
:1024100000220E4B08F05CF800220D4B07F0E6FDA1
:102420000600200021380F0008F0ECFB0022094BC9
:1024300007F0D2F90B0002003900300006F0B0FEC0
:102440002A00FFF75BFEF8BD380100200000C04005
:102450000000203F000028404823D0B504009942E6
:1024600004D80B1C092900D20923DBB2114A093B0D
:10247000DB00D3181E685F680F4B188808F0FCFB60
:1024800000220E4B08F024F800220D4B07F0AEFDA1
:102490000B0080210200C905002002F085FF0B001F
:1024A00002003900300007F0A1FD2200FFF726FEF0
:1024B000D0BDC04670050020380100200000C0409B
:1024C0000000203F73B500266B460400144D5E717A
:1024D0001E711449019A280000F096FFA379B342B7
:1024E0000BD02078310004F001FD6188280000F055
:1024F000C0FF2078012104F0F9FCE379002B0BD018
:102500002078002104F0F2FCA188280000F0B1FF3F
:102510002078012104F0EAFC280000F091FF73BD4F
:10252000780C0020808D5B000230520082181388E6
:1025300010B5054C1B0B1B03081CA14200D9201C25
:102540000343138010BDC046FF0F000010B5064BBB
:10255000064C186081B200222068FFF7E5FF206872
:10256000FFF7B0FF10BDC046640500206C050020D9
:1025700010B5064B064C186081B201222068FFF7A7
:10258000D3FF2068FFF79EFF10BDC04668050020FE
:102590006C05002010B504000C4BC0001B185960DE
:1025A0002000002A06D0FFF725FF002C05D1FFF7F9
:1025B000CDFF10BDFFF750FFF7E7012C02D1FFF769
:1025C000D7FFF6E7FFF704FFF3E7C04694070020C4
:1025D0000722084B10B51C68C3081040063A824019
:1025E000E418E378D2B2002902D01343E37010BD9F
:1025F0009343FBE78807002010B5040004F0A0F91E
:10260000044BA2000A30D05001212000FFF7E0FF68
:1026100010BDC0466807002010B50400C378012231
:102620000178407804F012FDA078012104F05EFCEE
:10263000A078002104F05AFC10BD0000F8B5042079
:1026400006F060FB0327022604250400077046708D
:1026500085700121380004F019FC3000012104F0DC
:1026600015FC2800012104F011FC3800002104F0C1
:102670003DFC3000002104F039FC2800002104F06A
:1026800035FC00232000E370FFF7C6FF014B1C6000
:10269000F8BDC0468807002010B5024B1868FFF748
:1026A000BBFF10BD88070020F8B504F049F90024ED
:1026B0000700094DA6007359002B07D0BB4205D275
:1026C000E0B20021FFF784FF002373510134082C8E
:1026D000EFD1FFF7E1FFF8BD6807002010B5002B30
:1026E00003D001220020FFF755FF10BD10B5002BCD
:1026F00003D001221000FFF74DFF10BD10B5002BD5
:1027000003D001220220FFF745FF10BDF8B50D00F0
:102710001E0001240C273B0063430E4AD3181A0005
:102720000C3A1268002A0ED11A1F1268AA420AD166
:10273000601E083BC0B21968002E08D04B425941B8
:10274000C9B2FFF745FF0134092CE4D1F8BD4B1E97
:102750009941F5E7AC070020F8B50D0016000124FB
:102760000C273A0062430F4B9B181A000C3A126870
:102770000D2A0AD1002E0CD0083B19684B42594152
:10278000601EC9B2C0B2FFF723FF0134092CE8D1A3
:10279000F8BD054A5268AA42F7D1083B19684B1E9A
:1027A0009941EDE7AC07002094070020704770477F
:1027B00070470000F8B50D00160000240C27390002
:1027C0006143104BCA58132A0CD1072D0ED15B1848
:1027D000E0B259683F2E12D94B425941C9B2FFF7B6
:1027E000F7FE03E0142A05D10A2DF0D00134082C9D
:1027F000E5D1F8BD152AF9D10B2DF7D1E7E74B1E2E
:102800009941EBE7AC07002070B5744C03212368B5
:10281000581C206006F078FB00290DD10D000C2615
:1028200032006A436E4BD358012B02D1E8B2FFF756
:10283000E3FE0135082DF3D10621206806F064FB84
:1028400000290DD10D000C2632006A43644BD35889
:10285000022B02D1E8B2FFF7CFFE0135082DF3D1EC
:102860000C21206806F050FB00290DD10D000C262C
:1028700032006A435A4BD358032B02D1E8B2FFF718
:10288000BBFE0135082DF3D11821206806F03CFB72
:1028900000290DD10D000C2632006A43504BD3584D
:1028A000042B02D1E8B2FFF7A7FE0135082DF3D1C2
:1028B0003021206806F028FB00290DD10D000C26E0
:1028C00032006A43464BD358052B02D1E8B2FFF7DA
:1028D00093FE0135082DF3D16021206806F014FB2A
:1028E00000290DD10D000C2632006A433C4BD35811
:1028F000062B02D1E8B2FFF77FFE0135082DF3D198
:10290000C021206806F000FB00290DD10D000C2627
:1029100032006A43324BD358072B02D1E8B2FFF79B
:102920006BFE0135082DF3D1C0212068490006F067
:10293000EBFA00290DD10D000C2632006A43284B1A
:10294000D358082B02D1E8B2FFF756FE0135082D07
:10295000F3D1244B1B78002B3FD0234B20681B68FE
:10296000C01A3AD0182106F0CFFA002935D11F4DF0
:102970002B685C1C03232C601C400CD10C263200FD
:102980006243174BD358092B02D1E0B2FFF734FE54
:102990000134082CF3D10F242B681C400CD10C26D9
:1029A000320062430E4BD3580A2B02D1E0B2FFF73C
:1029B00023FE0134082CF3D11F232C681C400CD1BA
:1029C0000C252A006243064BD3580B2B02D1E0B2F0
:1029D000FFF712FE0134082CF3D170BD90070020E0
:1029E000AC070020100800200C0800208C070020F5
:1029F000831DDBB270B50500012B1ED81D4B1A6874
:102A00001D4B1A6000221D4B1A601D4B01321A70BB
:102A100001240C26320062431A4B9B181A000C3A10
:102A200012680C2A1DD1FA2D03D3FB2D0AD9FC2DD7
:102A300012D00134092CEDD170BDFC28E8D1104B27
:102A40000022E4E7083B19684B425941601EC9B2B5
:102A5000C0B2FFF7BDFDECE7083B19684B1E99417A
:102A6000F4E7093A022AE4D8601EC0B2FFF7C4FDB9
:102A7000DFE7C046900700200C0800208C070020EC
:102A800010080020AC07002010B50E4C2378002B56
:102A900005D063680122D9B20020FFF77BFD237ABD
:102AA000002B05D00122E3681000D9B2FFF772FDB8
:102AB000237C002B05D061690122C9B20220FFF7F7
:102AC00069FD10BD940700200D220221164B1A60EB
:102AD00053329A600022D9605F3159615E39996141
:102AE0005F3119625E3959625F31D9625E391963AB
:102AF0005F3199635E39D9635F3159645E39996496
:102B00005F3119655E3959655F311A615A60DA6162
:102B10009A625A631A64DA649A65D965034B013282
:102B20001A701A721A747047AC07002094070020BC
:102B3000F8B50D001E0004001700FFF7CFFD3300AD
:102B40003A0029002000FFF7D1FD33003A002900A8
:102B50002000FFF7D3FD320029002000FFF7FCFD25
:102B600033003A0029002000FFF7D0FDF8BD70B512
:102B70000D0016000400FFF719FE320029002000A6
:102B8000FFF715FE320029002000FFF711FE32008A
:102B900029002000FFF70EFE70BD000010B50B4AA3
:102BA0009AB00400FA2803D0094AFB2800D0094A49
:102BB000094901A809F032FA01A9084804F09CFA71
:102BC0002000FFF715FF1AB010BDC046D8F5000071
:102BD00025F5000020F500002EF50000780D0020FE
:102BE00070B5214D040029680D2004F07FF92B6891
:102BF000013B5A1E93412B60002C18D00F232278E2
:102C000013401209083A1000062A0ED806F0ECF814
:102C100010040D170D0D20007F20A278617802406E
:102C20000140581C0123FFF783FFFFF735FD70BDFE
:102C30007F22581C0023617811401A00F3E77F209F
:102C4000A278617802400140581CFFF790FFECE742
:102C50007F21A27863780A40D2010B401343034AD4
:102C60001380FFF711FFE0E714080020380100206F
:102C700010B5002809D00078F82807D003D3831DA9
:102C8000DBB2022B05D9FFF707FD10BDFFF7BCFD36
:102C9000F9E7FFF783FFF6E770B50C4D0100280058
:102CA00000F094F800280CD0280000F083F8084CBD
:102CB0002060280000F053F8042803D12068FFF7B3
:102CC000D7FF70BD2068FFF78BFFFAE730080020C0
:102CD0004808002070B50C4D0100280000F076F87F
:102CE00000280CD0280000F065F8084C206028006F
:102CF00000F035F8042803D12068FFF7B9FF70BD54
:102D00002068FFF76DFFFAE7180800204808002048
:102D100010B50521034800F057F80521024800F0DE
:102D200053F810BD300800201808002010B50348E3
:102D300000F008F8024800F005F810BD3008002047
:102D400018080020002383808371C3718360C360EF
:102D5000037443748374C374037543757047007DB3
:102D600070470423F72808D8DB18F72805D0F02887
:102D700003D0063BEF2800D8C309180070470000B5
:102D800003000120F72B05D8EF2B04D90E30074A9A
:102D90000340D05C704700205AB28242FADA0448FD
:102DA0001B11C318083B1878F4E7C0463BF5000038
:102DB00043F50000027DC31C042A03D00023082A27
:102DC00000D0030018007047C1747047F8B50400C4
:102DD000002661744BB20D000674C6718779B34248
:102DE0004BDA0800FFF7BDFFE37C03401800421EEA
:102DF0009041C0B22074B7420ED0F62D0CD80122FB
:102E0000E271E268A671A2600026A6746675A680CB
:102E1000B34207D1002004E0F72DF5D90423E57073
:102E20002375F8BDF72D0DD1E368A079A3600823C1
:102E3000002802D02375A671F3E70122A060E27199
:102E40006375EEE7F02D05D10123E660A37107332A
:102E50006375DFE725702800FFF792FF6071013886
:102E6000C0B22071EF2D01D80123F1E70223637571
:102E70000028CFD123750130D3E7002F05D0C368D8
:102E80000133C36001230374C4E7837C002B03D0A8
:102E900043798774013B03712379002BBAD0012059
:102EA0006279D21A013BDBB2A55420742371002B46
:102EB000B0D1637D23758342B3D1A074B1E7000024
:102EC000F8B510240121164D164E2F7830787B1C52
:102ED000B9432B70FFF77CFBFFF7DEFB0122337851
:102EE000174201D09B18DBB22A783370D000C0B2F1
:102EF000022A02D9052A0DD80020D100C9B2D20079
:102F0000D2B200F07FF8013C642003F04FFD002CAA
:102F1000D8D1F8BD00210800082AF0D90A00F0E74E
:102F20004C0800204D080020064B10B51B68002BF4
:102F300004D000F077F8FFF7B7FB10BD00F0A4F85D
:102F4000F9E7C04650080020962110B51D4C8901B4
:102F5000200005F079FC1C49200004F0CDF8012187
:102F60000D2003F093FF00210D2003F0BFFF00F0C0
:102F700033F864221100100000F044F8FFF75EFB04
:102F8000FFF79EFFFFF75CF9FFF79EFDFFF7E6F9FD
:102F9000FFF7BEFE0221052003F078FF052003F0B5
:102FA000D1FF0A4B1860002804D00949200004F022
:102FB000A3F810BD0749200004F09EF800F04AF87D
:102FC000F7E7C046780D00204AF5000050080020C1
:102FD00085F50000A7F5000070B5182005F092FEF9
:102FE000040052230922012100F07EFC044D200040
:102FF0002C6000F00BFB286800F0C3FC70BDC046DD
:103000005408002010B50902054C0A43000402438D
:103010000021206800F07EFC206800F049FB10BD14
:103020005408002010B50A4C200000F06DFE20006E
:1030300000F023FE002806D0200000F038FEC0B2C9
:10304000FFF748FEF3E7200000F0ACFD10BDC046DE
:10305000FC0C002010B5084801F022F8002804D02C
:103060000649074804F048F8FEE7064803F062FC0A
:10307000C82003F09BFC10BD1C090020C7F5000010
:10308000780D002031320000F0B53F4F85B03B781D
:103090003E4E3F4D002B07D13378002B1AD13D48CF
:1030A00001F008F8122815D03A4801F047FC3378AF
:1030B000002B18D1384803F03DFC384B1A780C230C
:1030C0005343ED186B69364A5B019B18FF225A7215
:1030D00005B0F0BD3378002BECD02E4800F0EAFFAD
:1030E0009028E4D0E0E72B4800F0E4FF9028E1D1FD
:1030F000686800F0DFFF9028EAD12A4A2B7A126A2A
:103100009A42E5D0002BE3D03B78002BE0D00C2294
:10311000224B01921B7800935343EB185C69002308
:103120003B703378204A214F002B0BD0019B009934
:103130004B43EB185B6908335B01D35C9B065B0F69
:10314000032B16D10121164B65011948EB18197193
:103150002F504019174D0834056103256401105D97
:10316000A8430143115540225A71303A5A719D7259
:10317000AEE7084801F0E2FB02AB3A00991D2800D7
:1031800001F033FECDE7C046740C0020750C002022
:10319000880800201C09002031320000F8F60000E9
:1031A000FF5000415808002000500041740A0020E0
:1031B000D0150020740B002070B500260A4B440186
:1031C0001B195D68AD04AD0CAE4205DA074B985D86
:1031D000FFF762FD0136F7E7054BE4180123237280
:1031E0003F33637170BDC046D0150020740A0020C3
:1031F000FF50004170B500260A4B44011B195D6960
:10320000AD04AD0CAE4205DA074B985DFFF744FD07
:103210000136F7E7054BE418022323727E3363710E
:1032200070BDC046D0150020740B0020FF50004137
:10323000224B70B51A780C235A43214B9B188022DD
:103240005D69204B5200998B6C01914228D101237A
:103250001D4A13701D4A137003F0B4F91022194B64
:10326000E6181B4BE418A271227AD30708D5227AFC
:10327000930705D5E3795B0702D52800FFF7BAFF6E
:10328000FF36337ADB0702D52800FFF795FF337A44
:103290009B0702D52800FFF7ADFF1023737170BDA7
:1032A0009A8B80239B009A42D6D10022074B1A703A
:1032B000074BFF32E3185A72CEE7C046F8F600001B
:1032C0008808002000500041740C0020750C00207C
:1032D000FF50004110B5064C200000F0B9FE21005F
:1032E000044801F0FDFE2100034801F0E7FB10BD9A
:1032F0001C0900205808002088080020F0B50400B0
:1033000085B01E000AAB1B78103001930BAB1B7805
:10331000170002930CAB1B780D00039300F01EF90D
:103320002000243000F01AF9220000234032A36369
:10333000E363137063729D4205D10A4B0A4A22214E
:103340000A4807F06DFD6B461B79200063716B46E0
:103350001B7A2560E3716B461B7B2771A671237274
:1033600005B0F0BDDEF500004FF60000EFF50000FF
:10337000437A002B04D18372C372C360013343725A
:10338000704730B5040085B002AD00680291039229
:1033900003F0A8FF6B79227AE1790093206800237B
:1033A00004F08AF82979029A206803F0C5FF2068A2
:1033B00003F08EFF05B030BD70B518260400FFF78E
:1033C000D7FF3300082120790D4D4343EB185956A0
:1033D00003F0DAFD33000821A0794343EB18595676
:1033E00003F0D2FD082160794643AD19695603F018
:1033F000CBFD044B200006CBFFF7C3FF70BDC046DA
:103400004CF70000BC0C002007B5837A00910192B4
:10341000002B07D09A070AD5EFF310835A42534185
:10342000C37272B60099019AFFF7ABFF07BDDB07C5
:10343000F8D5C368014A9BB29360F3E700180040D7
:10344000837A002B05D09A0704D5C37A002B00D0CD
:1034500062B67047DB07FCD5C368024A9BB2D360F3
:10346000F7E7C0460018004010B5006803F048FFB9
:1034700010BDF8B5050000680C0003F03CFF260AFB
:10348000E7B2012810D139002800FF27FFF7ECFF31
:10349000BC43044331002800FFF7E6FF030220008D
:1034A0003840184380B2F8BD31002800FFF7DCFF38
:1034B000FF2600023440044339002800FFF7D4FF00
:1034C000B4432043EEE700001FB5094B094A0A49FF
:1034D0001A6000225A711A71012302930193093371
:1034E00000930932023B0548FFF708FF05B000BD15
:1034F000BC0C002000093D00B40F0020780C002017
:10350000094B1868002809D1EFF310820749002AF7
:1035100008D172B6BFF35F8F01320A701A680132A8
:103520001A6070470870F9E7C80C0020C40C00202E
:10353000084B1A68002A0CD01A68013A1A601B68F6
:10354000002B06D1044B1B78002B02D0BFF35F8FFA
:1035500062B67047C80C0020C40C0020FF23002175
:1035600010B504000370FC3B41708170C1700171A3
:1035700043710C22083007F0F1FC200010BD000060
:1035800001220B0010B5134008D00D4B1A70042314
:1035900043708368002B00D0984710BD022211426F
:1035A00004D007490A704370C368F3E70423194243
:1035B000F3D0034A1370033343700369EAE7C0464C
:1035C0004E48004110B5FFF79BFF0C4B1B8C1B07AF
:1035D0001B0F0B2B0FD80A4A9900885800280AD0D5
:1035E0000F2408490A78A24313430B70064B19783D
:1035F000C9B2FFF7C5FFFFF79BFF10BD00480041B0
:10360000CC0C00203F4800414E48004110B504005A
:103610000623C05E002807DB012103F037FC0623E8
:10362000E05E002103F062FC0123637010BD70B501
:103630000500C0680E0007F059FC2B7CEC7CE41AF6
:10364000631E9C4103347443A4B2AC80200007F095
:1036500043FCE860002805D02200002107F07EFC32
:103660006E8070BDA8806880FBE70322F8B58B11DF
:103670000D118E101640134015400A404674827496
:103680000026FF228A427641C268C47C077CC3744C
:1036900005740670002A0AD0E21B5B1B51424A41A6
:1036A00059424B419A4202D04188FFF7C0FFF8BD12
:1036B000F8B5C3680400002B00D1F3E0656903F09E
:1036C00045F9854202D903F041F9606103F03EF902
:1036D0006369C01A2C23FF339842EFD972B60622D1
:1036E000A35E1822012053436F4FA688FA18526830
:1036F000DB5D9040E268DB019619511C15786B4A3E
:103700009F186B4A9B182278002A00D058E080321C
:1037100094463860C046C046C046C046C046C04613
:10372000C046C046C046C046C0462A4200D192E0CC
:10373000C046C046C046C046C046C046C046C04659
:10374000C046C046C046C046C046C046C046C04649
:10375000C046C046C046C046C046C046C046C04639
:10376000C046C046C0461860C046C046C046C046B7
:10377000C046C046C046C046C046C046C046C04619
:10378000C046C046C046C046C046C046C046C04609
:10379000C046C046C046C046C046C046C046C046F9
:1037A000C046C046C046C046521000D170E0D2B2FA
:1037B000C046C046C046C046C046C046C046A8E750
:1037C000802294463860C046C046C046C046C046C7
:1037D000C046C046C0462A4221D0C046C046C04668
:1037E000C046C046C046C046C046C046C046C046A9
:1037F000C046C046C046C046C046C046C046C04699
:10380000C0461860521020D0D2B2C046C046C04652
:10381000C046C046C046C046C046C046D2E7186053
:10382000C046C046C046C046C046C046C046C04668
:10383000C046C046C046C046C046C046C046C04658
:10384000C046C046C046C046DCE7B14226D20D782D
:1038500062460131B6E71860C046C046C046C04661
:10386000C046C046C046C046C046C046C046C04628
:10387000C046C046C046C046C046C046C046C04618
:10388000C046C046C046C046C046C046C0466BE7BC
:10389000B14203D20D78624601313AE762B603F0D5
:1038A00055F86061F8BDC0464CF70000184400416F
:1038B0001444004170B5437804000D00002B06D07D
:1038C0000623C05E002802DB002103F0DFFA6378E4
:1038D000E580002B07D00121280003F0D7FA002152
:1038E000280003F003FB70BD70B515000022040032
:1038F0000E0042700272C26042611900FFF7B5FE0D
:1039000031002000FFF793FE29002000FFF7D2FFCF
:10391000200070BD4388F7B58B421AD9037A150C85
:10392000140A002B16D1E4B2EDB20194D6B2B4461B
:10393000047CC67CC768B44218D1032359437F185E
:103940006A46037C1279FD54437CFA546246837CB8
:10395000FA54F7BDFF26344035405C4316405D43C2
:103960005E43240A2D0A0194360AE0E789007F1895
:10397000120E002B02D1D3B2BB55E1E753431B0A11
:10398000FAE710B500218288C06807F0E7FA10BD99
:1039900000207047002070470379413301200B70ED
:1039A000704700207047002070470000F0B50B788A
:1039B0009BB002330B7002AB9D1D0190562200217B
:1039C000280007F0CBFA4B4B03AC092124262380B7
:1039D0000123494A6371A3716172A672E372637332
:1039E000A173079207220320E27602AA207605320D
:1039F0003E30D077414A02A862840B221218267703
:103A00006377E377D3773E4A0EA80D9202220270C5
:103A10003C488127E08504207F00FF30E782A784AF
:103A200020866086A78602A8C73F3F18397011AF6D
:103A30003E7019363618032030703E2602A836181C
:103A400032703F2604273618377012AE3370412685
:103A5000361833704226361833702B4E3C37EE87BB
:103A600047254D262D182A7014AD2F7005253618C0
:103A70004E20357002AE8019252606704F2002AE0A
:103A80008019037016A8037051208019037052200A
:103A9000801901704A3189190D70552189190A70F0
:103AA0005432921917705B2225219219157019AAA8
:103AB00011705D22921913705E2292191370032205
:103AC0005E339B191A704622019B92191B792100C3
:103AD000A37001332375019B0C485B79137080221E
:103AE00001335242134317AA13705C2204F062FCA4
:103AF0001BB0F0BD09040000010309040624000006
:103B00000624020209240000090500000810002014
:103B100070B5002504000C4BC560C3800B4B290019
:103B200083600B4B08330360103000F0FBF8230078
:103B300020005C331D705D70290040221C3007F0AE
:103B40000DFA200070BDC046020200003C010020BA
:103B5000A4F6000070B50126054D064C2B683342D3
:103B600003D12000FFF7D4FF2E60200070BDC046B7
:103B70000C0D0020100D002010B503F0F5FD040021
:103B8000FFF7E8FF0100200003F0C2FD10BD0000B8
:103B900010B5417902480131C9B204F067FA10BD8D
:103BA0000810002010B5FFF7D5FFFFF7F1FF10BD9B
:103BB00013B5040001AA103000F0BDF8002807D0AA
:103BC000617904230131C9B201AA024804F046FB1D
:103BD000012016BD0810002010B50C00FFF7BAFF39
:103BE0002100FFF7E5FF10BDF7B50400617904235C
:103BF00001AA194804F0B8FA00282BD0042829D1CA
:103C00006946019800F042F923005C331E780133C5
:103C10001B78124A40339B1B134004D54022013BC2
:103C20005242134301334022D31AC2B29342DDDB26
:103C3000270000235D378342D8D03F2539784A1CBE
:103C40002A40964204D06D46ED5C61180D773A70BB
:103C50000133F0E7F7BDC046081000203F000080A8
:103C600010B50400FFF7C0FF23005D345C33187803
:103C70002378C01A431E984110BD10B5FFF76AFFA4
:103C8000FFF7EEFF10BD10B50400FFF7ADFF2200F7
:103C900021005C325D31137809780020994205D00B
:103CA0003F21E41801330B40207F137010BD10B585
:103CB000FFF750FFFFF7E7FF10BD10B50400FFF757
:103CC00093FF230022005C335D321B7812780020C2
:103CD0009A4201D0E418207F10BD10B5FFF73AFFDB
:103CE000FFF7EBFF10BD0000002310B54360FA237F
:103CF00004009B008360034B08330360FFF73CFF25
:103D0000200010BDC0F6000010B5FFF723FFFFF73D
:103D10006BFF10BD10B50248FFF7E6FF10BDC046AF
:103D2000FC0C0020FF2309011940002301604372AD
:103D3000436003727047030048B270B5002848DA48
:103D4000F82912D0F92901D9FD290ED108000C302B
:103D5000C0B2022813D805201C68517000212043EE
:103D600010709170D170197207E018680F23034327
:103D70001370002351709370D370012070BDF0292F
:103D800005D1012259715A721A720020F6E7F729FB
:103D90001BD1187A441C1C721C18617119680530FB
:103DA0000843002110701C7A481C8C4205D8002062
:103DB0000131042906D05054FAE719180979115431
:103DC0000100F0E758721872D7E7002019711872D5
:103DD000D4E7187A451CEDB218181D724171587A53
:103DE00000280ED0032DD0D104211C68214311706E
:103DF0005979517099799170D979D17000221A72DC
:103E0000BCE719790F260C00B443B02C0AD00DD8AA
:103E1000802C07D002D8002CD9D0AFE7902C01D04D
:103E2000A02CABD1022DA9D1091122E0D02C02D0B7
:103E300005D8C02CA2D1012DA0D109110CE0E02C95
:103E4000F0D0F02C9AD1314002290ED0032902D0B3
:103E5000012900D092E702211868014311701979F5
:103E600051705979917000217CE70321022D00D017
:103E700084E718680143117019795170597991706C
:103E80009979D17000221A7277E7000037B5030CD8
:103E9000041C020A01900F202040012425008540C7
:103EA00028000C4DD2B2DBB228420CD10A4D284278
:103EB00005D10A4B184001D020000A703EBD0A709F
:103EC0004B700220FAE74B700A7001ABDB780320DD
:103ED0008B70F3E7984F0000443000002080000012
:103EE000704700207047002070470020704770B571
:103EF00005000C007F2084430020844233D1072B2F
:103F000031D8824202D02C69072C2CD02E000124FB
:103F100028363068002812D1002917D007263140F2
:103F2000C900002A23D040232A690B4301322A61A9
:103F30003240134324012D19AB61180013E0013402
:103F4000E4B21036102CE4D100200CE0013423013F
:103F5000EB18002A08D041229A602B6901332B61AB
:103F600024012D19A86870BD01229A60F8E733403A
:103F700018000B00B3430343DCE7F8B54B1C1B01EF
:103F8000C3189A6805000E00520617D501271C7A3F
:103F90006407640F7B1E0E2B00D901277A1C1301C6
:103FA000EB181B7A9B065B0FA34211D01700102A57
:103FB000F4D12B69A34201D1013C2C6100230122E1
:103FC0003601AE1904357561B361F2613362F8BD33
:103FD00039002800FFF7D1FFDCE710B5002901D137
:103FE000143010BD0200012328321468A14203D10D
:103FF00014301B01C018F4E70133DBB21032102B70
:10400000F3D10020EDE770B50C00412910D101007B
:1040100003000022012515312433FF31041D5A60AD
:104020009D60DA601C6010339942F8D1026170BD66
:1040300002000121283213689C4202D1FFF79DFF44
:10404000F5E70131C9B210321029F4D1EFE70000D1
:104050000822114B30B58260050034320360012123
:10406000002342730200041D153503618361C161A1
:104070000362446143602432FF3553609160D36032
:1040800014601032AA42F8D1AA2252008354034B82
:10409000443AFF3A1A6030BDECF6000044010020BB
:1040A000AA2310B500245B00C45402F0C3FA200018
:1040B00010BD0000014B18687047C0464401002045
:1040C00010B51400FFF789FF031E0DD00368002B05
:1040D0000AD000228168914205D01868A04203D01E
:1040E0000C330132F7E70023180010BD70B516003D
:1040F0000D001C00D822002B06D0FFF76EFFD62241
:10410000002801D0002270C0100070BDF7B5140067
:1041100052019446009100222100012701930423BB
:10412000274E083166447270264A49010B9D885C0F
:104130003D40AD009843284307258854019B885C87
:10414000DB192B403135A843DB0003438B540A9B1A
:104150000320DBB23371089B1B0628D58B5C83439D
:104160001F4340238F54B371137B00255B0700D49A
:104170000335154E202266443000002106F0EEFE85
:104180007F20B3890099834301400B430F21B38102
:10419000B3890C400D4924020B401C43B481736861
:1041A0002A070B4D7E381D4015437560FEBD8B5CA4
:1041B00083431800022303438B5440237371D3E7D6
:1041C000FF50004100500041D0150020FFF0FFFFDC
:1041D000FFFFFF8FF0B585B01F0006000C00150033
:1041E000FFF7FBFED62300282AD002680133002AFD
:1041F00026D02A0021003000FFF762FFDB23386061
:1042000000281DD0437A9B08DAB20F2A00D90F2369
:1042100001221100DBB299400B000A99013B0B60AF
:10422000002D10D00027037A0392029742682100E4
:1042300001920B9A300000922A00FFF767FF3B00C3
:10424000180005B0F0BD7F210268054B52019B1894
:104250009A890C408A4314439C812B00F0E7C046A6
:10426000D0150020F7B5170000911E0002F068FB82
:104270000025224B0099C318380001932C0002F04E
:10428000BFFA02F05DFB019B984232D202F06EFA57
:1042900002282ED10099380002F0E0FA00282AD135
:1042A000174A7B019A18117A0430014207D0107224
:1042B0000134002E03D0B44201D10220FEBD022001
:1042C000104AD118897A014204D00134002E01D05D
:1042D000A642F2D00820D218D289024202D001357B
:1042E000032DEBD00120074AD318DB890342C8D045
:1042F000E4E7FF20E2E70020E0E7C04610270000E7
:10430000FF500041D0150020F0B51F000C0087B011
:104310000CAB02CB04901B78607A02933B88059229
:10432000019363680122039300233B8023680833D1
:104330005B01800725D532481B185A710025236878
:10434000304A5B01995023682E4E5B019A59012136
:1043500052199A512268059B0498FFF783FF23683E
:10436000012814D10226284A5B019B18DA79024001
:104370005100627AB2430A436272324205D09871A8
:10438000E1E71F481B181A71D8E75871DBE70028CE
:1043900006D01E4A5B019B1810225A7107B0F0BD6F
:1043A0001B495A015B015B184021B61872681970ED
:1043B000019D9204920C954200D915003B88039A06
:1043C0005B199BB23B80AA4202D8019A9A4210D84C
:1043D0000121022023680C4A5B019B18DA79114005
:1043E000627A490082430A436272102200209A7165
:1043F000D4E7029B002BA6D0180002F0D7FAA2E760
:1044000000500041D0150020FF50004100510041F4
:1044100004510041F0B585B01D000AAB40CB04004B
:104420001F780023029303938033019303AB00931F
:1044300002ABFFF7CFFE002807D1019700962B00B3
:10444000039A02992000FFF75FFF05B0F0BD00005E
:10445000F0B54F6895B01D007B1E03900C000192D3
:10446000DA203F2B4ED801222368497A08335B01BA
:10447000114235D025495B185A71002023680293F8
:10448000002D34D02E00BD4200D93E0032001A99D2
:1044900004A806F047FD04AA3100029802F09CF936
:1044A000019B226802210398FFF7DCFE002812D04E
:1044B000022819D0082825D0012818D12368144AC9
:1044C0005B019B18D979627A014082430A43627288
:1044D000024219D098711A9BAD1B9B191A93CDE714
:1044E0000A495B181A71C8E7019B012B0AD1012107
:1044F0002368084A5B019B189A79637A0A408B43C8
:104500001343637215B0F0BD5871E4E700500041E9
:10451000FF50004100510041F0B51D008FB014ABB9
:104520001F7815AB1B781600059316AB1B782A0075
:10453000069317AB1B880390079318AB1B88049353
:10454000002309930A937F339A430AAB01920093A5
:10455000320009ABFFF73EFE041E49D1402102F0B4
:104560000BF9041E44D16B461B7D0CAA93706B465D
:104570001B7E5770D3706B469B8B082193806B46D4
:104580001B8A1570D380099B186802F025F9210059
:104590000A9B32000398FFF765FE041E28D11A9B80
:1045A0006DB20999002B33D00A9A4B7A002D43DA69
:1045B00002270A263B434B7206ABF6186B461B8A52
:1045C00033801A9B0190009303983300FFF79CFE01
:1045D0000122040010420ED009990B685801224BA9
:1045E000C01883791A404B7A5200BB4313434B7275
:1045F00020000FB0F0BD0028FAD11B9B002B07D084
:104600001B6831881F681A9A0B900BAB1B98B84730
:10461000099B186802F0D6F8099A134913685B01E0
:104620005B1801215971E90F01310A9B1268039847
:10463000FFF718FE0400DBE701252B434B721A9BA2
:1046400003980093199BFFF703FF041ED0D1099B29
:10465000186802F0B7F8099A034913685B015B1800
:104660005D712900E1E7C04600510041F7B58900BE
:1046700041181F00FC31002314000D00019000932D
:10468000A8693A00036821005E68089BB0470600ED
:10469000E0282ED1002C21D18021214A89001389C4
:1046A00066200B43138102F081F9A8693A00036880
:1046B00021001E68089BB047061E0DD0009B022BF0
:1046C0001CD9002C22D18023154A9B001189662019
:1046D0000B43138102F06AF93000FEBD2300019AFA
:1046E00044339B00D3185868390003685B699847C6
:1046F000DBE70028D9D0009B022BEDD8642002F024
:1047000055F9009B0133DBB20093B9E7019B4434B8
:10471000A4001C196068390003685B699847DBE7EF
:1047200000500041F8B505000F1E18D00600002407
:104730001536FF36306800280DD003681B6998478E
:10474000B84208D12000443080002818406803682F
:104750009B689847F8BD01340436102CEAD100203C
:10476000F8E730B589B005939BB204930123002488
:104770000C9D0293053300930794069503940194CE
:104780007A33FFF7C9FE09B030BD30B589B0059363
:104790009BB20493022302930C9B0024DBB201938F
:1047A00006230D9D00930794069503947A33FFF733
:1047B000B3FE09B030BD10B5DBB288B00024019360
:1047C000052307940694059404940394029400939B
:1047D0002300FFF7A1FE04009620400002F0E6F857
:1047E000200008B010BDF8B51F0043690400D725AC
:1047F000002B1FD03B00581E834120002362130072
:104800000022FFF774FB033D061E13D001002000B9
:10481000FFF7E3FB023500280CD00022C76033000D
:1048200011002000FFF7C7FF051E03D03100200054
:10483000FFF7E9FB2800F8BDF0B51F00082391B091
:104840000993F0230391002108AE9B013381436952
:104850000BAD0492059346610762122300950A008E
:1048600004000891FFF77DFFEB797360059B63619E
:10487000002838D106002B8905936B8906932B7984
:104880000793B5001535FF3565192868002814D140
:104890000136102EF5D10026B5001535FF35651906
:1048A0002868002829D10136102EF5D13B00049A42
:1048B00003992000FFF797FF15E003681B699847ED
:1048C0000028E5D12868069A036805999B699847EE
:1048D00000280AD00097049B039A31002000FFF7BC
:1048E000C5FED128D4D011B0F0BD2868079903685F
:1048F000DB6998470028EDD1CAE703681B69984730
:104900000028D0D12868069A036805999B699847C2
:104910000028C8D1286807990368DB6998470028F0
:10492000C1D1049B039A009731002000FFF79EFE3F
:10493000082203009343D12BD5D1B4E70023F7B568
:104940000700019301F012FF0190019B022B29D077
:10495000032B0AD0012B0BD1F023424A11680B40E4
:10496000102B05D01123136002E013223D4B1A6077
:104970003D003C001535FF352E005534FF343068BE
:10498000002802D00368DB6898470436A642F6D1B7
:10499000344C2368302B42D012D8112B28D0202B36
:1049A00034D0F7BDF0232F4C22681340102BDFD1F9
:1049B00001F0C6FF2C4BC830186020232360D7E7D6
:1049C000502B34D0802B3ED0402BEAD10822274BED
:1049D000998B1142E5D09A831989F8320A431A81DA
:1049E0005023236001F0ACFF1F4B14301860D8E750
:1049F00001F020FE2868002802D003689B689847D1
:104A00000435AE42F6D112232360CAE701F098FFC5
:104A1000154B1B68C01A30230028F5DAC1E7802344
:104A2000124A9B0011890B4313814023ECE70F4B83
:104A30009B8B5B07B5D501F083FF0B4B1B6898423E
:104A4000AFD98023E0E7002338001A001900FFF7F0
:104A5000F3FE002803D0A023D228D5D1A1E79023CC
:104A6000D2E7C04644010020700D002000500041F4
:104A700010B5DBB288B0002401930923079400939A
:104A8000069405940494039402942300FFF744FDD4
:104A900008B010BD00207047007A704710B50400C0
:104AA0004068217A03689B689847002001232072A0
:104AB000A372E0729034207010BD0000234BF7B554
:104AC0000833020003600126002390324160037224
:104AD0008672C372037313700C220400944614345C
:104AE00001965A425A41D20062606246002502276E
:104AF0005A43256025728218557F019EB543BD43F8
:104B000055773700002B00D10F270C2203265A437C
:104B10008218557FBF0035403D43013355770C3433
:104B2000052BDED100290AD00A0000231532FF32FE
:104B30001468002C04D144339B00C9184860FEBDA2
:104B400001330432102BF3D1F9E7C046FCF6000024
:104B5000F0B5C7B006AC009201940600170004231C
:104B6000002240680391FFF710FEC0B2002852D126
:104B7000E278A3781202134380221D1C5200934254
:104B800000D9151CADB2019400972B0000220399A7
:104B90007068FFF7FAFDC0B200283CD16319049396
:104BA0000C2301009C46049B9C4234D2237803933F
:104BB0006378042B08D0052B10D0022B01D1637928
:104BC0007372039BE418EEE763790021012BF8D19F
:104BD000A279032AF5D133730131F2E7E578B37C8A
:104BE0002B40022BEDD1A27853B2DB43DB0F00291F
:104BF0000FD001332779059767467B430F27F318BA
:104C00003A405A61059A1D779A61B37A0133B372BB
:104C1000D7E70333EEE747B0F0BD0000084B028A48
:104C20009A420CD1C389202B07D0362B05D0512BAB
:104C300003D0692B01D07B2B01D1022383747047F1
:104C400035120000F0B58FB0059381230362030095
:104C500006910021012507920222040028334162B7
:104C6000197029300378AB43934303702300143346
:104C700004932033E5622163197021002800353147
:104C80000B78D830AB4393430B70257A002D09D1B4
:104C9000676829003B6838001B6898470390002824
:104CA00002D1D6200FB0F0BD039BD7201B681E1E7B
:104CB000F8D0039A049B29001360059BD36009ABCD
:104CC0002A00009360681223FFF74BFD06AB9B8A16
:104CD000039A238206ABDB8AC5B2E3811660002DFE
:104CE0007ED13B682A005B6806991E003800079B4E
:104CF000B047C2B203002272D420002AD2D006AA42
:104D0000D27C2900A261FF22606813402A00FFF7CD
:104D100052FDC2B206003B68002A0AD0039A38004E
:104D2000D560217A9B6898473000FF222572104099
:104D3000B8E703991B68CA60217A380098470028B1
:104D4000AFD0059B0122C36006AB5E7F217A049B36
:104D50006068FFF7CBF9C5B2002D41D103232F00C6
:104D6000A3742000FFF75AFF2573BE420CD0217AAE
:104D70003A002000FFF7ECFE051E31D1A37A012B8B
:104D800002D80137FFB2F0E7A37A012B27D9237BA2
:104D9000002B11D1A36B2362E36B636223004033CA
:104DA0001A78183B1A70636CE362A36C23632300C8
:104DB0004C331A78183B1A70217A049B03226068DE
:104DC000FFF794F9637A217A00226068FFF750FEBA
:104DD000C5B2002D04D10123E372280062E7FF254C
:104DE000236820009B689847F7E773B500260D00FD
:104DF000436A14000B80017A019600922B00026A2C
:104E00004068FFF707FB2B88C0B23B2B03D8E65462
:104E10002B88E418667076BD006A704709394842ED
:104E20004841704710B504004068216A03689B68D8
:104E30009847002020626062A062E06210BD10B559
:104E40001B02134388B09BB2002403930123C9B211
:104E50000093079406940594049402940191016AC6
:104E6000223322004068FFF757FB08B010BD10B591
:104E7000002488B0059289B292B2069304920794F6
:104E80000391029401940094016AA32322004068D4
:104E9000FFF742FB08B010BD10B51B02134388B0EA
:104EA0009BB2002403930323C9B200930794069492
:104EB0000594049402940191016A20332200406811
:104EC000FFF72AFB08B010BD73B5002604000D00E3
:104ED00033000A0011210196FFF7B1FF33002A00C9
:104EE00010212000FFF7ABFF33002A00042120002F
:104EF000FFF7D2FF033601AB042229002000FFF7A1
:104F0000B6FFC0B200280BD1019A0D4B13400D4AD9
:104F1000934205D06430013E01F048FD002EEAD1F5
:104F20002A00002314212000FFF789FF2A00002314
:104F300010212000FFF783FF142001F037FD73BD1F
:104F4000FFFDFFFF03011000F0B59DB00A93036A57
:104F500005000C910D920893D924002B4CD1466882
:104F60000899336830001B689847033C071E43D0FC
:104F7000036801340993002B3ED02B0008330360F3
:104F80000B930A9B089AC36014AB0093110008238B
:104F90006868FFF7E6FB089B041EFB6000D09BE0FF
:104FA0003C2206AB9B181B78D134092B24D1043A40
:104FB00006AB9B181B78373A0A9333680C995C68E8
:104FC00030000D9BA047D424031E286214D03F213B
:104FD00006AA521812786868EA60089A1100FFF76A
:104FE000EAFB041E0BD0099B296A3B603368300042
:104FF0009B689847089B2B6220001DB0F0BD2822BB
:105000006B469B180A9A1B78202A00D92023099AFC
:10501000296A3A600A9ADBB2002A4FD10B9B02221E
:10502000296A6868FFF762F8041EE5D1292308277A
:10503000029314AE233B079003900190009302006B
:105040000696059704979A33296A6868FFF764FA09
:10505000041ED1D1B37802006B62009001963B0030
:10506000296A6868FFF791FB041EC5D173880200A6
:1050700000900196296A6868FFF787FB041EBBD180
:105080000EAA3378296A0192009002006868FFF73F
:105090007CFB041EB0D102007379296A6868FFF7AF
:1050A000E7FC041EA8D16B6A0134A34210D300238D
:1050B000220008212800FFF7EFFEF4E714AA00926F
:1050C00068680022FFF74DFB041E00D094E7A5E7B7
:1050D00001230024EB628FE7099B3B608CE7000013
:1050E0000822C260F022124B920102820122083390
:1050F00003600023426182610E4A10B54160036281
:1051000043628362C36283608283994209D00A004A
:105110001532FF321468002C04D144339B00C918A7
:10512000486010BD01330432102BF3D1F9E7C046BB
:1051300024F7000003040000F8B514001378527837
:10514000050012021A43A3780E001B041A43E378E9
:105150001B061343324A93422DD007D8314A93425B
:1051600045D0314A934226D000243EE02F4A934254
:1051700002D02F4A9342F7D1002332001421280095
:10518000FFF75DFE0023320010212800FFF757FED5
:10519000142001F00BFC80226378002492001B0293
:1051A00013402A6A68685107490F3200FFF744FB31
:1051B000204B1C7019E000241E4F3B78A34214D1F1
:1051C0002300320011212800FFF739FE23003200AE
:1051D00010212800FFF733FE2300320004212800AD
:1051E000FFF75AFE0123B1343B702000F8BD0024C4
:1051F0000A0000231121FFF722FE320000231021B4
:105200002800FFF71CFE0B4B296A1C70072319406E
:105210001E40C90031436868FFF784FAE5E7C046DD
:105220000103010000010100010101000301100060
:1052300003031000740D00200A23F0B5002201249E
:1052400087B06B441C80019204AA00920500016A99
:1052500022004068FFF7DEF8002817D102266B46CF
:105260001B7C1E4214D0002304220393210003ABB5
:105270002800FFF7FCFD071E0AD103AA2100280021
:10528000FFF75AFFB1282ED0002801D007B0F0BD9B
:1052900001347600082CE2D1073C6B6A0020A3425F
:1052A000F4D303AE03903300042221002800FFF75B
:1052B000DEFD071E15D1022208213388FF31FF329F
:1052C0000B4093420DD17388013AFF3A13432100FA
:1052D000320028007380FFF72FFFB12803D0002889
:1052E000D4D10134D9E73800D0E7C36A70B50400DF
:1052F000002B02D10025280070BD01F021FBA36A1C
:10530000C01AF7D42000FFF797FF050001F018FB43
:105310006430A062EFE7000010B5024803F0F9FB2B
:1053200010BDC046780D002013B51249124801F097
:1053300039FF1249124801F035FF1249124801F0B5
:1053400031FF1249124801F02DFF124C1249200082
:1053500001F028FF1149124801F024FF00230193B6
:10536000013300930722053321000E4803F040FB70
:1053700013BDC04600080042B40F0020000C0042DC
:10538000B80F002000100042BC0F002000140042A3
:10539000C00F0020C40F002000180042001C004273
:1053A000C80F0020780D0020F0B557464E46DE4667
:1053B0004546E0B58FB01D0006000F00140000F058
:1053C000ADF9CE4B009001919A461B785BB299469D
:1053D00001333ED022002B002000290005F0C0FB45
:1053E0008346002835D132003B003000390005F0FB
:1053F000B7FB00220390002800D06FE000233000AC
:10540000390003F081FE00282CD000220023200068
:10541000290003F079FE8346002800D192E004AB16
:105420009846012342460493B54B53604346039A82
:105430001C615D611A629E60DF60424600230024A9
:105440009361D4614B46002B67D00023AD4C009391
:105450000194009801990FB03CBC90469946A24631
:10546000AB46F0BD0098019900F09AFF81460028F4
:1054700000D19AE0009801990022002303F044FE35
:105480000028E6D03000390000F08AFF0028E0D084
:105490002000290000F084FF0028DAD004AB9846F1
:1054A000042342460493964B1461556153600023D4
:1054B0000024136200239361D46153461B789660E5
:1054C000D7605BB2022B04D0404600F073FF002887
:1054D00029D105F0C3FC2223036024E0002320002F
:1054E000290003F011FE0028B3D004AB9846012335
:1054F00042460493824B4146536043465A461A62E1
:1055000000229E60DF601C615D617E4B8A61CB6121
:10551000009201934B46022B9BD0404600F04AFF7D
:10552000002800D18AE043461B6A002B04D005F016
:1055300095FC43461B6A03604346DC699B69009304
:10554000019486E72000290000F02AFF002800D1FE
:105550007FE7002200232000290003F0DBFD002864
:1055600000D176E704AB9846012342460493644B8E
:10557000536043465A469E60DF601A621C615D615B
:1055800053461B785BB2002B5DD0002042465E493B
:105590009061D161022B5BD105F060FC2123036097
:1055A00043461B6A002BC7D0C1E73000390000F02A
:1055B000F7FE002800D15DE72000290000F0F0FE92
:1055C000002800D156E70098019953461B78020045
:1055D0005BB29B460B0005F0C3FA04AB984600286B
:1055E00062D1032342460493454B146155615360D5
:1055F00010629660D760454B20002900002204F01D
:10560000F5FC5B4604000D00002B27D1E02241464B
:105610003F4B12068A61CB61300000220023390023
:1056200003F078FD00282AD1404600F0C3FE002890
:10563000B6D105F013FC22230360B1E705F00EFCA0
:10564000212303606FE74246002300249361D46165
:10565000404600F0AFFE0028A2D19DE7002241465F
:105660002C4B30008A61CB6100220023390003F00B
:1056700051FD002835D15B46022BDAD0D4E720005B
:10568000290000F09FFE22002B0003F03DFD0028C2
:1056900005D1E022204B120641468A61CB61534678
:1056A0001B785BB29B46E6E7012342460493144B0A
:1056B000536043464A469E60DF601A621C615D612A
:1056C0005B46002BBFD0002300221900100004F01D
:1056D00083F843469861D9615B46022B00D15BE7B2
:1056E000B6E72000290000F06DFE22002B0003F039
:1056F0000BFD0028D3D10022034BCDE76001002031
:10570000E4F800000000F03F0000F0FF0000E03F80
:10571000FFFFEF470000F07FFFFFEFC7F0B55746F0
:10572000DE464E4645465C006408E0B598461F00DC
:10573000230093B083468A46160013430CD07D4B5A
:105740004D00029181466D089D4212DD7A4B9C46C8
:105750005B4665441D4361D10023784C009301945E
:105760000098019913B03CBC90469946A246AB46BE
:10577000F0BD9D4250D09C42E8DC6E4B9C426BD009
:10578000002304935346002B69DB002A10D1694B98
:105790009C424CD0694B9C4200D1A3E08023DB05A6
:1057A000984500D1BCE0664B984501D100F0D6FB8E
:1057B0005846514600F0F0FD4B4600900191002BF9
:1057C00007D1002D67D053465C4A9B009B0893424B
:1057D00061D05346DB0F013B99464A46049B134375
:1057E00000D190E0574B9C4200DCBBE0564B9C4202
:1057F00001DC00F010FC554B9D4201DC00F004FC84
:105800004346002B23DD524A524B1000190004F08E
:10581000EDFB00900191A3E7002805D04E4800F071
:10582000CBFD009001919BE7AC42F7DCA5E75A461F
:10583000414BEB18134300D18EE7444B9D4200DCF3
:1058400099E3434600960197002B00DB88E700238D
:1058500000240093019483E7002A91D076E73F4B20
:105860009C423CDC394B9C428FDD3D4923158C46E4
:105870006344142B00DCB2E33421CB1A3100D9404D
:1058800008009840904200D07FE70123194001337F
:105890005B1A049379E74346002B07DA009A019BD1
:1058A0000020264903F098FF00900191029B002BF5
:1058B00000DB55E7204B9C46049B65441D4301D10A
:1058C00000F00EFC049B012B00D049E7009C019DD9
:1058D0008021220009066B180092019340E7022301
:1058E000049352E758465146434600900191002BDD
:1058F00000DB35E75A4653460020104903F06CFFA1
:10590000009001912CE75A4653465846514604F000
:10591000DFFD02000B0003F05FFF009001911FE725
:105920005A4653465846514604F060FB0090019198
:1059300016E7C0460000F07F000010C00000F03FF6
:105940000000E03F0000E0410000F043FFFFEF3FB8
:105950009C7500883CE4377EE8F80000FFFF3F4379
:1059600001FCFFFFE44B00229D420ADC00980199F4
:105970000022E24B04F03AFB35220D000090019129
:105980005242DF492B158C46634498462D03DD4C6B
:10599000DD4B2D0B90442C439D420ADDDB4B9D4299
:1059A00001DC00F001FC01239C46D94BE0449C46FD
:1059B0006444002200230E920F9310921193002250
:1059C0000025D04B0692079300980199069A079BF1
:1059D00021000890099104F07BFD069A079B0A902C
:1059E0000B910898099903F0DBFB02000B000020E3
:1059F000C44903F0F1FE0A00010013000C910D925E
:105A000002000A980B9904F0F1FA0A000100130051
:105A100002910392002200920193802364109B055F
:105A2000234380242403A44600206344591904001E
:105A30000D0002000B000098019904F0D7FA020053
:105A40000B000A980B9904F043FD069A079B0A90F5
:105A50000B912000290004F03BFD02000B00089888
:105A6000099904F035FD009A019B04F0BFFA020089
:105A70000B000A980B9904F02BFD0C9A0D9B04F077
:105A8000B5FA029C039D0890099122002B0020008A
:105A9000290004F0ABFA04000D009E4A9E4B04F06E
:105AA000A5FA9E4A9E4B03F07BFB22002B0004F0DC
:105AB0009DFA9C4A9C4B03F073FB22002B0004F0E0
:105AC00095FA9A4A9A4B03F06BFB22002B0004F0E4
:105AD0008DFA984A984B03F063FB22002B0004F0E8
:105AE00085FA964A964B03F05BFB220006900791DD
:105AF0002B002000290004F079FA02000B00069820
:105B0000079904F073FA009A019B04000D000298B3
:105B1000039903F045FB089A099B04F067FA2200F9
:105B20002B0003F03DFB009C019D0A900B9122008D
:105B30002B002000290004F059FA0022814B0400B8
:105B40000D0003F02DFB0A9A0B9B03F029FB0022AA
:105B50000B0011001A00069107920A0000980199A3
:105B600004F044FA00220C900D9106980799754BA9
:105B700004F0AEFC22002B0004F0AAFC02000B0093
:105B80000A980B9904F0A4FC029A039B04F02EFAE5
:105B9000069A079B04000D000898099904F026FA5C
:105BA00002000B002000290003F0FAFA04000D00A7
:105BB00002000B000C980D9903F0F2FA002210007D
:105BC000E022614B12060090019104F00FFA0C9A4A
:105BD0000D9B029003910098019904F079FC02005A
:105BE0000B002000290004F073FC584A564B04F0C7
:105BF000FDF9574A04000D0000980199554B04F037
:105C0000F5F902000B002000290003F0C9FA109AF0
:105C1000119B03F0C5FA06900791404604F0F2FF8D
:105C2000069A079B04000D000298039903F0B8FA46
:105C30000E9A0F9B03F0B4FA22002B0003F0B0FA87
:105C4000002022002B000090019104F041FC0E9AEC
:105C50000F9B04F03DFC029A039B04F039FC020008
:105C60000B000698079904F033FC069007914A460A
:105C7000049B013B134300D188E10023214C029394
:105C8000039400223B0030003900140004F020FC93
:105C9000009A019B04F0AAF932003B0004900591A0
:105CA0000698079904F0A2F902000B0004980599E0
:105CB00003F076FA3D0006000F00009801992200DB
:105CC0002B000496059704F091F902000B003000B8
:105CD00039000092019303F063FA1F4B04000D009A
:105CE0008B460200994200DC55E11C4BCB18034364
:105CF00000D0FBE134E0C046FFFF0F00000040434E
:105D000001FCFFFF0000F03F8E98030079B60B0006
:105D10000000F0FFEF4E454A287ECA3F65DBC9937D
:105D20004A86CD3F01411DA96074D13F4D268F5158
:105D30005555D53FFFAB6FDBB66DDB3F03333333D8
:105D40003333E33F0000084009C7EE3FFD033ADC70
:105D5000F5015B14E02F3EBEFFFF8F40000070BFD7
:105D600004980599E84AE94B03F01AFA009A019B56
:105D700006000F002000290004F0AAFB02000B001F
:105D80003000390003F0DAF9AA46002800D0ADE16E
:105D90008024DF4A53469446640322001B15634463
:105DA0001A411300DB495B445A001E001B038C465A
:105DB0001B0B23431424520DD74D62441541A21AE4
:105DC000134199465B46AE4300203100002B02DAB6
:105DD0004B465B42994602000B000098019904F083
:105DE00077FB4B461B0500900191020098460B0083
:105DF0000498059903F0D4F90D0000240022C74B44
:105E00002000290004F0F2F8009A019B0690079107
:105E10002000290004F05CFB02000B0004980599A7
:105E200004F056FBBE4ABF4B04F0E0F8BE4A060041
:105E30000F00BE4B2000290004F0D8F802000B0030
:105E40003000390003F0ACF904000D0002000B0033
:105E50000698079903F0A4F9069A079B06000F001D
:105E600004F036FB02000B002000290004F030FB98
:105E70003200009001913B003000390004F0B6F888
:105E800004000D00AA4AAB4B04F0B0F8AA4AAB4B91
:105E900004F01EFB22002B0004F0A8F8A84AA94B2E
:105EA00003F07EF922002B0004F0A0F8A64AA74BCD
:105EB00004F00EFB22002B0004F098F8A44AA54B36
:105EC00003F06EF922002B0004F090F802000B00A2
:105ED0003000390004F0FCFA04000D0002000B0051
:105EE0003000390004F082F88023049005910022EC
:105EF000DB052000290004F0EBFA02000B000498F7
:105F0000059903F069FC009A019B04000D00300024
:105F1000390004F06BF8009A019B03F041F902008C
:105F20000B002000290004F0D3FA32003B0004F0FB
:105F3000CFFA02000B000020874904F0C9FA43465B
:105F40005B181A15002A00DC3FE11900029A039B36
:105F500004F04CF800900191FFF702FC5346002B2F
:105F600001DAFFF725FC5846514600F03DF9009054
:105F70000191FFF7F5FB4346002B00DB67E480232C
:105F80001B06FB1800960193FFF7EAFB0023734CF6
:105F90000293039475E64B005B089A46704B9A4552
:105FA00000DCF9E06F4B5B441A430AD1009A019B75
:105FB00004F08EFA049A059B03F0CAF8002800D179
:105FC000E6E602980399684A684B04F00FF8664ABF
:105FD000664B04F00BF800900191FFF7C1FB002A1B
:105FE00001D0FFF7E5FB1432D31A22001A41110049
:105FF0009940A14201D0FFF7CDFB01231A40DB18E5
:106000009B1A0493FFF7C6FB4346002B01DBFFF707
:106010001EFCFFF7F8FB564B9D42F5DD4E4B9D42B3
:1060200001DDFFF7EDFB0098019900224A4B04F0D7
:106030004FFAC0224F4BD20504000D0003F0D6FFEB
:106040004D4A029003914D4B2000290003F0CEFFF2
:106050000022009001914A4B2000290003F0C6FF66
:1060600002000B004748484904F032FA22002B0096
:1060700003F0BCFF02000B000020444904F028FAA2
:106080002200069007912B002000290003F0AEFFAC
:1060900002000B000698079903F0A8FF1A4A354B37
:1060A00003F0A4FF02000B000098019904F010FA1D
:1060B00002000B0004000D000298039903F070F831
:1060C000029A039B00200090019104F001FA020063
:1060D0000B002000290004F0FBF906900791C6E5AB
:1060E0000098019902000B00FFF711FC284A294B88
:1060F0000298039903F07AFF254A264B03F076FFB6
:1061000000900191FFF72CFBFE822B654715973C11
:1061100002FCFFFF01FCFFFFFFFF0F00432EE63FE5
:10612000EF39FAFE422EE63F396CA80C615C20BEC6
:10613000D0A4BE726937663EF16BD2C541BDBB3E8D
:106140002CDE25AF6A56113F93BDBE166CC1663F6B
:106150003E5555555555C53F0000F03F0000F0BF76
:10616000FFCB904000346F3F59F3F8C21F6EA5017A
:10617000FEFFEF3F4715F73F44DF5DF80BAE543E9F
:106180000000D03F555555555555D53F0000E03FCF
:106190009C7500883CE4377E00220E4B9046914669
:1061A0009A4500DC29E6F3E580220B4BD2050E92DE
:1061B0000F930A4A0A4B8025109211930022094B33
:1061C000ED0206920793FFF7FFFB4A4600F08AF9BB
:1061D000BCE6C0460000E03F03B8E23F06D0CF4334
:1061E000EBFD4C3E0000F83FF8B54746CE46674B06
:1061F00080B50A000F00190005003940994200D10E
:106200009BE004000100002F69DD3F1500D1B4E0E0
:106210005F4B12039C468023120B5B0313435B000E
:10622000CA0F67449B184A00F80703D5D20F5B00DA
:106230009B188A0079108C460021802016248946FC
:1062400080030D189D4202DC29185B1B8144D50F89
:106250005B00013C5B1952004008002CF1D100208A
:106260008046802020250027000609E08B425CD074
:10627000D40F5B00013DE31852004008002D16D0FA
:10628000C4198B42F2DD27180E00002C49DB5B1A83
:10629000A242894149425B1A121BD40F5B00013DA7
:1062A00080443100E31852004008002DE8D1134328
:1062B0004ED143465B0837494A4688464946521004
:1062C0004244C90702D5802109060B4361460F05E8
:1062D000BD18180029000CBC90469946F8BD7B00FB
:1062E0005B0803433900002BF5D0002F3CD1E30AB3
:1062F000153A6405002BFAD08020400303423FD1B9
:10630000002700E00F005B00791C0342FAD0250053
:1063100020208D40401A2900D71B2200C2401A437A
:1063200076E7FE43F60F8E19B1E79442A0D82718FE
:10633000002CF6DB1E000023AEE702003B00280025
:10634000390003F053FE2A003B0002F029FFC2E7A8
:106350004346013303D0434601335B08ABE70123D7
:1063600098460023C144A6E73B00020004F0B0F8C1
:1063700002000B0003F030FAADE713000022BBE788
:106380000127210020207F42C6E7C0460000F07FA1
:1063900001FCFFFF0000E03F49004B081900704777
:1063A000034B48009C4640086044C00F7047C046FD
:1063B0000000108000207047002001497047C0464F
:1063C0000000F87FF0B5C64600B5CB0F9846404AAE
:1063D0004B005B0D9A1882B00D000400132A2FDCCD
:1063E000002A49DB3B4F17413E000E40064323D0B5
:1063F0007F08390029400C430AD03749BD438C46F9
:1064000063445C425C418023DB021341E4071D438B
:106410004146CE0031492B008E1922003468756840
:106420002000290002F0BCFE009001910098019923
:1064300022002B0004F04CF802B004BC9046F0BDE2
:10644000332A08DD8023DB009A42F5D102000B00DD
:1064500002F0A6FEF0E7224A94460122634452422B
:10646000DA400242E8D052080242D1D0944380225E
:10647000D2051A411443CBE74B005B080343DBD042
:106480000B031B0B1C436342234380244D0C24034A
:106490001B0B23406D042B4319004346DA000F4BBE
:1064A0009B181C685D6802000B002000290002F0A8
:1064B00077FE009001910098019922002B0004F0D2
:1064C00007F842464B005B08D60733431900B3E791
:1064D00001FCFFFFFFFF0F00EEFBFFFFF0F80000E5
:1064E000EDFBFFFF4B0070B55B0D14000A00002BA5
:1064F0001AD14B005B08034315D0234B002203F055
:1065000075FD224B9C422DDB0A004B005B0D363B98
:106510001F4DE318AB422ADC002B0DDD1D4C1B0583
:1065200022401A43110070BD1B4DAB42F0D1020056
:106530000B0002F035FEF6E71D00353519DA174B72
:1065400002009C4209DD0B001548164900F032F8A4
:10655000134A144B03F04AFDE5E70B0012481349B8
:1065600000F028F8104A114B03F040FDDBE7020071
:10657000E9E7084C363322401B051343190000227B
:106580000B4B03F033FDCEE700005043B03CFFFF60
:10659000FE070000FFFF0F80FF07000050C3000050
:1065A0009C7500883CE4377E59F3F8C21F6EA50144
:1065B0000000903C30B54A00DB0FDB0752081A435D
:1065C000110030BD194B1A78D2092ED004219A8BB4
:1065D00092B20A4204D099830222154B1A70704776
:1065E00008210A4203D09983114B0122F6E740218A
:1065F0000A42F8D120210A42F5D110210A42EAD1FB
:1066000080210A42EFD180218020490080000A4287
:1066100004D09983998298831883DDE70242DED003
:106620009883988299831983DEE7FEE70050004142
:10663000CC0F002070B5424800F07CF92023414A7D
:106640000F20D1690B43D361062100F09DFC062188
:10665000102000F099FC3C4B3C4A5A805A7852B2C8
:10666000002AFBDB01233A4C227813432370A378E2
:10667000DB07FCD482222378134323702378023A69
:1066800013432370A378022BFCD01F21314A1368D7
:106690005B0B0B408B4200D10523208D2E4D0B4010
:1066A0009B0128400343238513689B0C0B401F2B41
:1066B00000D1023B1F20218D034081430B43072162
:1066C00023851368DB0D0B408B4200D10323228D01
:1066D0000B4022491B030A401343238504232278DD
:1066E000802513430C221E482370606223896D00AD
:1066F000934323812A00002104F030FC0022194B2F
:1067000001210E201A7000F0C1FB01210E2000F0C3
:10671000EDFB1023258325832383F133FF3323836C
:106720008023C1212289DB0013430F4A2381890082
:1067300053581B021B0A53508023136070BDC04680
:10674000C565000000040040000C00400640000049
:1067500000500041246080003FF8FFFFFF8FFFFFE3
:10676000D0150020CC0F002000E100E0014B18788C
:106770007047C046CC0F00200D4B00211B7B5B07F0
:1067800000D4033138220B480907437893431A0099
:1067900008231343084A43709389084803409381B0
:1067A0005368074803400B43002053607047C046BE
:1067B00000500041FF500041D0150020FFF0FFFFC6
:1067C000FFFFFF8F43010348C01843689B0B9B03E7
:1067D00043607047D0150020074B4001C250181885
:1067E000436889048A0C990B89031143416043680B
:1067F000024A134043607047D0150020FF3F00F06D
:106800000300F0B503260F00124D08335A01545D02
:106810003740B4433C435455002907D10E4A400148
:106820008018102202723032827105E0012909D1EC
:106830000849521840211171064A5B019B18102229
:106840001A71F0BD044A40018018012202723F32E1
:10685000EAE7C04600500041FF500041012911D035
:10686000002903D0022917D0002109E0114A430171
:106870009B181022187A104202D01A729A710121C4
:10688000080070470B4A43019B181A7A0A400FD040
:10689000102219729A71F3E70122064B4001C318C6
:1068A000187A00211042EBD010311A729971E6E784
:1068B0001100E5E7FF500041FEE70000034B10B573
:1068C0001B68002B00D0984710BDC046D00F002099
:1068D00070B50F490F4CA14204D100F08DF802F0C1
:1068E000F9F9FEE70C4D00238D42F6D0CA18E818DE
:1068F000A24205D3094B8242EFD00949002204E0AD
:10690000006804331060F1E704C38B42FCD3E4E772
:1069100000000020E0030020D8FD0000E00300207C
:10692000D416002010B500F064F8002801D100F062
:1069300055F810BD014B18607047C046D00F0020BD
:10694000014B18687047C046D40F0020F7B51348B4
:10695000012284461249134C8E68636805689B0EB9
:106960001340019288686268019F920E3A40674620
:106970003F6893420ED1BD420CD186420AD35B19C7
:10698000FA254868AD00861B07486B437043000D2D
:10699000C018FEBD3D0013000600E3E7D40F002041
:1069A00010E000E000ED00E05555000070B5041E59
:1069B00010D0FFF7CBFF050000F01AF8FFF7C6FF75
:1069C000054B401B9842F7D9FA23013C9B00ED1878
:1069D000002CF3D170BDC046E703000010B5034A98
:1069E00013680133136000F09FFB10BDD40F00202B
:1069F00070470020704700001E2270B54648474986
:106A0000436893431C3A1343436008238C69234330
:106A10008B61434C434B9C829C8A14439C82DC6870
:106A20001442FCD00124404A14701578254203D04A
:106A300055786DB2002DF8DB01249460547864B26F
:106A4000002CFBDB394C5460547864B2002CFBDB27
:106A50008224E4015480547864B2002CFBDB0224CD
:106A60009C840E34DD682542FCD0314CDC6210245D
:106A7000DD682542FCD09D8C2E4C2C439C84102438
:106A8000DD682542FCD002249D8C80262C439C840A
:106A90004024DD683542FCD0DD682542F9D0102461
:106AA000DD682542FCD000249460547864B2002C48
:106AB000FBDB214C5460547864B2002CFBDB1C6A75
:106AC0001E4D2C4080251C621C6AAC431C620323B3
:106AD00093601B4B536053785BB2002BFBDB0023AE
:106AE000FF240B72174A4B728B72CB72164B1A60D3
:106AF000164B174A1B6811689A065B01C90E2340A2
:106B0000520F12020B431343124A1385802342682B
:106B10001343436070BDC046004000410004004084
:106B20000C06000000080040000C004001050100B8
:106B3000B905FF7D040A000000070300FFFCFFFF0A
:106B400003060100006CDC02640100202460800068
:106B50002060800000400042FA212D4B10B51868DB
:106B6000890002F04BF92B4B013898424FD82A4943
:106B70002A4A4860C020136A00061B021B0A03430E
:106B8000136200238B6007330B608021136A0906B0
:106B90001B021B0A0B431362FC22214B196A0A4396
:106BA0001A62FF22196A12020A431A62A022196AA3
:106BB000D2020A431A621B4B1C005A7852B2002AB6
:106BC000FBDB194A5A80194B1A00597EC909012961
:106BD000FBD0C821890099800521D970537EDB093B
:106BE000012BFBD0C02300205B011361907000F0EB
:106BF00029F863785BB2002BFBDB0D4B0D4A6380F9
:106C0000D379DB09012BFBD04123537010BDFEE784
:106C100064010020FFFFFF0010E000E000ED00E055
:106C200000040040000C00401E40000000400042F4
:106C30002140000000480042014B18607047C046E8
:106C4000680100201F4900B50B004A7ED209012AC5
:106C5000FBD001380A282FD802F0C6F81B2E2E2EA2
:106C60002E2E062E2E2411001A6917490A400F21D4
:106C70001A615A788A43110001220A4310E01A6906
:106C800011490A400F211A615A788A4311000322E0
:106C9000F3E71A690C490A400F211A615A788A43AE
:106CA0005A7000BD1A6908490A400F211A615A78C2
:106CB0008A4311000222E0E7F022196912050A4313
:106CC000F3E7C04600400042FFFFFFF018234343B4
:106CD000F0B5654A87B09B18DE6804000091B207E2
:106CE00019D5002817D1614A1300D179C9090129A2
:106CF000FBD000998D05AD0D1581DA79D209012AF5
:106D0000FBD0022219780A431A70DA79D209012AD3
:106D1000FBD007B0F0BD082732003A400192544D35
:106D200000D18FE02968102200981227DF5F00F061
:106D300021F904210500F30602D4B306E9D50521A3
:106D4000200000F021F93E124A4BB200D4584A4BC1
:106D5000FFB29A5D002A54D101329A5547490F3249
:106D600002A804F0DFF802AA73009B5A8022D20125
:106D70001A43434B5A805A78D209012AFBD0022287
:106D800096421BD9238893432380E37BDB09FCD104
:106D90002288403313432380E37BDB09FCD10C378B
:106DA000ADB27F003D53E37BDB09FCD12288023387
:106DB00013432380E37BDB09FCD1AAE723689343D9
:106DC000304A23601300A1681142FCD10222E16B1A
:106DD0000A43E263A2681A42FCD11037BF00E719E8
:106DE0007D60A2681A42FCD1274A2264A2681A4236
:106DF000FCD1022221680A432260A2681A42FCD117
:106E000087E7022E07D90C37ADB27F003D53E37BF5
:106E1000DB09FCD17DE70223627913436371194BCF
:106E20001A00A1681942FCD11C37BF003D51A3686C
:106E30001342FCD1022321790B432371A36813422F
:106E4000FCD166E70121200000F020F829683A0013
:106E5000009800F08FF801997F2800D901212000C7
:106E600000F044F855E7C0464CF7000000480042E7
:106E70006801002048010020D80F002000F9000020
:106E8000000C0040FF0F7F00FFFF0000182310B52B
:106E900008244343134AD0180457013412D0012464
:106EA0009A5643689C4003290CD808000E49D20129
:106EB0005218D318403301F097FF0210060B02213D
:106EC0001970546010BD0621197054609461F9E77F
:106ED0000621197054605461F4E70221197094601E
:106EE000F0E7C0464CF70000004400411823F0B51D
:106EF00008245843114A13181C5701341BD001268B
:106F000035005F688356BD400D4ADB019A189068D2
:106F100005420BD10C00601E8441D219403210781A
:106F200034400336A400B04320431070044A9B1839
:106F3000002901D15D61F0BD9D61FCE74CF70000C7
:106F400000440041182310B508244343074900209A
:106F5000CA181457013408D05B560549DB015B1889
:106F6000186A5368D8400123184010BD4CF7000040
:106F700000440041914202D002D98A1AD0407047A1
:106F8000521A9040FBE700001822424370B52D4E84
:106F90000300B218127A52B2140001320ED0481C0B
:106FA00000240C280AD801F01FFF071F1F1F1F1FF6
:106FB0001F1F1F0B0B0B0B0001246442200070BD30
:106FC000092905D100211800FFF760FF0024F5E72B
:106FD0000A2901D10839F6E700240B29EED10A3934
:106FE0001800FFF753FFE9E7182201205343F21876
:106FF000F3565568144ADB016C089B18C9B2284047
:107000001C1900280ED00F203034227809010240CC
:1070100011434122C9B25B192170403319780A43E8
:107020001A70D3E722000F26303214785B19B4436C
:107030002143117041224033197804000A431A7029
:10704000BCE7C0464CF7000000440041F7B507001C
:107050000E000024012501920093019B002B14D106
:107060002900A140009B380019404B1E9941FFF7B1
:107070003DFF29003000FFF739FF013400213000C7
:10708000FFF734FF082CE8D1F7BD072329001B1BAD
:107090009940E7E7F7B506000D000C008B18019347
:1070A000019B671B9C4207D0336821781B68300026
:1070B000984701340028F3D13800FEBD70B50400B4
:1070C00008000D0004F0CAFF2368020029005B6875
:1070D0002000984770BD10B50B1E02D0FFF7EEFFE1
:1070E0000300180010BD000010B50249FFF7E6FFCD
:1070F00010BDC04610F9000070B50400FFF7EBFFAB
:1071000005002000FFF7F0FF401970BD014B18602B
:107110007047C0466C0100200122024B52421A60A7
:107120007047C0466C010020164A10B51368591C00
:1071300026D0013B1360002B22D172B6124B134AAA
:107140000433934213D9124A01211000147D0C42DA
:10715000FCD02021148BFF319B085B00214311835D
:10716000D3610C4B13800123027D1A42FCD0BFF384
:107170004F8F094B094ADA60BFF34F8FC046FDE7D6
:1071800010BDC0466C01002000200000030200007A
:107190000040004102A5FFFF00ED00E00400FA05F9
:1071A00010007047016070479446F0B59E1E721E35
:1071B00096416246056892072F6836063A43324385
:1071C0002A60072505AC24780068A40129402143E2
:1071D00042680024022B00D05C031143214341602C
:1071E000F0BD30B5C0250368AD031C6812052A4008
:1071F0002243C0240904A4022140114319600368FA
:107200005A6814435C6030BD0123026811680B4367
:10721000136003681A68D207FCD4DA69D207F9D47C
:1072200070470223026811680B4313600268D36938
:107230009B07FCD4704703681A7ED20702D41A7EDB
:107240009207FCD57047002203685A837047036891
:10725000187E4007C00F70470368187EC00970474A
:10726000802302685B42117E0B43137670470368EC
:10727000588B8007C00F704702230268518B0B4365
:10728000538370470368187EC007C00F70470368B8
:10729000188DC0B2704703681A7ED207FCD589B238
:1072A000012019857047012203689A7570470122F1
:1072B00003681A7570470123026811680B43136055
:1072C00003681A68D207FCD4DA69D207F9D4704788
:1072D0000223026811680B4313600268D3699B079D
:1072E000FCD470470368DA699207FCD402211A685B
:1072F0008A431A607047036818684000C00F7047DF
:107300000268936A5B0A5B021943916203681A7E02
:107310005207FCD5986AC0B27047000010B549000A
:10732000044801F06BFD80B2002801D0013880B222
:10733000C0B210BD006CDC0270B54B080C0001211E
:1073400005680B400C402E6824075B07234333433A
:107350002B6011000468FFF7E1FF207370BD00008F
:107360000368104A934213D00F4A934212D00F4A37
:10737000934211D00E4A934210D00E4A93420FD03E
:1073800001200D4A4042934201D1063040B270477D
:107390000020FBE70120F9E70220F7E70320F5E7EB
:1073A0000420F3E700080042000C004200100042F5
:1073B0000014004200180042001C0042F8B5FFF71C
:1073C000CFFF00282CDBC3001C48FF22C018052378
:1073D0000479C35603201840C0008240C021D24324
:1073E0008140002B1DDB1F2501201D40C026A84029
:1073F000134D7600A851C0269B089B005B19B60070
:107400009F593A401143995128603F2323408024DB
:10741000E4011C430B4B5C805A7852B2002AFBDB20
:10742000F8BD0F200340083B07489B089B001B1832
:10743000D86902401143D961E7E7C04614F900005A
:1074400000E100E0000C004000ED00E0F8B50400B1
:107450000F0016001D00FFF7B1FF2000FFF7D4FE5C
:107460001C21BB000B4071072268090C0B43136001
:10747000842322689375012F1AD11021012E00D088
:1074800008390C4B69431868C00001F0B7FC0722AB
:10749000216802408B895203DB04DB0C13438B8190
:1074A000226803049089DB0C400B40031843908151
:1074B000F8BDC04664010020F7B50400019308AB95
:1074C0000D0016001F78FFF7F6FE2000FFF776FF8D
:1074D000C0223605920332400C261643C0222D04EA
:1074E00092021540072223683543BF072F431F60D0
:1074F000019B216813401A0080239B0213434B60B9
:107500002268D3695B07FCD4F7BD3F20704713B5F1
:107510006B460268D9710733546819000122A047ED
:1075200016BD000010B50221006900F089FD034B73
:107530001B6801335A1E9341181810BDC00100206A
:1075400010B50321006900F091FD10BD10B50321B5
:10755000006900F059FD10BD10B5054C23685A1C98
:1075600004D103685B69984703002060180010BDD0
:10757000C0010020074B0200186810B5411C03D061
:10758000012252421A6010BD0221106900F058FE1B
:10759000F9E7C046C001002010B51300094A0400F5
:1075A000D079C0B2002805D1627E002A02D0012322
:1075B000636006E00A002069032100F04FFE002806
:1075C000F5D010BD7401002010B5037842220233BB
:1075D00003700249024800F0EDFE10BD7C0100205E
:1075E0000810002010B50178020043780020A1297E
:1075F00008D1212B05D107221649174800F0DAFEE1
:10760000012010BD2129FCD1202B13D107221149C3
:10761000114800F06FFD96220E4BD200196891427E
:107620000ED10124D87904400AD1FA20FFF76EFD6B
:107630000020E6E7222B06D19278064BDA71EAE7C2
:10764000FFF76AFDF4E7232BDBD15288034B1A6066
:10765000D7E7C04674010020081000207001002008
:10766000FA220021054B92009A60054A59600832BF
:107670001A60044A19761A617047C046E00F00206C
:1076800044F900000810002070B50E000025446881
:10769000002C0BD0236831005B682000984700283D
:1076A00002DB2D18E468F3E701256D42280070BD68
:1076B00070B50D004468002C08D0236829009B6831
:1076C00020009847002802D1E468F4E7200070BD4C
:1076D00070B50D004468002C08D0236829001B6891
:1076E00020009847002802D1E468F4E7200070BD2C
:1076F00070B50D004468002C08D023682900DB68B1
:1077000020009847002802D1E468F4E7200070BD0B
:10771000F0B58C79457803002A190020072A1FDC70
:107720005A68824216D159601A78C8790A711218BB
:107730004D711A7000220B4DD0B284420FD98F6860
:1077400058789600F7598600013077510132587009
:10775000F2E70200D0680028FBD1D160E4E7012005
:10776000F0BDC046C40100200121054A10B51368D0
:1077700004480B4003D1044C43600480116010BDE9
:10778000FC0F00200010002002040000704770472A
:1077900070B50F26CB1D013902003240D5B22C0046
:1077A00000093034092A00DD07341C70013B8B428C
:1077B000F2D170BDA02110B50400490001F010FB0A
:1077C000200010BDF8B5032908D1304B8000C05807
:1077D000002802D003689B689847F8BD822919D118
:1077E000C3B22B4D5A01AA1891692A4C80010C4052
:1077F000C021890521439161274908334018702130
:10780000506128685B011A5C8A43110030220A43E8
:107810001A54E2E70029E0D1C026C1B21C4C4B014A
:10782000E3189A681B4DB6052A4032439A601B4AFA
:10783000800182185A600A00072724680832520122
:10784000115DB9430F000121394311559F69124958
:107850003D4040182E439E6158617020115D814368
:10786000080010210143115599680D48A2180840DD
:1078700080214903014399609968890B89039960C4
:10788000402311790B431371A7E7C0460C10002069
:10789000C0140020FFFFFF8F34100020F4110020DF
:1078A000FF3F00F0EFF3108303600123436072B6E3
:1078B00070470368002B02D162B6BFF36F8F704729
:1078C000F7B50500FC35EB690600002B18D19627AB
:1078D0007F00C45D6846FFF7E5FF019BE4B2013B12
:1078E00002D3F45DE4B2FAE768460193FFF7E1FFE3
:1078F000002C01D10020FEBDE86AAB6AC01AFAE78D
:107900006846FFF7CFFF9E220024019B5200013BF7
:1079100002D3B45CE4B2FAE768460193FFF7C9FF0B
:10792000002CE7D0E86BAB6BE8E7000030B54468AB
:10793000FC3043698069DBB25A01A2189168094D95
:107940008004294000090143916091680833890B44
:107950008903916022685B01D318402219790A4398
:107960001A7130BDFF3F00F0F7B50500FF21FC356F
:107970006A6943680A401B68083252019A18D37931
:107980000400DB0754D50126D6716B6962680B4091
:107990005B01D318286A9A689204920C002822D1BD
:1079A000EA62EA6A002A40D06A6B2E6268465A6030
:1079B000FFF778FF9E273E21019B7F00013BFF31AF
:1079C0005A1C2ED096225200A654E25D581ED2B206
:1079D000002A05D0665468460193FFF76AFFF7BD99
:1079E00062540300ECE7EA63EA6B002A1DD0002230
:1079F0002A626A6A68465A60FFF754FF96273E215A
:107A0000019B7F00013BFF315A1C0AD09E2252008D
:107A1000A654E25D581ED2B2002ADBD162540300A4
:107A2000F2E768460193FFF744FF2000FFF77EFF6F
:107A300063681A686B69DBB208335B01D3187F2275
:107A4000DA71CCE7F7B5070068463C00FFF72AFF7C
:107A50000026FF22019BFC34013B0DD3E068216925
:107A6000884204DBE6682069961B3618F4E726692D
:107A7000E168761A013EEFE768460193FFF719FFC8
:107A8000E3696846002B52D1FFF70CFF9621019B5A
:107A90004900013B5A1C0CD07D5C5A1EEDB2002DF2
:107AA00005D168460193FFF704FF2800FEBD1300CF
:107AB000F0E7684601930025FFF7FBFEFF21A36A6C
:107AC000B54214D0E26A9A4211D95A1CA262626A83
:107AD000D3181878E36822690133C0B20B4093428F
